:020000022000DC
:1060000000000120756302005D6302005F6302000F
:106010006163020063630200656302000000000028
:1060200000000000000000000000000067630200A4
:1060300069630200000000006B6302006D630200F0
:106040006D9D02006F630200B1A10200252B0300C9
:106050006F6302006F6302002DA00200F5A302002F
:106060006F6302006F6302006F6302006F630200E0
:106070006F6302006F6302006F6302006F630200D0
:106080006F630200857202006F6302006F6302009B
:10609000217302006F630200A52503006F630200F5
:1060A0006F6302006F6302006F6302006F630200A0
:1060B0006F6302006F630200000000000000000038
:1060C0006F6302006F6302006F6302006F63020080
:1060D00041A302006F6302006F6302000000000032
:1060E00000000000000000000000000000000000B0
:1060F00000000000000000000000000000000000A0
:10610000000000000000000000000000000000008F
:10611000000000000000000000000000000000007F
:10612000000000000000000000000000000000006F
:10613000000000000000000000000000000000005F
:10614000000000000000000000000000000000004F
:10615000000000000000000000000000000000003F
:10616000000000000000000000000000000000002F
:10617000000000000000000000000000000000001F
:10618000000000000000000000000000000000000F
:1061900000000000000000000000000000000000FF
:1061A00000000000000000000000000000000000EF
:1061B00000000000000000000000000000000000DF
:1061C00000000000000000000000000000000000CF
:1061D00000000000000000000000000000000000BF
:1061E00000000000000000000000000000000000AF
:1061F000000000000000000000000000000000009F
:10620000354936480A1A02D0072291438D4634494F
:1062100034480A1A06D00722914381F309880222E2
:1062200082F3148830483149314A00F044F831484B
:106230003149324A00F03FF831483249324A00F0E1
:106240003AF832483249334A00F035F83248334997
:10625000334A00F030F833483349344A00F02BF821
:1062600033483449344A00F026F83448344900228F
:1062700000F02CF833483449002200F027F8334866
:106280003349091A082902DB002202604160314AC1
:1062900090471F481F49884205D00268043003B464
:1062A000904703BCF7E700208646EC46002000211B
:1062B000294A9047FEE7884207D0521A05D0037852
:1062C00001300B700131013AF9D17047884202D098
:1062D00002700130FAE770470000012000E0002062
:1062E0000000012000000120948303005C290020AD
:1062F000B42F0020D0630200D063020024480300C2
:10630000948303005C2900205C290020284A0300B4
:10631000284A0300284A0300284A0300284A0300A9
:10632000284A0300284A0300284A030094830300F4
:10633000EC890300B42F0020B42F0020B42F0020DC
:10634000BC990020BC990020BC990020BC99002079
:10635000BCB900209D630200E9BA0200FEE7FEE737
:10636000FEE7FEE7FEE7FEE7FEE7FEE7FEE7FEE705
:1063700000F002B8FFF7FCBF0F484FF00701884359
:1063800085460E4880470E48016841F4700101605F
:10639000BFF34F8FBFF36F8FFFF732BF09480A4932
:1063A0000A4A884207D0521A05D0037801300B7090
:1063B0000131013AF9D1704700000120199802001B
:1063C00088ED00E0144A0300482900205C290020E1
:1063D0007047000007B5044B0093044A402300F0C7
:1063E00032F803B05DF804FBF1630200B52F002022
:1063F0002DE9F84389461446B2B10F4B0F4E0325E1
:10640000002743F00108224609EB0701002006F0AF
:106410004FFD0744241A48B933782BB14FF47A4022
:10642000C047013D02D13570BDE8F88301233370C8
:10643000002CE8D1F8E700BF304A0300B42F002059
:10644000704706F069BDF0B595B01C461646084683
:106450000D4602F0D1FF1A9B0D93CDE9086400248C
:106460002346082205A928460A948DF82C400C944E
:1064700002F0DFFF079B0293069B03939DF8143005
:106480008DF8114003F00302012A1DD1BDF814401C
:10649000059EC3F3C203C4F383148DF81030A20029
:1064A00008230EA9284602F0C4FFC6F3952608ABC0
:1064B0000093224602AB0EA9304600F0E7FB2846C7
:1064C00002F09EFF15B0F0BD022AF8D1BDF81640CB
:1064D000C3F3C203A4098DF810300827082C264600
:1064E00028BF08263B4632460EA9284602F0A1FFE7
:1064F000A41B08AB02AA31460EA8374400F02AFCC0
:10650000002CEBD1DBE7000008B5FFF79AFF042170
:10651000034800F029FB034B01225A7108BD00BF5C
:10652000044A03005C290020037813F0040216D00B
:1065300003F00303012B03D0022B09D00120704785
:106540000A6800880232C0F3831002440A60F5E74B
:106550000B684288023303EB92130B60EEE71046A0
:10656000704700002DE9F04F87B000230446851CDA
:106570000DF107000F4690468DF8073001F0D2F874
:10658000454806683E60D0E90132134401339B1B45
:10659000824600F21C4600F5836900F21447AB42C4
:1065A0001BD30022B8F1000F70D0052363F307025C
:1065B00064F38912DAF80010DAF808309DF8070061
:1065C0000B4003330D444AF82320CAF8005001F071
:1065D000CDF8012007B0BDE8F08F0121304602F070
:1065E0008DF9484602F0A3F9384602F0A0F9DAF82E
:1065F0000400DAF808B0029000EA0B0003300AEB5E
:10660000800002A9FFF790FF029B50BB0BEA030238
:106610000AEB820203F1020CD2680392013303EA0F
:106620000B0B0AEB8B0B02F00302012ACDF808C01A
:10663000DBF80C1022D0022A16D08346384602F02E
:1066400079F910B1029BCAF804305946304602F07D
:1066500055F9DAE901231344DAF8002001339B1AD3
:106660009DE70BEA0300C9E7BDF80E309B09033331
:106670004FEA114B0CEB93030293DFE7BDF80C30AC
:10668000C3F383134FEA114B6344F5E7062363F327
:10669000070264F39F528DE7C83000200B4B0C4873
:1066A000FF2210B59A600022C3F81824C3E9002223
:1066B000C3F8142483F8202402F057FE044610B9CE
:1066C000044802F05BFF204610BD00BFC830002028
:1066D000EC480300544A030030B50A4C71B10A4A31
:1066E0000A49121BD20800239A4201D1002030BD72
:1066F00031F82350854202D00133F5E7034654F8C0
:106700003300F4E714490300044A03005C29002025
:10671000094B013903EBC000032909D8DFE801F078
:106720000A020406042070470079704740797047D8
:10673000002070470220704714490300034BD3E93F
:106740000030C31A58425841704700BFC83000207B
:106750002DE9F04387B0FFF7F1FF0646002840F02F
:10676000FB807E4DC5F81804BFF34F8F6868AC6896
:1067700002902040033005EB800002A9FFF7D4FE11
:10678000029B18B1D5F81824002A5FD004EA03024E
:10679000991C013305EB8202234005EB8303D26889
:1067A000DB68049302F00303022B0392029162D18F
:1067B000BDF80E306A484FEA9318B8F1500FC14641
:1067C00028BF4FF0500969F38F1309F10801ADF8A4
:1067D0000E3002F0E2FD0746002800F0A88002F02B
:1067E0000BFE03A900230822384602F018FE029986
:1067F00024EA01060136B600B14535D95FFA89F9B8
:106800007EB3F6B2A9EB0609214003315FFA89F4A1
:10681000B146544E05EB810108234A46384602F042
:10682000FEFD36B109F1080322463146384602F032
:10683000F6FD029B08F1030803EB98030293D5F8D9
:106840001834002B4BD1D5F810445BE02A689A42EB
:1068500004D86A60304607B0BDE8F08304EA03005C
:1068600088E740493446D7E72140033108234A46A8
:1068700005EB8101DAE7012B59D1BDF80C3038481E
:10688000C3F38311062928BF062161F3891302315E
:106890008900ADF80C3002F080FD0746002846D094
:1068A00002F0AAFD0023082203A9384602F0B7FD32
:1068B0000026BDF80C20C2F38312B300964203F108
:1068C0000803BCD202994A1C21400331029205EB15
:1068D00081010422384602F0A2FD0136E9E738467C
:1068E00002F08EFDFFF72AFF80F00100C6B2B1E78B
:1068F000E3685B7923B1236839461B6820469847D3
:10690000E3681C68002CF3D1384602F079FD0DF1E4
:1069100007008DF8074000F005FFD5F818340BB9D3
:10692000029B6B609DF8070000F020FFDAE7D5F8C6
:10693000104454B90C4B0D480D49C01AC00800044E
:1069400040F0020000F06EF8CCE7236820469B6818
:106950009847E3681C68ECE700267BE7C830002016
:10696000EC480300D43000201449030054490300CC
:10697000604A03002DE9F74F284C80460F469246A7
:1069800001A9012218469B46D4F80890FFF7EAFDBA
:1069900080B3019D0026A91C5E4506EB010233D1A0
:1069A00000211F4801F069FF80F310006A1C02EA11
:1069B000090204EB8202000405EA0903033340EAFA
:1069C0001840D06014F8232068F3C50204F823208F
:1069D00034F8232066F3891224F8232054F8232066
:1069E00067F39F2244F8232002F0F80242F00102EC
:1069F00004F8232094F820341BB1FFF7A9FE0028E7
:106A0000FBD103B0BDE8F08F09EA020204EB820279
:106A10005AF82630D3600136BEE700BFC8300020E8
:106A2000E434002000231A46FFF7A4BF07B5012372
:106A3000019201AAFFF79EFF03B05DF804FB07B5C2
:106A4000CDE9002302236A46FFF794FF03B05DF807
:106A500004FB1FB5CDE90123069B039301AA032381
:106A6000FFF788FF05B05DF804FB1FB5CDE90023F3
:106A7000069B0293079B03936A460423FFF77AFF62
:106A800005B05DF804FB7FB5CDE90123089B0393B6
:106A9000099B04930A9B059301AA0523FFF76AFF4C
:106AA00007B05DF804FB00002DE9F34780462C4C4D
:106AB000D01C8A46174601A900228008A568FFF766
:106AC00051FDC8B3DDF80490A66809F102000190F9
:106AD00001362840361AB6000330B74204EB800076
:106AE00034D83A4651460DF04DFA00211D4801F0C8
:106AF000C4FE80F3100009F101032B4004EB830373
:106B00004FEA184242EA0042DA6005EA0903033319
:106B100004EB830214F8231068F3C50104F8231072
:106B2000518867F38F11518034F8232002F0380226
:106B300042F0020224F8232094F820341BB1FFF71E
:106B400007FE0028FBD102B0BDE8F087324651466F
:106B50000DF018FABA1B0AEB060104F10C00C2E7AB
:106B6000C8300020E434002030B50F49D1F810249B
:106B7000002314463CB9C468237152B9C1F810040B
:106B80002260184630BDE46825799D4206D024680D
:106B9000F0E7D268116821601060F2E701330A2B38
:106BA000E7D14FF0FF33ECE7C8300020094A38B591
:106BB0000123D2F8104482F820341D4604B938BDB0
:106BC000E3685D71236820465B689847E3681C684A
:106BD000F4E700BFC8300020037A052B10B50C463F
:106BE0000FD0437A23B1084A0849204601F005FF37
:106BF0000749204601F001FF2046BDE8104001F0A2
:106C0000F1BE002AF8D0F3E7AB4A03003B6E030065
:106C10008B7E0300C38873B504460D4633B1144A16
:106C200000921449144A284601F0E7FE217A05290A
:106C30001CD0637A4BB1A088FFF76AFD0F4B104957
:106C400053F82020284601F0D8FE227A0D4BA08868
:106C500053F822600021FFF73FFD0B4903463246FF
:106C6000284602B0BDE8704001F0C7BE02B070BD5A
:106C7000AB4A0300B84A0300B04A0300784A030055
:106C80003B6E0300DC4A0300D04A03002DE9F043C9
:106C900085B01F460C9D002306460C46904695F88D
:106CA0000C902B7329463846FFF7B4FFB8F1060F56
:106CB00009D8DFE808F00412181F283340003146D5
:106CC000284601F09AFE002229463846FFF784FF45
:106CD00085F80C9005B0BDE8F0832268314628465F
:106CE00001F08BFEEFE7D4E900233146284601F09E
:106CF00084FEE8E7A36800933146D4E900232846E0
:106D000001F07BFEDFE7E3680193A368009331465F
:106D1000D4E90023284601F070FED4E723690293EA
:106D2000E3680193A36800933146D4E90023284621
:106D300001F063FEC7E76369039323690293E36885
:106D40000193A36800933146D4E90023284601F05B
:106D500054FEB8E708292DE9F84F80460E4617463D
:106D60001C463AD8002593F80C901D73194610461E
:106D7000FFF750FFDFF884A0DFF884B0AE422ED9D1
:106D800018F805205946204601F037FE0135082D38
:106D9000F4D11849DFF86CB0204601F02EFE4FF018
:106DA000000A564520D918F80A507E2D03D82846E7
:106DB0000CF0BEFE00B92E252A465946204601F0A9
:106DC0001CFE0AF1010ABAF1080FEAD1012221469C
:106DD0003846FFF701FF84F80C90BDE8F88F514664
:106DE000204601F00AFED1E70349204601F005FEE6
:106DF000E7E700BFA64A0300A44A0300A24A030033
:106E00009C4A0300A84A0300C30710B507D4F02327
:106E10004008054A145C23401943115410BD090170
:106E2000C9B20F23F4E700BFB835002030B5094BD5
:106E30001C78094B196800239C4202DC0022104692
:106E400030BD11F83350854201EBC302F7D0013356
:106E5000F2E700BF84350020C835002070B5044635
:106E60000D46FFF7E3FF30B1436823B129462046C2
:106E7000BDE87040184770BD034B044819680022F4
:106E8000490800F0EBBB00BF883500208C3500209E
:106E900010B5C0B2FFF7CAFF0446007803F0BCF893
:106EA00063785A1E53425341834208D1044BD3E9BD
:106EB0000023134303D1BDE81040FFF7DDBF10BD31
:106EC000B035002037B54308364AD35CC2074CBF03
:106ED0001B0903F00F0304460D46042B36D8DFE8E8
:106EE00003F003262D393D0081B30121FFF78CFF0C
:106EF00000230DF107008DF8073000F013FC01228C
:106F0000A4F12003C4F12000274902FA03F322FA76
:106F100000F0034302FA04F4D1E9002014430343D0
:106F2000C1E900439DF8070000F020FC0EE00029B5
:106F300018BF02212046FFF767FF07E041B1032198
:106F4000FFF762FF01212046FFF788FF03B030BD45
:106F50000121EFE70029F9D10421EBE709B1032171
:106F6000E8E7FFF751FF29462046FFF777FF0DF1CD
:106F700007008DF8075000F0D5FB0122A4F1200393
:106F8000C4F12000084902FA03F322FA00F0034397
:106F900002FA04F4D1E9002022EA040420EA0303FF
:106FA000BEE700BFB8350020B03500202DE9F04124
:106FB000124E134F00243378A34208DC114BD3E95F
:106FC0000023134318D0BDE8F041FFF755BF3D68DB
:106FD00005EBC40815F8340003F01EF898F801100A
:106FE0004B1E594259410A1A514215F83400514179
:106FF000FFF768FF0134DEE7BDE8F081843500204B
:10700000C8350020B0350020092AF7B505460C46E2
:1070100016463DD902F03EFFD8B11E4B1E481D60FA
:107020001E4B1F4F1C701F4B002110221E600CF0C6
:10703000D2FF1D4B00200021C3E90001013CE4B256
:107040000326FF2C0BD1194A1948002100F0F4FA4D
:1070500003E002F0E7FE0028DFD003B0F0BD20B26D
:107060009DF806308DF8046005EBC00223F007039D
:107070008DF8063001A9937815F830008DF80530A9
:107080003A4602F011FF013CE4B20028D9D0E4E70F
:107090000720E2E7C8350020B835002084350020FD
:1070A000916E020088350020B0350020AD6F0200DF
:1070B0003C4B030070B5084D084E00242B789C42D1
:1070C00001D3002070BD3368012113F8340002F0B1
:1070D0005FFF0134F2E700BF84350020C83500208F
:1070E0001FB50021039001AA44F20100CDE901116E
:1070F00000F004F805B05DF804FB000010B572B6AE
:10710000FFF754FDFFF724FB0028FBD1104B114C77
:107110001149E41AE408240444F00100FFF782FC5A
:107120000E4B1B68DB0700D500BE0D4944F0020082
:10713000FFF778FCBFF34F8F0A490B4BCA6802F484
:10714000E0621343CB60BFF34F8F00BFFDE700BF8A
:1071500014490300544903004B4B0300F0ED00E0D9
:10716000574B030000ED00E00400FA054B1C30B55E
:10717000DB00044612F003009BB20DD1074D2A60DC
:107180001A44074B1A60074B1870074B1870074BCF
:107190001C80074B198030BD0720FCE7D435002048
:1071A000D0350020CC350020DC350020D83500203B
:1071B000DA350020094A537891780133DBB29942DD
:1071C00008BF0023117899421FBF0370507818231D
:1071D00003FB002014BF043000207047E03500207E
:1071E00073B5054600240DF107000E468DF80740E3
:1071F00000F098FA0DF10600FFF7DCFF90B1067081
:10720000094B9DF8062045605A709DF8070000F074
:10721000ADFA24B9054B4FF48012C3F80021204683
:1072200002B070BD0424F0E7E035002000E100E08A
:10723000024B4FF43C6043F001031847704B0300CE
:1072400038B50C4B0C4C4FF40032C3F880200125AC
:107250004FF48033C4F84833C4F808336560FFF74F
:10726000E7FF064BA56000241C60FFF7E1FF044B1D
:107270001C7038BD00E100E000100140FC36002029
:10728000ED360020F8B51F4B1F491B680025C1F8DB
:107290004051C1F84451C1F84851C1F84C51C1F8AE
:1072A0000051C1F804514BB3D1F80445174909689E
:1072B000641A24F07F442F461A68A24209D8A41AFF
:1072C00015441A7CDE691AB11F74D3E90520904772
:1072D000AEB90F4A0F4B11781B788B4205D10133A1
:1072E000DBB2022B08BF0023137012780A4B43F85D
:1072F00022500A4B4FF48012C3F80021F8BD3346E8
:10730000DAE700BF0037002000100140FC36002003
:10731000F9360020F8360020F036002000E100E0C9
:107320002DE9F04FA14AA24913780978A14D99425D
:1073300085B03CD00133DBB2022B08BF00231370B1
:107340009D4912789D4B0F6853F822003B1823F09B
:107350007F4300220B602B6816461446944613B9EF
:1073600042B12B6006E0196881420ED902B12B6050
:10737000091A196001272B68DFF848A201934FF022
:107380000008BEB9DFF844B266E0401A0C44D96880
:10739000C3F800C0D3F81CE031B13A1922F07F42A3
:1073A000C3E90121DE611E4601227346D7E70026AC
:1073B0003746E0E73446F6697F4A63681268DFF8CB
:1073C00010C2A068991A21F07F41614500F2A680A1
:1073D00001442160012222742A680023C4E9013398
:1073E000E361002A40F0A3802C60CAE75A1C9BF896
:1073F0000210D2B291428BF8002004BF00228BF819
:107400000020182202FB03B31A799C68022A1CD0C0
:10741000032A12D0012A1FD1207CE8B9D3E9031234
:10742000A2605A69E2609A69654BA2611B78002BE1
:107430000CBF0B4603466360BEE700222B68114673
:10744000002B67D142B12B6006E029680A468946C5
:10745000002A5AD1002323749BF800309BF80120A6
:107460009A42C3D12B68B8F1000F04D1019A9A4215
:1074700001D1002F43D0002B73D0D3F800A0514D81
:107480004D4BD5F804751C68DFF848813E1B98F811
:10749000003026F07F4603369BB94FF48033C5F8A1
:1074A0004433C5F80433484B4FF400324FF0010920
:1074B000C3F880211A60C5F80090FFF7B9FE88F87C
:1074C0000090B2452CBF5444A41924F07F44C5F861
:1074D0004045D5F80435DB1B23F07F43E41B033321
:1074E00024F07F44A3420AD9D5F80435C5F84035C5
:1074F000FFF79EFE344B4FF40032C3F80021304BAF
:1075000000221A7005B0BDE8F08F94422CD091464D
:10751000D2699DE719740122DB6991E7D31A23F040
:107520007F43834234BFC31A0023236052E721689C
:107530001368994213D8591A1160E26154E7091A85
:10754000D8691A4638B1034618688842F7D3401AFA
:107550001860184613462160E061DC6111E71346AC
:10756000F2E7FFF76DFECAE74C4511D1CB692B60FE
:1075700073B9DFF844E00120CDE90212CAF808002F
:10758000CEF800300E4B1870FFF752FEDDE9021204
:107590001368D269C9F81C2012B110680344136043
:1075A0002B68994218BF4FF0010853E7F8360020C6
:1075B000F936002000370020FC360020F03600208D
:1075C000EC3600200010014000E100E0E035002032
:1075D000FEFF7F00ED36002008B5FFF731FE104BAF
:1075E00000200B2218809A700E4B18600E4B1870FA
:1075F0000E4B18700E4B4FF48012C021C3F880213F
:1076000083F814131A6002F18042A2F56F22C2F8C7
:10761000080583F81113074BD2F804251A6008BD3A
:10762000E035002000370020F8360020F936002031
:1076300000E100E0FC360020074B9B784BB132B1F3
:1076400028B10368187C20B959745A617047072023
:1076500070470820704700BFE03500202DE9F74350
:107660001F4FBB7805460E469046B3B3A8B31D4BDB
:107670004A1F9A422FD843697BB3437C0024012BD5
:107680000DF107000CBF8946A1468DF8074000F0B8
:1076900049F80DF10600FFF78DFDD0B1012303700D
:1076A000114B4560D3F80435C0E90498C0E90236AF
:1076B0009DF806307B709DF8070000F057F824B95C
:1076C0000A4B4FF48012C3F80021204603B0BDE8F6
:1076D000F0830424EFE70724F7E70824F5E700BF69
:1076E000E0350020FAFFFF000010014000E100E05B
:1076F000064A92783AB130B1426922B1002202744E
:107700000221FFF76DBD0820704700BFE035002063
:10771000014BD3F80405704700100140401A20F0D7
:107720007F40704770B5EFF3108672B60C4A9468CC
:1077300001239CB993600B4B0B4DD3F8801029406B
:107740001160C3F88050D3F8841051604FF0FF32BD
:10775000C3F88420047006B962B670BD0370FAE7FE
:107760000437002000E100E0FC06FFBD084B9A68EA
:1077700010B55AB150B9EFF3108172B6054A1C68C2
:1077800014605C685460986001B962B610BD00BFB7
:107790000437002000E100E070B5064D06460024E5
:1077A00055F8043B0BB1304698470134042CF7D10F
:1077B00070BD00BF1C370020033080B240F2FE33A2
:1077C000984230B51FD8134B1A783AB91C895D8995
:1077D0002C440444A4B2B4F5806F0AD91A7DAAB926
:1077E0009A8BDC8B2244024492B2B2F5806F0DD8A2
:1077F00001220A801446142202FB04335A891044E1
:107800005881002030BD48F20860FBE748F206606E
:10781000F8E700BF503700200B4A0C4B518814206A
:1078200000FB0131CB6833B9042049681070012294
:10783000074801F065BB05230649137002238B80BE
:10784000012200230968F3E7343700205037002075
:10785000482900201838002007B500230549009367
:10786000054A09680548082301F0B4FA03B05DF839
:1078700004FB00BF18380020844B03004829002077
:1078800007B50023009301460823034A034801F08B
:10789000A1FA03B05DF804FB7C4B030048290020EB
:1078A00013B500230C46009301460423074A0848F9
:1078B00001F090FA38B9074B142202FB043401237B
:1078C000237402B010BD48F20D60FAE7784B030054
:1078D000482900205037002037B50A480A4B426833
:1078E0009C88196853880325033305709BB20020D8
:1078F00000909B0001EB8401044801F06BFA03B097
:1079000030BD00BF3437002018380020482900203F
:1079100010B50146044800F0E4FE1C220446002194
:107920000CF059FB204610BD0438002068B10268F5
:10793000084B9A4209D14068074B984207D001335F
:1079400098420CBF0120032070470320704700209D
:10795000704700BFDEC0ADDEFE011EF14388033379
:1079600000EB830399420BD382884FF6FF739A4250
:1079700008D0038833B18068431C5842584170478F
:1079800002207047012070472DE9F8430223DFF8F9
:1079900060800B800D46174600F5805600F1080404
:1079A0004FF00109B4420FD2236801330CD03146A5
:1079B0002046FFF7D3FF48B10FB187F800900228A7
:1079C0000BD14FF480632B80BDE8F883A368D8F80F
:1079D0000020934201D9C8F800302B886288033315
:1079E00013442B806388033304EB8304DAE700BF7E
:1079F00048370020154A142303FB002070B50B689C
:107A000044680D4604F58056ABB15C88033403EB43
:107A10008404B4420DD2236801330AD03146204693
:107A2000FFF79CFF01280BD010F0FF0F05D00228B4
:107A3000EFD1002003E00834EBE72C60012070BD9B
:107A40006388033304EB8304E3E700BF503700206F
:107A5000436873B504460D466BB3244AD1688B4224
:107A600029D31269934226D813F0030023D1204A68
:107A70002189128991421ED121689A6891421AD1B6
:107A80001C4A51688B4203D901F580518B420DD3BA
:107A9000926993420CD902F58052934208D2012395
:107AA0002B80B0FA80F0400902B070BD0346F7E7C2
:107AB00048F20960F5E700232B801E46019601A9D4
:107AC0002888FFF797FF30B92B8801339BB2012B31
:107AD0002B80F3D9E8E7019B226899689142EED1A7
:107AE0006360034B1B892381DEE700BF4829002028
:107AF00034370020503700202DE9F8431C461D4B39
:107B00001B7806460F46154673B382B37CB3DFF885
:107B10006C804FF01409A388012B02D948F2096048
:107B200020E009FB03F318F803302BB92146A088A5
:107B3000FFF760FF20B92060A3880133A380EAE744
:107B400023681EB1998832889142EFD11FB11988FC
:107B50003A889142EAD19A68C5E90023064B1B890D
:107B60002B810020BDE8F88348F20160FAE748F273
:107B70000460F7E72C37002034370020503700200E
:107B800008B5074B191D5888FFF734FF18B1BDE839
:107B90000840FFF7A1BEBDE80840FFF73DBE00BFAB
:107BA000343700202DE9F04FA34FDFF8B09289B0B1
:107BB0000646B8463B6823B94946A04800F0CBFDCD
:107BC0003860D8F8005029784B1E052B00F2FE8053
:107BD000DFE813F0060060006000F200F2006401CC
:107BE0002EB1974B00225A604FF40644F0E02B79F7
:107BF000032B1DD8DFE803F015022B3691490B78D3
:107C0000022B08461AD00B7D022B4FF0010317D12F
:107C100014225343C2180020C8545068FFF730FEA6
:107C200003E001232B71FFF717FE002800F0BE8050
:107C3000834B00225A6048F20D64C9E00023E7E755
:107C40007F4A13700023536041F61D54C0E07E4903
:107C50007E48002302222B718A800122096801F0EC
:107C60004FF9E2E7784C00262E712068754DFFF73A
:107C700007FE774BD4F800C05A8814235343EA1800
:107C8000EE5451682160A188C2F804C0118102221B
:107C9000A280CAE7B5F814A0AA7DDFF8A8B1AEB1FA
:107CA000022AEB8806D9142101FB0AB1DA1C0889E3
:107CB00002440A81142202FB0ABAC3F57F43BAF8D0
:107CC0000A20FD331344AAF80A308DE7142303FB7E
:107CD0000AB318895C6804EB8004062A69D8DFE8D7
:107CE00002F0274E36441D5A040041F61D54AA7D69
:107CF000EB88022A06D9142101FB0AB1DA1C088993
:107D000002440A81142202FB0ABAC3F57F43BAF87F
:107D10000A20FD331344AAF80A3059E04D484E4971
:107D200000234360AB690360FFF792FE002874D024
:107D30000223AB75002300930423EA18214643482D
:107D400001F048F8002831D048F20D64CFE72B69E4
:107D5000002B14BF03230123AB750023009305F10F
:107D60000C02042304F10801E9E70123AB750022AA
:107D7000EB8800929B002A6904F10C01DFE70329DC
:107D80000CBF05230623AB7500230093042305F1E4
:107D90000802E118D3E70623AB752F4B19882D4B4A
:107DA0005868FFF77DFD04460028A0D109B0BDE862
:107DB000F08F48F20E649AE7002E7FF415AF2B790E
:107DC000012B4DD0EBB1022B3FF43EAF48F20E64D5
:107DD0001422002103A80CF0FEF841F61D539C422A
:107DE00008BF0024D8F8003004941A78023A042A14
:107DF00000F20881DFE812F0E900F5001801200127
:107E0000270102232B710DF10A01EB68039303A8EC
:107E1000CDE90466FFF71CFE10B948F20964D7E704
:107E20000498BDF80A108388EB8003882B81FFF744
:107E300037FD044629E000BF4C37002004380020FD
:107E40002C37002050370020183800204829002007
:107E50003437002010370020243800204437002019
:107E6000DFF800A203AA53463146A81DFFF744FEDF
:107E7000044668B9BAF804100498FFF711FD0446E7
:107E800048F209639C423FF4DFAE002CA0D18DE79D
:107E90000822314650460CF09EF8F1E7002E7FF4A0
:107EA000A3AE6B4B1A7BAAB11E731A78013A062A4D
:107EB0008CD801A151F822F05F7F0200857F02007B
:107EC000A37F0200A97F0200CD7D0200AF7F0200E8
:107ED000C17F02001A78072AE7D801A151F822F0E1
:107EE000017F0200AB7E0200AB7E0200277F020012
:107EF0003B7F02005B7F02005B7F0200237F02006A
:107F00001A89544901321A8100225A801A730A7858
:107F1000B2FA82F252099A720A7DB2FA82F25209D8
:107F2000DA72012207E04C4958688A884088033297
:107F300002448A8002221A70B7E7464C5A884649A2
:107F4000142505FB02420868546850608888108137
:107F500002228A800C600622EDE70722EBE79A7A7C
:107F600032B9DA7A8AB900221A705A805A606BE6FE
:107F7000384900229A72CA68002AF2D1097C002985
:107F8000EFD05A80FFF7FCFD53E70022DA72314A46
:107F9000116A0029E7D192F82420002AE3D00122B7
:107FA000EFE7FFF799FC44E7FFF736FC41E7294A82
:107FB0005B88142101FB03235868FFF761FC38E755
:107FC00000225A60FFF748FC33E701228DF80C20AD
:107FD0001A89ADF818209A88DB68ADF81A20059345
:107FE00010E002228DF80C201A89ADF818209A882A
:107FF000ADF81A20DA689B7D05929A1F53425341CF
:108000008DF81C3003A8FFF7C7FB0026494613482C
:10801000C8F8006000F0CAFB0121114800F079FCAB
:1080200000287FF4C7ADC1E603228DF80C20DA8862
:10803000ADF818201A89CFE70422DB888DF80C20D0
:10804000ADF81830DEE705238DF80C30DAE700BF15
:108050003437002050370020183800200438002022
:1080600014380020283800204068FFF79BBD00002E
:1080700008B50121044800F036FC18B9BDE80840F5
:10808000FFF790BD08BD00BF143800202DE9F34173
:108090009846374B1B7806460D46002B5CD00029CE
:1080A0005DD009884FF6FF7399425BD06B88002B37
:1080B00058D06B689B0758D14AB92F890DF102013E
:1080C0003846FFF779FB30B102B0BDE8F081138884
:1080D0005788ADF8023001A8FFF71AFC044660B9D2
:1080E000BDF80230234A142101FB032358890338C9
:1080F000C01B588148F20760E6E700238375BDF88E
:10810000023083826B68036180F8008001211A4885
:1081100000F0F4FB2B882381B8F1030F6B88A38058
:1081200004BF0423A3754FF0000508BF3368E06067
:1081300008BFA361E780658101A9104800F0FBFA40
:1081400036B1E36833600E4B75601B89B5723381BD
:10815000FFF78EFF0020B7E748F20160B4E748F26E
:108160000460B1E748F20360AEE748F20260ABE7B3
:108170002C370020503700204837002004380020DA
:108180003437002008B5084B1A68042A09D019684A
:10819000064A42F821000121184600F0AFFB0020FA
:1081A00008BD48F20B60FBE7203800201C37002098
:1081B0002DE9F04F89B01422002103A80BF00BFF2A
:1081C000784A137803F0FF01009190463BB103A871
:1081D000FFF7E2FA0027384609B0BDE8F08F101D1E
:1081E00000F0A2FB0028F5D140F6F8734FF0805262
:1081F0001B685C1C08BF6C4B6C4C08BF1B6811698A
:108200005269581C08BF02FB01F323610022A3F549
:1082100040536749E360204600F0A8FD01940746FB
:108220000028D8D11C238C2262496348DFF89CB116
:1082300000F022FABA463D464FF003093C46019B46
:10824000DE6856443046FFF771FB012860D042B229
:10825000002A4AD0032827D13268531C02D0574B3A
:108260009A4234D1321D06F58051106801302ED16A
:1082700004329142F9D1DBF800203AB902220123FD
:10828000CBF80060ABF8042000930BE014226243AB
:108290004B4B0220991898544A4A4E60548001343E
:1082A0000881A4B245F001050AF5805ABAF5405F8D
:1082B000C5D1B9F1010F98BF0025EDB2022D03D051
:1082C000062D44D0002D4CD148F20A6783E73C4983
:1082D00014226243881809F1FF394660032088544C
:1082E0001FFA89F90134A4B2DEE73549142060434E
:1082F00001EB000C0A5400F1100208300A44CCF8DB
:10830000046001443046FFF73FFB45F00205E9E712
:10831000009B6BB12A4B1422624399180220985497
:10832000DBF800204A60274A088154800134A4B257
:1083300000222549CBF800603046FFF725FBBBF84B
:108340000420022A0CBF042208221543ACE70123B3
:1083500088F8003003A80023C8F80430FFF71CFA9F
:1083600039E702A8FFF7D4FAC8B10123013D037031
:108370000A2D09D8DFE805F00608060807080708EF
:108380000F110F000023037102A90B4800F0D3F96D
:10839000FFF76EFE1FE70323F5E70223F3E748F23A
:1083A000076718E72C370020141000104829002018
:1083B000784D03007837002004380020DEC0ADDEA1
:1083C00050370020343700201C3800201838002097
:1083D00073B50D460446C8B1C1B10DF10601FFF7F2
:1083E00037FBB0B10C4BBDF806006668142202FBE7
:1083F000003001210C3000F081FA63682E600C33EC
:108400006B600123A372002002B070BD48F20460CB
:10841000FAE748F20960F7E75037002013B5044641
:10842000A8B10DF10601FFF713FB98B10C4ABDF896
:108430000630142101FB0323DA6872B1A27A62B11B
:10844000DA680020013ADA60A07202B010BD48F28A
:108450000460FAE748F20960F7E748F20560F4E7DC
:108460005037002002230022FFF710BE18B103236B
:108470000022FFF70BBE48F204607047114B1B78D7
:1084800013B50446ABB14FF6FF73984214D001A860
:10849000FFF73EFA98B10523037001230371C480EE
:1084A00001A9094800F047F9FFF7E2FD002002B0FA
:1084B00010BD48F20160FAE748F20360F7E748F2BE
:1084C0000760F4E72C370020043800200F4B1B789E
:1084D00007B5A3B101A8FFF71BFA98B106230370F3
:1084E00001A90B4800F027F90A4B1A780AB10122BA
:1084F0001A73FFF7BDFD002003B05DF804FB48F2DE
:108500000160F9E748F20760F6E700BF2C3700206A
:10851000043800203437002007B5ADF80600ADF868
:1085200004100DF1060001A9FFF7E6FA03B05DF8AB
:1085300004FB07B51346ADF806000A4600200DF10E
:108540000601FFF7D9FA03B05DF804FB07B513463F
:10855000ADF806000A460DF106000021FFF7CCFA3F
:1085600003B05DF804FB20B119B103680B60002073
:10857000704748F2046070472DE9F84F3C4B1B7878
:108580000446002B6ED000286FD012220021DFF8A5
:10859000E4A00BF020FD032323804FF0000BD04616
:1085A00014274FF00109DAF80410BAF80A50BAF8A3
:1085B00008600846FFF7BAF9032808BF23886288D5
:1085C00004BF03F1FF33238007FB0B832E44DB68DA
:1085D0001344638023891D4463892581B6B23344E3
:1085E0006381C6F58066A389B6B2B34238BFA6815F
:1085F00001F1080501F58056AE4217D92B68013309
:1086000014D031462846FFF7A9F9012819D010F0F7
:10861000FF0F23D00228EFD1E38884F81090761B57
:10862000E589013305EBA605E380E5810AF1140A2B
:10863000BBF1000F02D00020BDE8F88F4FF0010B16
:10864000B1E7E3880133E380E3896A8803331344A5
:10865000E3816B88033305EB8305CDE7A388013302
:10866000A380F6E748F20160E6E748F20460E3E73A
:108670002C3700205037002010B561B1B2FBF3F465
:1086800003FB1424A4B244B9C0E9001484608281BD
:10869000C381204610BD0E20FCE70920FAE782B016
:1086A00050E8022FC188B2EB324F4FF0000317BFE2
:1086B00092B241EA014142EA014104E04268B2EB70
:1086C000324F08BF012340E80212002AE8D18DF89A
:1086D00007309DF80730002B0CBF1120002002B09E
:1086E000704737B550E8013F9DB2C489254484895D
:1086F000A54228BF2D1B0489A54202BFBFF32F8FBF
:10870000002207E0C5EA030540E80154002CE9D146
:108710004FF001028DF803200193019B9DF8032087
:108720000B6002F0FF0322B10B880068184403B00D
:1087300030BD1846FBE70A884B889A4209D150E8B9
:10874000012FC2EA024240E80123002BF7D10120A9
:1087500070470020704737B550E8023F1FFAA3F575
:10876000C488A54202BFBFF32F8F00220DE0C48949
:1087700025448489A54228BF2D1BC3EA054540E84E
:108780000254002CE8D14FF001028DF80320019330
:10879000019B9DF803200B6002F0FF0322B14B8880
:1087A0000068184403B030BD1846FBE70A884B88C0
:1087B0009A4209D150E8022FC2EA224240E802233D
:1087C000002BF7D1012070470020704701F01F02F5
:1087D0004B090121914000EB830000F063B84B0985
:1087E00010B501F01F040121A14000EB830000F04F
:1087F0004EF8E04000F0010010BD01F01F0301221F
:108800009A404B0900EB8300D14300F061B84B095B
:1088100001F01F0150F82300C84000F0010070472C
:108820002DE9F0474E1E760980460F460136002599
:1088300058F8254008EB8509E44394FAA4F4B4FA07
:1088400084F44FEA451A202C06D10135AE42EFD808
:108850003C462046BDE8F0875444A742F5D921465E
:108860004046FFF7BCFF0028F3D0D9F80040E443AE
:1088700094FAA4F4B4FA84F4E5E750E8002F0B4628
:1088800040E8003C9CF0000FF7D11046704750E8DC
:10889000002F42EA010340E8003C9CF0000FF6D1B3
:1088A0001046704750E8003F43EA010240E8002CC0
:1088B0009CF0000FF6D11046704750E8002F02EAF6
:1088C000010340E8003C9CF0000FF6D110467047D1
:1088D00050E8003F03EA010240E8002C9CF0000F42
:1088E000F6D11046704750E8002F02EB010340E834
:1088F000003C9CF0000FF6D11046704750E8003F56
:1089000003EB010240E8002C9CF0000FF6D110466A
:10891000704750E8003FA3EB010240E8002C9CF0B8
:10892000000FF6D1104670470121FFF7B0BF0121BB
:10893000FFF7B8BF0021FFF7C0BF10B590B1D0E975
:10894000012301689B1ADBB20A60013BDBB2FF2BFB
:10895000026802D10020107110BD11684C1C146017
:108960000B70F2E70E20F7E737B5054600240DF14E
:1089700007008DF80740FEF7D5FE2A686B6811687E
:1089800099420ED9481E106011F8014CEB68298AF3
:1089900001FB0434AB6811791B1ADBB2994238BF72
:1089A00013719DF80700FEF7E1FE204603B030BDCD
:1089B00037B5054600230DF107000C468DF807304A
:1089C000FEF7B0FE2A681368591C1160E968641A42
:1089D000298AB4FBF1F41C709DF80700FEF7C6FE6F
:1089E00003B030BD826810B504462AB143690168FE
:1089F000006998470023A36010BD0EB403B5039926
:108A000021B104AB01AA019300F074F802B05DF843
:108A100004EB03B070470A2938B504460D4602D16D
:108A20000D21FFF7F8FFA3682268591CA160D554F7
:108A3000D4E901329A4204D32046BDE83840FFF71A
:108A4000D1BF38BD2DE9F84F9946DDE90A431746F5
:108A5000824688460A460126BA420FD24E4538BFA2
:108A60004E4613F0010B01D164B900240125B9F180
:108A7000010F1AD909F1FF397D43F8E7B2FBF7F28C
:108A80000136E9E79B070ED5B9F1000F0CBF302581
:108A90002025A642EAD2013C29465046FFF7BBFFFB
:108AA000002CF6D1E1E72025F3E7B8FBF5F39F4270
:108AB000E2D9DFF83C90B8FBF5F3504619F8031003
:108AC00005FB1388FFF7A7FFB5FBF7F3BD4207D2FD
:108AD000BBF1000F02D00CB1A64203D3BDE8F88F62
:108AE0001D46E8E720215046013CFFF794FFF2E7DE
:108AF0008C4B03002DE9F74F0546174688460029A1
:108B000000F0308118F8011B49B92B7B002B00F0D5
:108B10002981284603B0BDE8F04FFFF763BF252940
:108B200040F0C080002698F800302D2B424608F116
:108B3000010823D0302B24D02B2B25D000242A2B26
:108B400002F1010123D13B681A1D1B683A601C44E5
:108B50000A4613782E2B26D101324FF00009104619
:108B600010F8011BA1F1300CBCF1090F1DD80A232C
:108B700003FB0913A3F130090246F0E746F00106B2
:108B8000D1E746F00206CEE746F00406CBE711F83F
:108B9000013CA3F130000928DBD80A2202FB04348F
:108BA000303C0A46CBE74FF0000912F8011B01F0F8
:108BB000FB0068289046F8D069290ED04AD8582979
:108BC00064D006D825296DD098F80030002B99D1B3
:108BD0009BE7632962D06429F6D13A68D2F800A0F5
:108BE000111D8AEAEA723960A2EBEA724FF0010BBA
:108BF000092A5BDCCB4538BFCB462CB1BAF1000F5C
:108C000001DB720700D5013CB30702D5B9F1000FB3
:108C100004D0F00702D4002C4ED10024BAF1000F8A
:108C200052DACAF1000A2D212846FFF7F4FE06F0B9
:108C30000302022A05D1B9F1000F02D1002C47D15D
:108C40000024CDE900464B460A2251462846FFF74C
:108C5000F9FEB9E773294CD014D87029B4D13B6818
:108C60001A1D3A60302128461C68FFF7D4FE78218F
:108C70002846FFF7D0FE00220823CDE90032214626
:108C80001022E3E775292BD078299DD139680A1D78
:108C90003A60CDE900464B46102228E03B681A1D99
:108CA00019783A602846FFF7B6FE8DE70A230BF1E4
:108CB000010BB2FBF3F29BE7A345AFD2202128467C
:108CC000013CFFF7A8FEA6E77107B0D52B21ABE763
:108CD000A345B6D230212846013CFFF79CFEADE704
:108CE0003968CDE900460A1D3A604B460A220968F8
:108CF000ACE73B681A1D3A6016F00106D3F800A0F5
:108D000020D1BAF1000F03D050460BF0B9F9064656
:108D1000B44200D9C4B90AF1FF3A1EE02846013630
:108D2000FFF779FE1AF806100029F7D1A642BFF422
:108D30004BAF002C3FF448AF20212846013CFFF701
:108D40006AFEF3E70026EDE720212846013CFFF705
:108D500062FEDDE72846FFF75EFE1AF8011F0029D4
:108D6000F8D131E703B0BDE8F08F000007B50B463E
:108D700088B9124B1248134AC01A0E23C008009338
:108D8000114B0004114940F00100FDF762FE0E2076
:108D900003B05DF804FB4BB9084B09480C4AC01AF4
:108DA000C0080E2300930004074BEBE703601B6829
:108DB000114603B05DF804EB184700BF14490300E7
:108DC00094490300494C03009C4B03004E4C0300A4
:108DD000C54C03002DE9F34188B93D4B3D483E4A5F
:108DE000C01AC0080E243D4B009400043C4940F0DA
:108DF0000100FDF72EFE204602B0BDE8F0814AB921
:108E0000334B3448374AC01AC0080E24000400947B
:108E1000324BEBE7D0F800C0BCF1000F09D12C4B6E
:108E20002C48314AC01AC0080824000400942B4B77
:108E3000DCE74BB9264B27482C4AC01AC008092446
:108E400000040094254BD1E74768D7F80480B3FBB2
:108E5000F8F708FB17374FB11D4B1E48244AC01ABC
:108E6000C0080924000400941C4BBFE78F0709D0F9
:108E7000174B18481F4AC01AC00810240004009459
:108E8000164BB3E712F0030F09D0114B11481A4AE1
:108E9000C01AC008102400040094104BA6E7C7684D
:108EA000B9420BD34C1E05691C44AC4206D8DCF811
:108EB0000C40A44602B0BDE8F0416047044B0548B1
:108EC0000E4AC01AC008102400040094034B8DE71A
:108ED0001449030094490300494C0300AE4B0300BE
:108EE0004E4C0300CB4C0300BF4C03007E4C0300F0
:108EF000D14C0300FB4C0300134D0300364D03001F
:108F0000F7B580B92A4B2B482B4AC01AC0080E244B
:108F10002A4B009400042A4940F00100FDF799FD16
:108F2000204603B0F0BDD0F800C0BCF1000F09D15D
:108F30001F4B2048234AC01AC0080824000400948C
:108F40001E4BE8E74AB91A4B1A481F4AC01AC00814
:108F5000092400040094194BDDE74768D7F800E0C6
:108F60000EF1FF370F4209D0114B1248174AC01AB1
:108F7000C008102400040094104BCCE7C768B94225
:108F80000CD34C1E05690EFB0244AC4206D8DCF83B
:108F90001040A44603B0BDE8F0406047044B0548CC
:108FA0000B4AC01AC008102400040094034BB2E717
:108FB0001449030094490300494C0300C14B0300CA
:108FC0004E4C0300BF4C03007E4C0300D44B030007
:108FD000FA4B030029DF704728DF704770B503683C
:108FE0009D6886B004460E466DB114220021684685
:108FF0000AF0F1FFA3680593237901962BB1012BA9
:109000000DD06846A84706B070BD01238DF800302A
:1090100023690293E368039363690493F1E70223EE
:109020008DF80030E3681B030293F5E708467047AC
:1090300000207047024B187A003018BF012070479B
:10904000CC380020034B187A0122B0FA80F05A7411
:1090500040097047CC38002008B510461A460AF07F
:1090600091FF002008BD000008B51422002104482B
:109070000AF0B1FF0348FFF712FB002008BD00BF54
:10908000CC380020BC38002010B5094C094B436097
:109090002046FFF749FC40B909F06AFA1C23207406
:1090A0008C2205490548FFF7E7FA002010BD00BFF4
:1090B000CC3800206C4D030030380020BC38002034
:1090C00070B5244C244E237A25463BB923492448C5
:1090D000FFF741FB306008B9606070BD346802235F
:1090E0002B72237973B1012B24D020460321FFF783
:1090F00075FF00232B726B6018491948BDE870405A
:10910000FFF754BBD4E90523D21AB2F5805F28BF1C
:109110004FF48052D4E903109208012A38BF01228B
:1091200019441844FFF756FF50B11128DDD101232F
:109130002B72D2E7D4E903031844FFF74DFFF3E79E
:109140002B7C002BC9D10146BDE87040022000F005
:1091500009B800BFCC380020E4380020E0380020F7
:10916000BC38002038B5831E012B45D8234C237A08
:10917000002B41D0022B09D1032830D0204B1B6893
:109180000022E2601A793AB1012A22D0637C7BBBCB
:10919000BDE83840FFF794BFD3E905128D1AB5F545
:1091A000805F94BF521902F580529A619142EDD1CD
:1091B00002284FF0000308BF19462372104B18BF56
:1091C0000D211868FFF70AFF0E490F48FFF7EEFA66
:1091D000DCE71A6901321A615B699A42E7E7E368E2
:1091E0000133082B01D8E360D0E70023E360DFE719
:1091F000BDE8384009F0ACB938BD00BFCC3800201C
:10920000E4380020E0380020BC38002000F0FD03E6
:10921000012B08D1044B00225A74421E5042504187
:109220001874FFF74DBF7047CC38002010B5064CBE
:10923000201DFFF779FB28B9637C1BB9BDE81040FE
:10924000FFF73EBF10BD00BFCC3800202DE9F34131
:1092500080460D460F4801A916461F46FFF741FA02
:109260000446A8B11C2200210AF0B5FE2D0B0123F3
:10927000237101A9C4F80080A760E5606661054814
:10928000FFF759FAFFF7D2FF002002B0BDE8F081E6
:109290000420FAE7BC3800202DE9F74381468846D0
:1092A000104801A917461E46FFF71BFA0446B0B145
:1092B0001C2200210AF08FFE00250A9BA36001A951
:1092C0002571C4F80090C4E9037866610548FFF78A
:1092D00032FAFFF7ABFF284603B0BDE8F083042065
:1092E000FAE700BFBC3800202DE9F047B0F806903F
:1092F0004479D2F800A09DF8208009FB04F4043CD6
:1093000006460AEB0300A0420F4688BFA4EB030AFF
:10931000191DC2F800A0B1FBF9F509FB15114DB9F3
:10932000A9EB0104544528BF5446BAF1000F04D1FB
:10933000BDE8F0873668013DF1E704317B1970180C
:109340002246B8F1000F0ED001461846AAEB040AD7
:109350000AF018FED145254436684C464FF000010E
:1093600028BF5446E1E71946F0E7FFF7E6BAF8B53B
:1093700046790146721E0546002393422D6803D3A9
:109380000024A64202D8F8BD0133F6E70F6828464C
:10939000FFF70EFB01343946F3E72DE9F843068A5F
:1093A000CD1C0746FFF7E0FA043E35440446B5FB02
:1093B000F6F5F0B14FF48073EDB28380C680013DC5
:1093C000076081464FF00008A84512D23846FFF7E3
:1093D000CBFA064648B163790133637108F101089D
:1093E000C9F8000007608146EEE72046FFF7BFFF9F
:1093F00034462046BDE8F88301210430FFF77EBAE9
:1094000010B5012104460430FFF783FA10F0FF0F76
:1094100004D12046BDE81040FFF7A9BF10BD1FB51D
:1094200003920022009203AAFFF75EFF05B05DF8E9
:1094300004FB1FB503920122009203AAFFF754FF19
:1094400005B05DF804FB33DF704741DF7047000073
:10945000064B10B500241C70054B1C60BFF35F8FDA
:109460000449054800F093F8204610BDF13800206B
:10947000F4380020984D0300E838002007B5002399
:109480000DF107008DF80730FEF74CF9F1EE103AB8
:1094900023F09F03E1EE103ABFF35F8F094B4022A8
:1094A000C3F884219DF80700FEF760F909F060F821
:1094B00020B1FFF7CAFF03B05DF804FB20BF40BF37
:1094C00020BFF8E700E100E070B5264C0546012119
:1094D0002046FFF7D2F9BFF35F8F264638B9042D37
:1094E0000AD0214B1A781AB1BFF35F8F206070BD8C
:1094F0001E4A157001221A701D4C1C4D6368BBB9C1
:10950000FDF754FBFDF724F90028FBD1174B1B781E
:10951000023B012B14D8BFF34F8F1649164BCA6874
:1095200002F4E0621343CB60BFF34F8F00BFFDE74F
:109530001B682878984788B1204600F032F8DDE7AC
:1095400009F016F808B1FFF77EFF4FF080430122C3
:10955000C3F80025BFF34F8F20BFFDE7BFF35F8F38
:109560003060C4E7F4380020F1380020F0380020E3
:10957000E838002000ED00E00400FA0583680022CE
:109580005A609A60C3E90422DA601A6070470B6877
:109590004A684360934208BF0023016008BF4360EC
:1095A0007047436843B10268916852680B44934224
:1095B000436004BF002343607047000010B50D49AD
:1095C000A1F59472914201D800200FE08B1ADB10B4
:1095D00003EBD3735B1002EBC30452F833308342C6
:1095E00005D802D204F10802ECE7606810BD2146FC
:1095F000E8E700BFE84E030008B5FFF7DFFF024BC6
:10960000002808BF184608BDAD4D03000268136866
:109610005268934291BFD01A80680130801888BF89
:10962000C01A7047036881681A685B688B4234BF50
:1096300001330023D31A584258417047F7B500232D
:1096400004460DF107000D468DF80730FEF76AF865
:109650002046FFF7E7FF10B1237C002B3CD12268A6
:10966000A66853685168B14234BF0131002151608E
:1096700030B11168A068814234BF0131002111600E
:10968000E2686068511E072920D8DFE801F0041065
:109690001F141F1F1F182A78C2542046FFF7B6FF59
:1096A00023689A68824200D29860002415E02A88D4
:1096B00020F81320F1E72A6840F82320EDE7D5E9E8
:1096C000006700EBC300C0E90067E6E7294602FB3C
:1096D00003000AF057FCE0E704249DF80700FEF7BA
:1096E00045F8204603B0F0BD036818685B68C31AEC
:1096F00058425841704773B5002305460DF10700E5
:109700000C4616468DF80730FEF70CF82846FFF792
:10971000EBFF002832D129680B682EB90A68A868C7
:10972000824238BF561C0E60EA686968501E0728DE
:109730001ED8DFE800F0040E1D121D1D1D16CB5CA7
:10974000237000249DF80700FEF710F8204602B0B1
:1097500070BD31F813302380F3E751F823302360D4
:10976000EFE701EBC301D1E90023C4E90023E8E7F7
:1097700003FB021120460AF005FCE2E70524E1E7BD
:10978000BFF34F8F0549064BCA6802F4E0621343EA
:10979000CB60BFF34F8F00BFFDE700BF00ED00E0DF
:1097A0000400FA050C4B1B78062B10D10B4B1B68E1
:1097B0001A070CD10A4B186800F0F003302B08D0C0
:1097C00000F0E000A0F140035842584170470020EB
:1097D00070470120704700BFE00F00F0E40F00F079
:1097E000E80F00F0094B1B78062B0CD1084B1B68C7
:1097F0001A0708D1074B186800F0F000A0F13003F9
:109800005842584170470020704700BFE00F00F0F9
:10981000E40F00F0E80F00F008B5FFF7C3FF28B130
:10982000894B8A4A1B68C3F304231360FFF7DAFFEE
:1098300010B1874B874A1A60FFF7B4FF28B1864BF7
:10984000864A1B68C3F342331360FFF7CBFF20B196
:10985000834AD36823F08073D360FFF7A3FF40B13E
:109860004FF080430022C3F80C21C3F81021C3F845
:109870003825FFF7B7FF10B17A4B03221A60FFF7C4
:10988000B1FF40B1784B05221A6001229A6700228D
:109890009A603F225A60754B1B78062B50D1744B4F
:1098A0001B6818074CD1734B1B6803F0F003502B57
:1098B00046D14FF08052704BD2F80414C3F82015F3
:1098C000D2F80814C3F82415D2F80C14C3F82815DC
:1098D000D2F81014C3F82C15D2F81414C3F83015AC
:1098E000D2F81814C3F83415D2F81C14C3F8401574
:1098F000D2F82014C3F84415D2F82414C3F848153C
:10990000D2F82814C3F84C15D2F82C14C3F850150B
:10991000D2F83014C3F85415D2F83414C3F86015D3
:10992000D2F83814C3F86415D2F83C14C3F868159B
:10993000D2F84014C3F86C15D2F84424C3F870254B
:10994000FFF730FF28B14D4B4D4A1B6803F04F0322
:109950001360FFF727FF48B14FF08043D3F800248E
:10996000D10744BF6FF00102C3F80024454B1B68C8
:10997000062B08D1444B1B68062B01BF434A1368D2
:1099800043F480631360424AD2F8883043F4700392
:10999000C2F88830BFF34F8FBFF36F8F4FF01023A3
:1099A000D3F80C22D2071ED53A4B0122C3F8042566
:1099B000D3F80024002AFBD04FF01022D2F80C324A
:1099C00023F00103C2F80C32324B1A46D3F80014CC
:1099D0000029FBD00021C3F80415D2F80034002B75
:1099E000FBD0FFF7CDFED3F80022002A03DBD3F82B
:1099F0000432002B23DA274B0122C3F80425D3F8C5
:109A00000024002AFBD04FF010221521C2F80012CA
:109A1000D3F80024002AFBD04FF010231522C3F8FE
:109A200004221C4B1A46D3F800140029FBD0002155
:109A3000C3F80415D2F80034002BFBD0D1E7164B45
:109A4000164A1A6008BD00BF2403001040350140CB
:109A500074C007400DF0ADBA440200103C05004050
:109A6000F0ED00E0A005004010560040E00F00F0CF
:109A7000E40F00F0E80F00F000C0004058020010B2
:109A8000E40E004030010010340100103C1700408B
:109A900000ED00E000E00140642900200090D003C8
:109AA0004FF0A043D3F80405C0F3806070474FF037
:109AB000A0434FF08062C3F8082570474FF0A043E1
:109AC0004FF08062C3F80C2570474FF0A0434FF071
:109AD0008062C3F80C2570474FF0A0434FF08062BE
:109AE000C3F8082570474FF0A042D2F80435D94397
:109AF00001F0806103F08063C2F80815C2F80C35EC
:109B00007047192805D009280CBF01204FF0FF30FD
:109B1000704700207047C20708D54FF0A0430322CA
:109B2000C3F868274FF08062C3F80C25830741BF54
:109B30004FF0A0430C22C3F86427C3F824277047D2
:109B400038B5074C051E04F1080318BF1C462368EE
:109B50002BB11A6822605B6828469847F7E738BD42
:109B60000039002020B9054B01225A70FFF7E8BFE9
:109B7000012802D1014A9070F8E77047F8380020B8
:109B800020B9034B01225A70FFF7DABF704700BFBC
:109B9000F838002038B50B4C237883B90A48636045
:109BA000A3602361E36000F08BF8054608F0E0FC59
:109BB00008B900F091F801232370284638BD8525A7
:109BC000FBE700BFF8380020659B020037B5184C52
:109BD000A378054603F0FF029BB110B14368012052
:109BE000984700230DF107008DF80730FDF79AFD27
:109BF000E3689DF807000133E360FDF7B7FD03B0AC
:109C000030BD0DF107008DF80720FDF78BFD25B164
:109C1000226913463BB92A602561E368002BE7D12E
:109C200000F06CF8E4E79D42F7D01B68F2E700BF54
:109C3000F838002037B50B4C00230DF107008DF8E4
:109C40000730FDF76FFDE368013BE360E56815B998
:109C500000F080F8A5709DF80700FDF787FD03B0C0
:109C600030BD00BFF8380020012813B509D018B165
:109C700003281CD002B010BD0F4B0122C3F8802076
:109C8000F8E70E4C00230DF107008DF80730FDF7C3
:109C900049FD23780BB9FFF77DFFE3689DF80700C6
:109CA0000133E3600123A370FDF760FDE2E700F0FC
:109CB00013F8FFF7BFFFDDE700E100E0F838002010
:109CC000044A137923B90121106091801846704726
:109CD000852070470C390020074B1A68D2075FBFF8
:109CE000C02283F8002301221A604FF08043012232
:109CF000C3F81825704700BF00E100E037B5114BED
:109D000000221A601B680193019B4FF080430222DE
:109D1000C3F804230C4AD06840F08073D3600B4B27
:109D20001C6844F0010119605D685968491BB1F570
:109D30000A5FFAD31C60064BD06001221A6003B0A0
:109D400030BD00BF04010040F0ED00E0001000E075
:109D500008000040044B01221A604FF08042D2F804
:109D60001834DB03FBD470470C000040154B07B5DB
:109D70001A687AB100221A601B680093009B4FF0AA
:109D800080430122C3F808230F4B587910B95A7148
:109D90001B6898470D4B1A6882B100221A601B6835
:109DA0000193019B4FF080430222C3F80823064B26
:109DB0001B68012003B05DF804EB184703B05DF8A1
:109DC00004FB00BF000100400C39002004010040EA
:109DD00000F1804000F5C040002382B003600368BA
:109DE0000193019B02B07047800000F1A040D0F8C1
:109DF000003723F44033C0F80037D0F8003743EA87
:109E00000141C0F800177047054B4FF0FF3207289B
:109E100043F8202084BF1B1883F84020704700BF00
:109E20001439002010B5174C94F84E3043BB04F1A0
:109E300028032021FF22013911F0FF0103F8012B33
:109E4000F9D1C8B2FFF7E0FF01310A29F9D10422A4
:109E500000210D480AF0BFF80C4BC02283F80623FE
:109E600040221A604FF4BE70FFF7B2FF084B4FF06C
:109E70000042C3F80423012384F84E30002010BDB3
:109E80000820FCE7143900205E39002000E100E0E2
:109E900000600040034B93F84E00003018BF0120D3
:109EA000704700BF14390020F0B5374B1C1894F9E7
:109EB0002840002C1C4664DA8D78C5F34005002D3F
:109EC0000BBF082300230A260826B34201D1042031
:109ED000F0BD54F8237001373FD1261844F82320F1
:109EE00086F8283015B9E21882F840008A785507BC
:109EF00013D4D60733D5820002F1A042D2F800571E
:109F000025F00205C2F80057204EC50800F00707EB
:109F10000122BA40775D3A4372558A780D7812F083
:109F2000020225D09B0003F1804303F5C0430202E7
:109F3000D3F8101521F4473121F44071C3F81015FE
:109F40002D04D3F8101502F4F85205F440352A43D5
:109F50000A43C3F810250020BAE70133B5E74D786E
:109F600000F5E0724FF0A046AD0046F82250CBE776
:109F7000083B234493F8481041EA851583F848507C
:109F8000E9E70820A4E700BF143900205E3900206B
:109F900038B51F4C251895F92820072A17DD2244CB
:109FA00092F84010890903290CD14FF0A043D3F84F
:109FB0001035C34013F0010F08BF0221BDE838403F
:109FC000FFF712BF012914BF03210221F6E7D3B224
:109FD000072B1CD8930003F1804303F5C043D3F84B
:109FE000100540F00100C3F8100502F140008000A8
:109FF00080B2FFF7EDFE51B195F9283054F82330C7
:10A000002BB1012303FA02F2024BC3F8042338BD3B
:10A0100014390020006000404FF0A043D3F8103501
:10A0200023FA00F000F00100704700002DE9F04F26
:10A0300085B000245A4D01944FF48072012102F141
:10A04000804303F5C04390B21B68012B06D1D5F8BD
:10A0500004330B4202D0FFF7BBFE0C430432B2F5CF
:10A06000907F4FEA4101EAD14E4B1B68012B0AD188
:10A070004FF4BE70FFF7ACFE4FF0A04344F0004435
:10A08000D3F81035019314F0FF0F1AD0464F002576
:10A090000126344210D0AB0003F1804303F5C043E6
:10A0A000D3F81005D3F8101557F8253023B1C1F3B4
:10A0B0000141C0F3042098470135082D4FEA4606B8
:10A0C000E7D1002C65DA00224FF0FF33CDE90223FF
:10A0D000354D364E4FF0000A544601274FF0A04848
:10A0E00016F9012B531C49D0D2B222F0C0094FEA15
:10A0F000D90104A8084402F0070310F804CC07FAB9
:10A1000003F31CEA030F39D005EB090C92099CF903
:10A1100028C055F82CB0BBF1000F0DD1032A2DD16A
:10A120000DF1080E1EF801C04CEA030C0EF801C038
:10A1300004E04FF0010AD3E7032AF1D009F5E071FA
:10A1400010F80C0C58F821101842C1F3014105D049
:10A15000022913D1032A0BD1114604E003290DD1A2
:10A16000032A05D102214846FFF73EFE0134E4B23E
:10A17000BBF1000F02D011464846D847BAF1000F94
:10A18000D7D034B14FF0A043019AD3F810359342A1
:10A1900002D105B0BDE8F08F0193029B039398E7CD
:10A1A000006000407C610040143900205C390020D0
:10A1B000014B1B68184700BF643900200E4B9842C2
:10A1C00037B50D4602D0002003B030BD00230DF19D
:10A1D00007008DF80730FDF7A5FA084B1C7914B974
:10A1E00001221D601A719DF80700FDF7BFFA002CCF
:10A1F000E9D01120E8E700BF0020004064390020CA
:10A200001FB503788DF800308388ADF8043083687B
:10A210008DF80630C3688DF80730036902934369EF
:10A220000393054A054B684653F8213052F8211034
:10A23000984705B05DF804FB6C39002074390020A4
:10A24000024B4FF4807043F001031847C0520300E3
:10A250002DE9F047174690F80080324A42F82870FE
:10A26000314A42F828304B7B81460C4663B308687C
:10A27000496882008B0002F1A04203F1A04340F242
:10A280000C65C2F800570126C3F800574FF0A045EF
:10A2900006FA00F006FA01F1C5F80805C5F8081538
:10A2A00040F20D61C2F80017C3F80017FFF7C8FFAE
:10A2B0004FF0000AD5F81025636822FA03F3DB0794
:10A2C0000ED5BAF1000F1ED1002F4346174A214682
:10A2D00008BF3A4609F10400BDE8F04708F078BC31
:10A2E000236806FA03F3C5F80C35FFF7A9FF2368C6
:10A2F00006FA03F3C5F808350AF1010AFFF7A0FFD3
:10A30000BAF1090FD6D1636801254FF0A04605FACE
:10A3100003F3C6F80C35FFF793FF63689D40C6F85A
:10A320000855D1E7743900206C39002001A20200E1
:10A330000023435082B043580193019B02B0704701
:10A340002DE9F041224E234FDFF88C8000244FF49A
:10A350008035D7F80433A6F580412B4289B20CD062
:10A36000336853B1C7F848533846C7F80853FFF766
:10A37000DFFFD8F80030E0B298470134042C4FEAF0
:10A38000450506F10406E4D11248D0F80433DA0793
:10A390000AD5D0F800313BB14FF48071FFF7C8FF08
:10A3A0000D4B20461B6898470A48D0F804339B079A
:10A3B0000CD5D0F804314BB14FF48271FFF7B8FFE0
:10A3C000054B05201B68BDE8F0411847BDE8F0814A
:10A3D00040410240004002407C39002000F18040B2
:10A3E00000F5E040002382B0036003680193019B05
:10A3F00002B07047F0B5534B534C1B6885B0002B2F
:10A400003DD04FF4827094F82E20FFF7E7FF2AB377
:10A4100094F82F3013BB4D4B1B68002B33D04FF4F7
:10A420008070FFF7DBFF94F82D20638B91B28B4295
:10A430004ED95B1A21899BB26383CB1A616801EB09
:10A440004301434BC3F82C16C3F830264FF48270F7
:10A45000FFF7C4FF3F4B01221A6014E063680293C8
:10A460002389ADF80C30E36800218DF8041023BB7C
:10A470002374236801A89847002384F82F3094F8A8
:10A480002E30002BC7D1344B1B685BB14FF4887062
:10A49000FFF7A4FF0023237402238DF8043001A8E2
:10A4A000236898472D4B1B6813B34FF48A70FFF74E
:10A4B00095FF0023237405B0F0BD208B608363609B
:10A4C0002081E160002AD4D1214B01221A60D0E71B
:10A4D000BCD1E368012184F82F103BB100216183D6
:10A4E0001B49C1F82C36C1F83026AFE76383ADE7CE
:10A4F00066694FF000470125002EDCD0B6FA86F2DF
:10A5000027FA02F34632920026EA030602F180435C
:10A5100003F5E0431B68002BEED01046FFF75EFF0B
:10A52000A2F58C72D30882F00402C2F380028DF887
:10A5300008308DF804508DF80920236801A8984749
:10A54000DAE700BF0471004080390020007100404C
:10A550000070004004700040107100401471004011
:10A5600038B51E4B044693F82C00A8BB1C4A196052
:10A570002178C2F8F0156178C2F8F415E5781874FE
:10A58000012183F82C1083F82D00586183F82F00E7
:10A5900083F82E506FF00043C2F808334FF48270F6
:10A5A000FFF71CFF4FF48070FFF718FF4FF48A701D
:10A5B000FFF714FFA3780B485B01DBB280F8073389
:10A5C000802303600223C2F804330DB1C2F80413E0
:10A5D000C2F80015002038BD0820FCE780390020B3
:10A5E0000070004000E100E02A4B1A7C70B502F0D8
:10A5F000FF05002A4BD10A79012A9CBF264CC4F8DA
:10A60000005500F10C0503EB4504247924B993F8B7
:10A610002D40013483F82D4003EB4503CC790D7AAE
:10A620008E781C715D714B7836021B0106F4E06672
:10A6300003F0300333430E7806F003063343CE783D
:10A64000360306F480563343160406F4E0263343FB
:10A650004E798979360506F480160906334301F0F0
:10A6600080710B430C4901EB0016000100F18040A2
:10A6700000F5E040012AC6F81835C0F81455C0F8B6
:10A68000104502D80123C1F80035002000E0112058
:10A6900070BD00BF8039002000700040264A274B63
:10A6A00070B505461220C2F808031C7C022C03D1A9
:10A6B000C2F80403112070BD187C01281DD1D86890
:10A6C00018B10223C2F80433F4E7DD60198393F86C
:10A6D0002E3063B91A4A1368002BFCD04FF48070F7
:10A6E000FFF77CFE144BC3F82C56C3F83016124B00
:10A6F0000222C3F804230020DDE7022093F82E4055
:10A70000C2F80403012600201E745D601981D86020
:10A710003CB1598393F82D30C2F82C56C2F830362C
:10A72000C9E7C2F82C564FF48070C2F83016FFF714
:10A7300055FE20461660BEE70070004080390020BC
:10A7400000710040084A137CDBB2012B09D192F85A
:10A750002E0018B1054A002013607047044A1360A8
:10A7600070470820704700BF80390020007000400B
:10A7700004700040F0B51B4F8BB207EB001443EAA6
:10A780000243C4F81C35184B40005C6900F1010C11
:10A790004FF0004611F5006F26FA0CF64FF08005D9
:10A7A00005FA00F50BBFB44334435C615C610CBF38
:10A7B000C7F80853C7F8045340244FF000455969BF
:10A7C000844025FA00F040F2FF75AA42054A0BBF0B
:10A7D00081430143596159610CBFC2F80843C2F873
:10A7E0000443F0BD0070004080390020124B1A7CF9
:10A7F00010B5F2B900F10C0103EB4102127922B15C
:10A8000093F82D20013A83F82D2003EB4103002417
:10A810009C80030103F1804303F5E04340F2FF72A3
:10A82000C3F814450549C3F81045FFF7A3FF2046B8
:10A8300010BD1120FCE700BF8039002000F8FFFFA9
:10A8400038B5134B6FF00042C3F80823114A80213A
:10A85000C2F88010104A01211160104942F21072B2
:10A86000086808B9013AFBD10D4D0024C3F8004532
:10A870002C7405EB44031B7F13B1E0B2FFF7B6FF66
:10A880000134082CF5D1002385F82C3038BD00BFE9
:10A890000070004000E100E00870004014710040CA
:10A8A000803900200220FFF71EB900002DE9F04793
:10A8B00081460D46FFF725F90128044604D8012DED
:10A8C00004D025B3022D2FD0BDE8F087194D4700E5
:10A8D0003A18A918AE5C4A7852B1DFF86880164879
:10A8E00042464FF40041FCF7B9FE08B988F80090E1
:10A8F0003B192B449A78114B1A55002EE4D0104B7B
:10A900001B68002BE0D03046BDE8F04718470A48E6
:10A91000FCF7EEFE074B04EB440213449E78074B12
:10A920001B5DB342D0D1E8E7024B00EB40041C446E
:10A930006678E2E7143A0020D4390020293A002052
:10A94000243A0020B039002002210078FFF7AEBF82
:10A95000034B1B7813B10020FFF7B0B8FFF7B5B871
:10A96000B1390020F8B57B4C237805461BB1002394
:10A970002370FFF7EDFF172D00F28880DFE805F068
:10A980000C17174354657680888D888D959A9A9A0E
:10A990009A9AC4C9D1D9E4E4FFF7DAFF6E48FCF70C
:10A9A000A7FE6E4B002204461A702046F8BD002018
:10A9B000FFF776F8F8B10020FFF780F8022D41F29A
:10A9C000743118BF4FF47A61644B1D704FF400402E
:10A9D0004FF4FA740025E0FB01454FF47A7200232E
:10A9E0002046294608F0AEFF002201465A48BDE83D
:10A9F000F840FCF733BEFFF75AF8022D0CBF1421C4
:10AA00004FF4C871E0E70020FFF74AF840B100209A
:10AA1000FFF754F84FF44871504B03221A70D5E7F2
:10AA2000FFF745F8C821F7E70020FFF739F838B1FC
:10AA30000020FFF743F84FF47A61484B0422EDE71A
:10AA4000FFF735F84FF4C871F7E70020FFF728F853
:10AA500048B10020FFF732F8404B05221A7041F64A
:10AA60009A110022C2E7FFF722F8F5E70020FFF76E
:10AA70003AF83A4B06221A70002240F6CD41B5E76B
:10AA80000020FFF714F8354B07221A7000248CE7DA
:10AA900001202070FFF727F8EEE701202070FFF774
:10AAA00022F800224FF48041A0E7FFF715F82B4B66
:10AAB0000C22EAE72A482B4EFCF71AFED5F11105C5
:10AAC00004461CD0D8B9012D13D0C8235D434FF4E0
:10AAD00000474FF4FA7000214FF47A720023C7FB4D
:10AAE000050108F02FFF224601461D48FCF7B6FD80
:10AAF00004460220FEF7DBFF0123337055E70220F6
:10AB0000FEF7DCFF0023F8E7FFF722FF134B1222CA
:10AB1000BBE7FFF71DFF0020FEF7C9FF0F4B132215
:10AB2000B3E7FFF715FF0120FEF7C1FF0B4B14221F
:10AB3000ABE7FFF70DFF0020FEF7B9FF0120FEF79E
:10AB4000B6FF064B1522A0E7FEF7C6FF034B1D70AC
:10AB50009CE700BF203A0020F4390020283A00206A
:10AB6000B4390020B1390020044B1B68DB0703D542
:10AB7000034B1878FFF7F6BE704700BF1C3A002061
:10AB8000283A002038B51A4B18601A4B10F002040E
:10AB90000546196016D0184B18480E221A700F225D
:10ABA000DA70022140F26662FCF72EFA044648B9D8
:10ABB000FCF780FA044628B90146114A1148FCF70F
:10ABC0003BFD0446EB0711D50120FEF7A4FF6CB94D
:10ABD00021460D4A0D48FCF72FFD044630B90C4ABA
:10ABE0000C480121BDE83840FCF726BD204638BDA1
:10ABF0001C3A0020243A0020143A0020D8520300C6
:10AC000049A90200EC52030069AB0200F0520300B4
:10AC1000A5A80200E8520300012813D8012A0BD18D
:10AC2000012908D100F10E02D2B200EB40000C4B1A
:10AC30001A540020704700220129F6D04BB24BB1C4
:10AC4000022901D007207047054B00EB4000184453
:10AC50004270EEE7024900EB400008448270E8E7EA
:10AC6000143A00200388102B02D0112B05D0704716
:10AC7000044A1368013313607047024A1368013BAA
:10AC8000F9E700BF2C3A002072DF704773DF70478E
:10AC900074DF704776DF70477ADF70477CDF70477C
:10ACA0008FDF7047FCF71CBA024B002206201A7097
:10ACB00002F04AB8BA3C002010B5094C1822002115
:10ACC000204609F088F9012323700023A3816360E3
:10ACD0004FF4C863A3604FF48073A38210BD00BF1C
:10ACE000E43A002008B50948094B0A49C01AC008CF
:10ACF000000440F00300FBF795FE05F029F818B1B9
:10AD0000BDE80840FCF7ECB908BD00BF544903009A
:10AD100014490300E655030010B5094B09490446E0
:10AD200009482278C01AC008000440F00400FBF76C
:10AD30007DFE21460548BDE8104008F077BB00BF06
:10AD400014490300AF55030054490300BC3C0020E4
:10AD5000174B184A9B1ADB0810B51B04032824D88C
:10AD6000DFE800F002161D2143F0030420461249DB
:10AD7000FBF758FE114B1248012200211A7002F015
:10AD80009BFD104902462046BDE81040FBF74EBE31
:10AD90000D4943F00300BDE81040FBF743BE0B49EB
:10ADA00043F00100F7E70A49FAE70A49F8E700BF6C
:10ADB00054490300144903006D530300103B002065
:10ADC00099B302009B530300B2530300D553030011
:10ADD0000E5403003B5403000B78F7B50C46042BCC
:10ADE00000F29480DFE803F0032E37408B00484BDD
:10ADF000484D4949ED1AED082D0445F00405284653
:10AE0000FBF710FE221D6188444808F035FC08B1AC
:10AE1000FCF766F9414882894FF6FF739A4275D074
:10AE200008F00AFC052806D13D49284603B0BDE8D4
:10AE3000F040FBF7F7BD002868D003B0BDE8F04054
:10AE4000FCF74EB93348324B3649C01AC0080004EB
:10AE500040F00200EAE72F482D4B3349C01AC008E2
:10AE6000000440F00400E1E7294B2A4D2F49ED1A78
:10AE7000ED082D0445F004052846FBF7D3FD2C49C9
:10AE80002846FBF7CFFDA3880093A379E2792949EF
:10AE90002846FBF7DEFDA37B0193A37A0093637A38
:10AEA000227A25492846FBF7E0FDFBF751FC0646D0
:10AEB0000028FAD101F054FD18B901F00BFE01266B
:10AEC0000746A37A0193637A0093237AE279A17902
:10AED000A08801F04DFDCEB101F0FCFDC41B01F0D6
:10AEE000F9FD3B46CDE90004012228461349FBF752
:10AEF000BCFD204603B0BDE8F04001F039BE054876
:10AF0000034B0F49C01AC0080004A1E703B0F0BD0D
:10AF100014490300544903006B570300BC3C002054
:10AF200096570300BE570300E9570300FE5703007E
:10AF30001558030023580300325803004A580300F1
:10AF4000A75803007FB53E4B3E4D02783E49ED1AAF
:10AF5000ED082D0445F0030604463046FBF766FD78
:10AF6000204605F0ADFB204605F090F923780D2B27
:10AF700028D8DFE803F007270C27202729383A369E
:10AF80002738343831493046FBF74CFD1AE06088E9
:10AF900002F002FC237A0093024663882C49304673
:10AFA000FBF757FD2B4BA28861882B481A8006F0CF
:10AFB000FBFC38B110E0002303A960888DF80C3049
:10AFC00004F086FE04B070BDFDF780FA48F2076217
:10AFD0009042F7D00028F5D0FCF782F8F2E71F493D
:10AFE000D1E72069E5E7A068E3E7237CDB07E9D543
:10AFF000237A072BE6D145F00404194D1949204660
:10B00000FBF710FD2A681849082301322046FBF798
:10B0100016FD2B68072BD5D80E4A1448128820F845
:10B020001320591C296004F061FE062802D008B1E3
:10B03000FCF756F829680D4804F04EFEB9E700BF4A
:10B040001449030054490300BE580300DA580300B2
:10B05000035903005C3D00208C2900204359030064
:10B06000503E002071590300A5590300543E0020B2
:10B0700008B503784BB9054B3B211888FFF70AFE4A
:10B0800018B1BDE80840FCF72BB808BD722F0020AE
:10B09000022810B50ED1084B084C0949E41AE408FF
:10B0A000240444F003042046FBF7BCFC0549204679
:10B0B000FBF7B8FC012010BD1449030054490300FC
:10B0C000115303003E53030008B50F4B1A7872B9B1
:10B0D000012119700D484FF4A021FCF7BFFA08B107
:10B0E000FBF7FEFF0520BDE8084001F02DBE002261
:10B0F0004FF4C0310648FCF7B1FA18B1BDE808407A
:10B10000FBF7EEBF08BD00BFBA3C0020F03D0020B9
:10B11000103E002010B5164C164BA36096B01F23AE
:10B120003C22002107A8A38108F055FF124A1068AD
:10B13000516801AB03C31189927A19809A7059231F
:10B14000ADF8103001AB06930B23ADF81430022399
:10B150008DF81C3004F10C0204ABA168109307A811
:10B1600001F056FF08B1FBF7BBFF16B010BD00BFE2
:10B1700078290020EF3C00208556030038B504787C
:10B180000546002C40F09280494A11680523B1FB26
:10B19000F3F303EB8303994213460DD1454A464925
:10B1A000C2F8104101200860D2F810110029FBD02C
:10B1B000D2F800140129FBD01A6868680132012115
:10B1C0001A60FFF76BFA08B1FBF78AFF6B681B8800
:10B1D0004FF4167213FB02F3002BB8BF03F6FF7394
:10B1E0001B1303EB43035B009BB240F6B732934261
:10B1F0005AD840F654318B4231D9C3F53B620832FC
:10B200003A2454436FF0630294FBF2F46434E4B2E2
:10B210002A4A1268190A51759375FFF711FB254BDD
:10B2200027480222C3F80823264B8022C3F8802136
:10B23000254B00221A7021464FF6FE7208F0C1FA23
:10B2400030F0080232D020F00202112A2ED043F250
:10B25000014290422AD0BDE83840FBF741BF40F69A
:10B26000B422934208D9C91A18244C436FF09F02A4
:10B2700094FBF2F42A34CAE740F688118B4206D9CF
:10B28000D41A6FF0180294FBF2F41234BFE740F6C0
:10B2900034029342BCD9C91A06244C43A2F6881240
:10B2A00094FBF2F40634B2E76424B1E738BD00BF82
:10B2B000E03A0020007000400C7000407829002027
:10B2C000FC3A002000E100E0EC3D0020032807D11B
:10B2D0004FF08043A922C3F820250020FEF7F4B8E0
:10B2E000704700001FB5194B1B7863B3184C2278C8
:10B2F0002ABB184B1849186800906846FFF730F9C8
:10B3000008B1FBF7EDFE154A10685168127A01ABDF
:10B3100003C301A900201A70FFF766F908B1FBF713
:10B32000DFFE01210E48FFF7B9F908B1FBF7D8FE9F
:10B3300001210C48FFF7B2F908B1FBF7D1FE012358
:10B340002370FFF7FFF904B010BD00BF892900206A
:10B35000EC3D0020F45203007DB10200F8520300DE
:10B36000B63C0020B83C00200A8840F677239A4279
:10B370000BD1064B06484A88C01AC00800048B88C7
:10B38000044940F00300FBF75ABB7047144903001F
:10B39000544903005656030070B5132105460C4C62
:10B3A000FFF778FC0B4BE41AE408240403462A4612
:10B3B00030B144F002000849BDE87040FBF73FBBE4
:10B3C00044F004000549BDE87040FBF72FBB00BF07
:10B3D0005449030014490300F35503003456030095
:10B3E000F8B510224FF6FF711A4C1B481A4F08F09F
:10B3F000F2FD08234FF6FF70236004F08BFC00235E
:10B40000236009254FF6FF76B042216801D0013D47
:10B4100018D1114804F060FC08B1FBF761FE216807
:10B420000D4804F063FC062802D008B1FBF758FE73
:10B430000A4B01211878FFF729FC50B1BDE8F8400C
:10B44000FBF74EBE4B1C236027F8110004F062FC92
:10B45000DAE7F8BD503E0020543E00208829002045
:10B4600038B5214B05461878FFF712FC30F0080379
:10B4700001D0FBF735FE032D06D8DFE805F00215F5
:10B48000172D002001F060FC184A19491648FFF7F3
:10B49000FBFB08B1FBF724FE164B012D1D7021D9D3
:10B4A000BDE83840FFF79CBF0120EBE70F4C1822A6
:10B4B0000021204608F08FFD4FF4C862A2604FF4CF
:10B4C00080720523A2820A4A23700023A38163604D
:10B4D000938193600220D5E7FFF7EEFBFFF71AFE9A
:10B4E0000320CFE738BD00BF88290020E43A0020C0
:10B4F000782900208929002010B51248FCF7F8F8B7
:10B5000008B1FBF7EDFD00224FF4A0210D48FCF738
:10B51000A5F808B1FBF7E4FD0B4C2078013000F0F2
:10B5200003002070FFF79CFF0848094B2278094967
:10B53000C01AC008000440F00400BDE81040FBF74A
:10B5400075BA00BFF03D002089290020544903004E
:10B55000144903009455030038B5104C257815B1F3
:10B56000012D12D038BD0120FFF77AFF23780C4857
:10B5700001332A464FF480312370FCF76FF800281E
:10B58000F0D0BDE83840FBF7ABBD042001F0DCFB98
:10B59000FFF7A8FB00232370E4E700BF653E00200F
:10B5A000103E002013B5044605F0AEF82388212B89
:10B5B00041D005D8102B29D0112B0CD002B010BDD2
:10B5C0003B2B4AD0562BF9D12B482C4B2C49C01A77
:10B5D000C008000447E0294B27482A49C01AC00880
:10B5E000000440F00300FBF71DFA274BA0884FF63C
:10B5F000FF721A80254B9989884208BF9A81244B93
:10B600001B78002BDAD1FFF7EBFED7E71B4B1A486C
:10B610002049C01AC008000440F00300FBF702FAFA
:10B62000194BA1881C48198003F0D2FC0028C5D012
:10B63000FBF756FDC2E7114B0F481849C01AC00866
:10B64000000440F00400FBF7EDF9002301A9A088F5
:10B65000ADF80430FFF724FBE8E70748074B104933
:10B66000C01AC008000440F00400FBF7DBF9132106
:10B67000A088FFF70FFBD9E75449030014490300E2
:10B68000A454030062540300722F0020BC3C00202D
:10B69000103B002070540300603D00207B540300E9
:10B6A0008F540300FBF71CBDFBF71ABDFBF718BD59
:10B6B00038B51F4B1F4C2049E41AE4082404054602
:10B6C00044F004040246073D2046FBF7AFF9122D73
:10B6D0002CD8DFE805F0292B2B2B2B2B2B0A232B27
:10B6E0002B2B2B2B2B15251B270014492046FBF752
:10B6F00099F9134B1B78CBB1BDE83840FFF7FCBE7E
:10B7000010492046BDE83840FBF78CB90E49204669
:10B71000FBF788F9BDE83840FFF7D6BC0B49E5E7F1
:10B720000B49EEE70B49F2E70B49EAE738BD00BFEA
:10B730001449030054490300B9540300D6540300CC
:10B74000BA3C0020ED5403000D55030029550300B9
:10B7500040550300605503007C55030008B50549BA
:10B760000320FFF70FFA18B1BDE80840FBF7B8BC9B
:10B7700008BD00BFB1B602000B4B0C4A1B68117824
:10B78000D97251781973D178597311799973917964
:10B79000D973D1791974117A5974517A9974917A4B
:10B7A000D974D27A1A75704778290020A03C0020FD
:10B7B00030B5464C85B0002838D0002323700025D2
:10B7C00000950223424A4348442107F0F1FA08B1A8
:10B7D000FBF786FC009502233F4A3E481E2107F0F6
:10B7E000E7FA08B1FBF77CFC0025009502233B4AF1
:10B7F00038481E2107F0DCFA08B1FBF771FC384A23
:10B80000009502231E21334807F0D2FA08B1FBF756
:10B8100067FC0022C5213348FBF720FF08B1FBF786
:10B820005FFC23780133237005B030BD2378032BF0
:10B8300040D801A252F823F0BFB7020049B8020075
:10B8400053B802009BB8020000230093264A02234B
:10B85000D8E706238DF80C300123009303AA1E219C
:10B860001C4807F0A5FA08B1FBF73AFC06231F4A6B
:10B8700018481E2107F0B2FA08B1FBF731FC00238B
:10B880000093154A134802231E2107F091FA08B1CC
:10B89000FBF726FC00222121BDE70623144A0D48B0
:10B8A000442107F09BFA08B1FBF71AFCFFF764FF8D
:10B8B0000023B8E70F4B10481049C01AC008000415
:10B8C00040F00100FBF7AEF8AEE700BF643E002099
:10B8D00068290020C45603006C2900206E2900202E
:10B8E00070290020303E002072290020A63C002054
:10B8F000A03C00201449030054490300D25903001E
:10B900000020FFF755BF0000034B1B7813B1012047
:10B91000FFF74EBF704700BF8929002010B586B0E1
:10B92000044601F0D7F821460490022205A808F049
:10B9300029FB0222E11C0DF1160008F023FB03A9EC
:10B940000C4800F0D7FF0C4BBDF80C200B49044607
:10B950000B48C01AC008BDF8163001930004BDF8AA
:10B960001430009340F00400049BFBF77EF820465F
:10B9700006B010BD2C3D00201449030028570300D9
:10B980005449030008B5194A13780133DBB2022B7E
:10B9900001D8137008BD0023137001F009F970B9C4
:10B9A00001F050F908B1FBF79BFB1148114B12490C
:10B9B000C01AC008000440F00400FBF733F80F4839
:10B9C000FFF7ACFF04280BD10A4B09480C49C01AF9
:10B9D000C008000440F00100BDE80840FBF722B8B1
:10B9E0000028D7D0BDE80840FBF77ABB842F0020A1
:10B9F0005449030014490300FD5A0300A03C0020F1
:10BA0000235B03002C4B2D4810B52D4CC01A237816
:10BA1000C0080004032B47D8DFE803F002162738DC
:10BA2000284940F00400FAF7FDFF00224FF4F0111E
:10BA30002548FBF713FE08B1FBF752FBFFF752FC5A
:10BA400023780133237010BD204940F00400FAF739
:10BA5000E9FF00224FF4F0211D48FBF7FFFD08B17C
:10BA6000FBF73EFBFFF750FFEAE71A4940F00400FE
:10BA7000FAF7D8FF00224FF416011748FBF7EEFD46
:10BA800008B1FBF72DFBFFF77DFFD9E740F004007D
:10BA90001249FAF7C7FF1248FBF72AFE08B1FBF775
:10BAA0001FFBFFF79DFCCBE70E4940F00100BDE80E
:10BAB0001040FAF7B7BF00BF144903005449030010
:10BAC000663E0020F95903008C3D0020245A0300F3
:10BAD000AC3D0020505A0300CC3D00208B5A03009F
