:020000040007F3
:10800000000001205D8307004583070047830700C8
:10801000498307004B8307004D83070000000000E1
:10802000000000000000000000000000F9D107007F
:1080300051830700000000005383070055830700A9
:1080400057830700578307005783070057830700AC
:10805000578307005783070057830700578307009C
:10806000578307005783070057830700578307008C
:10807000578307005783070057830700578307007C
:1080800099B40700578307005783070057830700F9
:10809000578307005783070001D407005783070061
:1080A000578307005783070057830700578307004C
:1080B00057830700578307000000000000000000FE
:1080C000578307005783070057830700578307002C
:1080D00019B107005783070057830700000000000D
:1080E0000000000000000000000000000000000090
:1080F0000000000000000000000000000000000080
:10810000000000000000000000000000000000006F
:10811000000000000000000000000000000000005F
:10812000000000000000000000000000000000004F
:10813000000000000000000000000000000000003F
:10814000000000000000000000000000000000002F
:10815000000000000000000000000000000000001F
:10816000000000000000000000000000000000000F
:1081700000000000000000000000000000000000FF
:1081800000000000000000000000000000000000EF
:1081900000000000000000000000000000000000DF
:1081A00000000000000000000000000000000000CF
:1081B00000000000000000000000000000000000BF
:1081C00000000000000000000000000000000000AF
:1081D000000000000000000000000000000000009F
:1081E000000000000000000000000000000000008F
:1081F000000000000000000000000000000000007F
:10820000314932480A1A02D0072291438D4630493B
:1082100030480A1A06D00722914381F309880222C6
:1082200082F314882C482D492D4A00F03CF82D4843
:108230002D492E4A00F037F82D482E492E4A00F0DD
:1082400032F82E482E492F4A00F02DF82E482F499B
:108250002F4A00F028F82F482F49304A00F023F821
:108260002F483049304A00F01EF83048304900228B
:1082700000F024F82F483049002200F01FF82F4A60
:1082800090471F481F49884205D00268043003B454
:10829000904703BCF7E700208646EC46002000210B
:1082A000274A9047FEE7884207D0521A05D0037844
:1082B00001300B700131013AF9D17047884202D088
:1082C00002700130FAE770470000012000F800203A
:1082D0000000012000000120D8DE07007C590020AA
:1082E000B4590020B8830700B883070046D70700B9
:1082F000D8DE07007C5900207C590020B4D7070045
:10830000B4D70700B4D70700B4D70700B4D7070025
:10831000B4D70700B4D70700B4D70700D8DE0700EA
:1083200010DF0700B4590020B4590020B4590020D0
:10833000647F0020647F0020647F00208583070025
:10834000299D0700FEE7FEE7FEE7FEE7FEE7FEE702
:10835000FEE7FEE7FEE7FEE700F002B8FFF7FCBF2E
:108360000F484FF00701884385460E4880470E4866
:10837000016841F470010160BFF34F8FBFF36F8F4D
:10838000FFF73EBF09480A490A4A884207D0521AF5
:1083900005D0037801300B700131013AF9D17047F3
:1083A0000000012085B5070088ED00E0A0D7070098
:1083B000685900207C5900204B1C30B5DB00044676
:1083C00012F003009BB20DD1074D2A601A44074BEF
:1083D0001A60074B1870074B1870074B1C80074B2F
:1083E000198030BD0720FCE7BC590020B859002097
:1083F000B4590020C4590020C0590020C25900209F
:108400002DE9F3472B4D2B888B4206460C46174629
:108410004CD34FF000080DF107008DF8078000F0F5
:1084200087F8254B254A18781178CBB2244909885A
:108430008B4238BF0133C0B238BF5FFA83F8404582
:108440002ED092F800801378DBB2994286BF0133B8
:10845000DBB2002313709DF8070000F08DF84FF693
:10846000FF73984524D0DFF860A0DAF800304FEAB7
:10847000C80903EB090243F83870A6B19CB1114B4F
:1084800028881B68224608FB0030314605F0CFF8EB
:10849000DAF800304B4400209C8002B0BDE8F08741
:1084A0004FF6FF78D7E700209080F6E70920F4E741
:1084B0000420F2E7C0590020C4590020B45900201C
:1084C000C2590020B8590020BC590020F8B5124C00
:1084D000124D264622782B789A4200D1F8BD237897
:1084E0000F48104A078812680F48DBB219B202EB36
:1084F000C10C006852F83120BCF8041003FB0700DF
:1085000090470A4A23781288DBB29A4286BF013329
:10851000DBB200233370DDE7C4590020B4590020DA
:10852000C0590020BC590020B8590020C259002071
:1085300070B5EFF3108672B60C4A946801239CB9AB
:1085400093600B4B0B4DD3F8801029401160C3F89A
:108550008050D3F8841051604FF0FF32C3F884206C
:10856000047006B962B670BD0370FAE7C8590020FE
:1085700000E100E0FC06FFBD084B9A6810B55AB157
:1085800050B9EFF3108172B6054A1C6814605C683C
:108590005460986001B962B610BD00BFC859002090
:1085A00000E100E030B53AB11368DB430A4D014405
:1085B000814204D1D84330BD4FF0FF33F6E710F8C5
:1085C000012B5340082213F0010418BF2C46013A36
:1085D00084EA5303F7D1EBE72083B8ED10B561B11E
:1085E000B2FBF3F403FB1424A4B244B9C0E90014B1
:1085F00084608281C381204610BD0E20FCE70920E3
:10860000FAE782B050E8022FC188B2EB324F4FF048
:10861000000317BF92B241EA014142EA014104E07E
:108620004268B2EB324F08BF012340E80212002A31
:10863000E8D18DF807309DF80730002B0CBF1120D2
:10864000002002B0704737B550E8013F9DB2C489A1
:1086500025448489A54228BF2D1B0489A54202BF59
:10866000BFF32F8F002207E0C5EA030540E801545D
:10867000002CE9D14FF001028DF803200193019BFA
:108680009DF803200B6002F0FF0322B10B88006805
:10869000184403B030BD1846FBE70A884B889A425D
:1086A00009D150E8012FC2EA024240E80123002B21
:1086B000F7D1012070470020704737B550E8023FDE
:1086C0001FFAA3F5C488A54202BFBFF32F8F002273
:1086D0000DE0C48925448489A54228BF2D1BC3EA27
:1086E000054540E80254002CE8D14FF001028DF816
:1086F00003200193019B9DF803200B6002F0FF0310
:1087000022B14B880068184403B030BD1846FBE71F
:108710000A884B889A4209D150E8022FC2EA2242C5
:1087200040E80223002BF7D101207047002070475A
:1087300050E8002F42EA010340E8003C9CF0000FA3
:10874000F6D11046704750E8003F03EA010240E8C6
:10875000002C9CF0000FF6D1104670470121FFF766
:10876000E7BF0021FFF7EFBF10B590B1D0E90123BB
:1087700001689B1ADBB20A60013BDBB2FF2B026887
:1087800002D10020107110BD11684C1C14600B70D8
:10879000F2E70E20F7E737B5054600240DF1070094
:1087A0008DF80740FFF7C4FE2A686B68116899428C
:1087B0000ED9481E106011F8014CEB68298A01FBA4
:1087C0000434AB6811791B1ADBB2994238BF1371BC
:1087D0009DF80700FFF7D0FE204603B030BD37B547
:1087E000054600230DF107000C468DF80730FFF712
:1087F0009FFE2A681368591C1160E968641A298A67
:10880000B4FBF1F41C709DF80700FFF7B5FE03B050
:1088100030BD01600B681146184710B40468E46865
:10882000A4465DF8044B604710B404682469A4466C
:108830005DF8044B6047000070B508B10368ABB940
:108840000C4D0D4C0026641B1423B4FBF3F4B4420E
:1088500001D1002009E02B6813B901361435F6E781
:10886000DB69284698470028F7D070BDDB69BDE872
:1088700070401847685900207C590020014B436024
:1088800000207047B4D707000846704700207047A3
:10889000024B1868003018BF01207047D4590020DF
:1088A00008B50248FFF75DFF002008BDD45900203D
:1088B00008B510461A4604F0BAFE002008BD0000B4
:1088C0002DE9F043814687B014480F461646984676
:1088D000FFF744FF0446F0B90546AE4215D10F48F4
:1088E000FFF73FFFD9F808305BB102228DF8002076
:1088F0000022CDE90127CDE90326CDF81480684692
:108900009847204607B0BDE8F08307EB053001F03B
:1089100071F80135E1E71124F3E700BFD4590020D5
:108920002DE9F041804686B011480F4616461D4697
:10893000FFF714FF0446C8B9AA083146384601F0CB
:1089400087F80B48FFF70DFFD8F8083053B1012224
:108950008DF800200C9A0592CDE90147CDE9036519
:1089600068469847204606B0BDE8F0811124F9E733
:10897000D459002029DF704728DF704770B503689D
:108980009D6886B004460E466DB1142200216846EB
:1089900004F076FEA3680593237901962BB1012B91
:1089A0000DD06846A84706B070BD01238DF8003091
:1089B00023690293E368039363690493F1E7022355
:1089C0008DF80030E3681B030293F5E70846704713
:1089D00000207047024B187A003018BF0120704702
:1089E000C45B0020034B187A0122B0FA80F05A745D
:1089F00040097047C45B002008B510461A4604F0D1
:108A000016FE002008BD000008B51422002104480D
:108A100004F036FE0348FFF7F4FD002008BD00BF58
:108A2000C45B0020B45B002010B5094C094B4360C7
:108A30002046FFF793FE48B904F0C8FC1C232074BD
:108A40004FF4EE7204490548FFF7C8FD002010BD41
:108A5000C45B0020E0D70700D8590020B45B002099
:108A600070B5234C234E237A25463BB9224923482F
:108A7000FFF723FE306008B9606070BD34680223E0
:108A80002B72237973B1012B22D020460321FFF7EB
:108A900075FF00232B726B6017491848BDE87040C2
:108AA000FFF736BED4E90523D21A142A28BF1422B0
:108AB000D4E903109208012A38BF0122194418444E
:108AC000FFF758FF50B11128DFD101232B72D4E7F3
:108AD000D4E903031844FFF74FFFF3E72B7C002B87
:108AE000CBD10146BDE87040022000F009B800BFBC
:108AF000C45B0020DC5B0020D85B0020B45B00205E
:108B000038B5831E012B43D8224C237A002B3FD04B
:108B1000022B09D103282ED01F4B1B680022E260D4
:108B20001A793AB1012A20D0637C6BBBBDE838408A
:108B3000FFF796BFD3E905128D1A142D94BF521971
:108B400014329A619142EFD102284FF0000308BF1E
:108B500019462372104B18BF0D211868FFF70EFF3E
:108B60000E490F48FFF7D4FDDEE71A6901321A619A
:108B70005B699A42E7E7E3680133082B01D8E360B9
:108B8000D2E70023E360DFE7BDE8384004F00EBC25
:108B900038BD00BFC45B0020DC5B0020D85B002038
:108BA000B45B002000F0FD03012B08D1044B002230
:108BB0005A74421E504250411874FFF751BF70471B
:108BC000C45B002010B5064C201DFFF7C7FD28B977
:108BD000637C1BB9BDE81040FFF742BF10BD00BF6A
:108BE000C45B00202DE9F34180460D460F4801A9E2
:108BF00016461F46FFF727FD0446A8B11C22002198
:108C000004F03EFD2D0B0123237101A9C4F800805F
:108C1000A760E56066610548FFF73FFDFFF7D2FFFB
:108C2000002002B0BDE8F0810420FAE7B45B002028
:108C30002DE9F74381468846104801A917461E468C
:108C4000FFF701FD0446B0B11C22002104F018FD1D
:108C500000250A9BA36001A92571C4F80090C4E90E
:108C6000037866610548FFF718FDFFF7ABFF28465C
:108C700003B0BDE8F0830420FAE700BFB45B002036
:108C80000B684A684360934208BF0023016008BF35
:108C900043607047436843B10268916852680B446F
:108CA0009342436004BF0023436070472DE9F04FB7
:108CB000C9B008AA01F1400514464B780E781B0490
:108CC00043EA0663CE7833438E78043143EA0623C1
:108CD0008D4244F8043BF0D11024916B16464FEAC4
:108CE000F14383EA714383EA9123716A366852F84B
:108CF000045F31440B444FEAB54181EAF51181EA42
:108D0000D50101340B44402CD363E6D1D0E914E300
:108D10000093836D0193C36D0293036E0393436EBF
:108D20000493836E0593C36E0693DDE9057BDDE94D
:108D3000031CDDE901592B4B009E079374464FF04D
:108D40000008079B53F8042B07934FEAF12383EAAB
:108D5000B11383EA716A08AB53F828301A440AEB5E
:108D6000020327EA010A01EA0C028AEA02021A4413
:108D70004FEA743A86EA05035A448AEAB40A06EAD4
:108D8000050B234083EA0B038AEAB45A08F1010871
:108D90009A44B8F1400F02EB0903BB465244A9467E
:108DA00019D172440265009A22444265019A324404
:108DB0008265029A2A44C265039A1A44049B026699
:108DC0000B444366059B63448366069B3B44C36632
:108DD00049B0BDE8F08F674635468C4626461946B1
:108DE0001446AEE70CD8070030B5E0B10F4A104981
:108DF00000240025C0E91245C0E914120D4C0E4AAA
:108E00000E4DC0E916420E4AC0E918520D4A82665C
:108E100002F17452A2F523020023A2F692420364E7
:108E2000C266184630BD0E20FCE700BF85AE67BBAA
:108E300067E6096A72F36E3C3AF54FA57F520E5110
:108E40008C68059BABD9831FF8B50446F0B10AB90D
:108E50000020F8BDD1B10D468E180027B542F7D0DD
:108E6000236C15F8012BE2540133402B2364F5D118
:108E700021462046FFF71AFFD4E9123113F500739B
:108E800041F10001C4E912312764E7E70E20E0E771
:108E900070B50D4616460446002877D0002975D0D7
:108EA000026C8021372A02F1010381544FF0000245
:108EB00042D8382B3BD1D4E91223206C0821E1FBA6
:108EC0000023104612BAE2631A0A194684F83B30AE
:108ED00084F83A201A0C1B0EC4E9120184F83920D8
:108EE000214684F838302046FFF7E0FE691E76B34D
:108EF0000023E26EDA4001F8012FA26EDA400A7117
:108F0000626EDA400A72226EDA400A73E26DDA406B
:108F10000A74A26DDA400A75626DDA400A76226D33
:108F2000DA400833202B0A77E3D1002070BDE254E9
:108F30000133BEE7E25401333F2BFBD921462046E3
:108F4000FFF7B4FE3822002104F09AFBB3E71823A0
:108F5000226DDA4001F8012F626DDA400A71A26DCC
:108F6000DA400A72E26DDA400A73226EDA400A745D
:108F7000626EDA400A75A26EDA400A76E26EDA4074
:108F8000083B13F1080F0A77E2D1CEE70E20CDE7B8
:108F900043689B68184708B5436808305A7900F061
:108FA00074FE002008BD2DE9F0430D469BB0084635
:108FB00099469046FFF7ECFF6E6874794C4528BFE0
:108FC0004C4607462246414602A800F053FE7279FD
:108FD00022990AA800F059FE00970AAB224602A97E
:108FE00005F1080001F022FD002848F2425018BFA8
:108FF00000201BB0BDE8F0830023C0E902328B885B
:109000001A44B1F9063002611A44C0E90011426104
:109010000888003018BF012070474268118838B5B1
:109020000346002937D0148A02F1100141602CB99F
:10903000C2680168FFF7E0FF204638BD90781189CB
:1090400000F03005302D14D1947C04F03004302C25
:109050001BD190881969091A19610021908AB2F907
:10906000162008441969014419611144596101200D
:10907000E3E700F0F004202C07D150894143002D94
:10908000ECD1986801309860E8E700F0C0008028D3
:1090900008BF0421F3E70846CFE770B545680446EA
:1090A0000E4663681A88B24204D19B7803F00F031E
:1090B000082B07D12046FFF7B0FF6368AB42F0D121
:1090C000002070BD0120FCE743681A44426011B1E2
:1090D00001399A4201D10120704713F8010B01F8C0
:1090E000010FF6E783682DE9F3410446884623B96A
:1090F0000027384602B0BDE8F081036801220DF177
:109100000701984707460028F2D0A3689DF807504A
:10911000013B2A06A3601AD505F07F050726A36840
:10912000002BE5D0236801220DF107012046984766
:109130000028DDD0A3689DF80720013BA36002F062
:109140007F03B3401D43130606F1070602D4C8F897
:109150000050CEE7232EE2D1CAE770B54568AA7861
:1091600002F00F06082E86B003461FD103691C6863
:1091700000260CB906B070BD236862689D6826732E
:1091800029466846FFF738FF6368049304F10C032F
:109190000593AB7803F0C003802B08BF231D6846FE
:1091A00008BF0493FFF7D9FFA468E2E712F0C001FB
:1091B0001CD102F0300010280AD15A691170072E14
:1091C000EC68186909D10146204600F017F8D1E78C
:1091D0009006F4D55B691980CCE72A89214614B141
:1091E00004F025FAC6E704F04BFAC3E78029C1D1A1
:1091F0000069002192060160BCD5EBE77FB50A4605
:1092000001466846FFF7F8FE30B16846FFF7A5FF54
:109210006846FFF702FFF7E707B05DF804FB0000C0
:1092200030B5044685B01546A9B90268114B9A427B
:1092300011D0102D06D82A4669462046FFF7F0FFC8
:1092400005B030BD102269462046FFF7E9FF00282F
:10925000F6D0103DEDE7A368AB4201D20020EFE766
:1092600023682A46204698470028F7D0A3685D1B4C
:10927000A560E5E7C9900700F7B50E4601A90746C6
:109280001546FFF72FFFA8B1019A0123D3184FF01D
:10929000000404D2B17801F0C001802901D1204638
:1092A00008E031899942FAD329463846FFF7B8FFDA
:1092B000019BEC5403B0F0BD73B50E4601A9054601
:1092C0001446FFF70FFFB8B1019BB3F5803F07D2FB
:1092D00002229A1804D2B17801F0C001802901D18C
:1092E000002009E031899142FAD321461A4621F83B
:1092F000023B2846FFF794FF02B070BD10B5034C47
:1093000082600022C0E90041C26010BDC990070020
:109310002DE9F3470025064688462F462C46B368BC
:1093200043B3336801220DF107013046984708B373
:10933000B3689DF807C0013B0CF07F025FFA82F929
:10934000C4F12001B360A4F1200309FA03F329FA60
:1093500001F109FA04F20B431CF0800F45EA020503
:1093600047EA030704F1070402D1C8E9005702E005
:10937000462CD4D1002002B0BDE8F08773B50C466E
:1093800069461646FFF7C4FF68B12389082B0CD144
:10939000DDE90045C6E90045DDE90023AB4206BF33
:1093A000A2420120002002B070BD042B04D1009B1A
:1093B00033601C460025EFE7022B4FF0000004D17C
:1093C000009B33809CB20546E6E7012BEBD1009B66
:1093D000337003F0FF04F6E737B50D4669461446CF
:1093E000FFF796FF30B12A89082ADDE9003103D161
:1093F000C4E9003103B030BD042A18464FEAE371D6
:1094000008D123601A460B468B4206BF82420120D8
:109410000020EFE7022A04D11BB223801AB2D3172F
:10942000F2E7012A03D15BB223705AB2F7E70020BA
:10943000E0E7F7B50C46002119702170116001A911
:10944000074615461E46FFF74DFE30B9BB6813B9F7
:1094500001233370002003B0F0BD01990029F7D03B
:10946000CB0801F007012B602170F4E713B5044627
:1094700005291FD8DFE801F0030F151E1E1C01226D
:1094800001A92046FFF7CCFE18B19DF90430002B4E
:10949000F5DB02B010BD082200212046FFF7C0FE18
:1094A000F7E701A9FFF71EFE0028F2D0019AF3E7C3
:1094B0000422F1E70020ECE773B50D4601A904464C
:1094C000FFF710FE064618B90026304602B070BD00
:1094D00094E80F0085E80F0001998A42F4D3A9604F
:1094E000A3685B1AA360F0E72DE9F0435568AB78F9
:1094F00013F0C00489B006468C46174603D0402CB2
:1095000067D000240AE003F00F025D4903F0300346
:10951000102B51F822801BD004D8E3B1204609B0AB
:10952000BDE8F083202B1BD0302BF7D17B69298835
:109530001980072A09D121462A89386904F0A0F840
:109540007B683969D868FFF759FE3A6979683EE067
:109550007B6901221A703A692946C0470446DDE753
:10956000BCF1020FD7F8149024D1042A22D804A900
:10957000FFF7A2FF04460028C3D0069B2BB17968F1
:10958000B9F800304A899A4205D8059B7360069B5A
:10959000002BC3D0B5E708893A6903FB002204A871
:1095A000C04728B1B9F800300133A9F80030E4E72A
:1095B0000446EAE7B9F800306A899A42A1D92989B4
:1095C0003A69581C03FB0122A9F8000029463046DD
:1095D000C3E7D2F81080454655F8043B13B9FFF7AE
:1095E00045FFBBE7022914D104A9FFF765FF002856
:1095F00087D0D8F8003079682A4604A898470446EE
:1096000000283FF47EAF069B002BF2D1059B7360D0
:1096100084E701292BD04CB24CB105297FF471AFFE
:1096200004220DEB0201FFF7FBFD042424E00DF101
:10963000040901340B2C3FF464AF01224946304643
:10964000FFF7EEFD00283FF45CAF19F9013B002B5A
:10965000EFDB0C4B049301ABCDE9053400230793FA
:109660002A46D8F80030796804A8984776E7082297
:1096700001A9FFF7D5FD08240028EAD141E700BF82
:1096800018D90700C99007002DE9F04F91B00446A2
:10969000002604A8CDE90266FFF7AEFCA3683BBB39
:1096A000DDE9053404A89D78FFF7B7FC0028F7D161
:1096B00015F0300F03D1059B1B8803B10134002C3A
:1096C00000F0A9806309002202A9934240F09C8027
:1096D00010AA02EB830304F01F04C4F120044FF02E
:1096E000FF3053F8383CE040C31A584258410DE06F
:1096F0000DF1030301AA0DF102012046FFF799FEC7
:1097000038B99DF80330002BCAD1002011B0BDE854
:10971000F08F019904A8FFF7C0FC002850D1019BED
:10972000B3427DD3059D059A937803F00F03082B70
:109730007FD004A8FFF771FC059B9D42F3D14FF049
:10974000FF36019FB7426BD3089B9DF80290D4F877
:1097500008801D684FF0010AA368002D5DD0984570
:109760009CD12B68D3F800B0BBF1000F08D04B465A
:109770003A4629462046D8470028C6D0AD68EBE7D0
:10978000D3F808B0BBF800309F42F7D16A68594659
:109790000AA8FFF731FC6B680E9305F10C030F93D9
:1097A0009BF8023003F0C003802B04BF2B1D0E93E7
:1097B0000AAA85F80CA049462046FFF795FEDBE78C
:1097C000059B9B7813F0300F0FD1069A3F2A0CD8D7
:1097D000510910AB03EB810102F01F0201239340FA
:1097E00051F8382C134341F8383CE5682DB104ABEF
:1097F0009DF8022001992046A84704AA9DF802106E
:109800002046FFF771FE10E051F8225001357FF439
:109810007DAF013259E7012078E798457FF43EAFEC
:109820009DF802102046FFF721FE00287FF436AF96
:109830006BE7168885E770B50C4606461546114657
:109840002046FFF7DBFC2A4621463046BDE8704043
:10985000FFF71ABFF0B585B00C46CD6869460746DC
:109860001646FFF729FE68B1E06858B1A37803F007
:109870003003202B32462946684605D1FFF7DBFF2F
:10988000019B7B6005B0F0BDFFF7FEFEF8E7D3B5A6
:109890000C466946FFF73CFD80B1DDE90013002767
:1098A0004A0801F0010642EAC37256EA07014FEA8C
:1098B00053031CBFD243DB43C4E9002302B0D0BD35
:1098C00037B50D4669461446FFF7E1FF68B12B89AD
:1098D000082B0CD1DDE90001C4E90001DDE900231A
:1098E0008B4206BF82420120002003B030BD042B12
:1098F00003D100982060C117F0E7022B04D1BDF915
:109900000000208000B2F6E7012B04D19DF9000091
:10991000207040B2EFE70020E7E713B504220C46C1
:109920000DEB0201FFF77CFC08B1019B236002B044
:1099300010BD1146FFF7F1BF13B508220C4669466A
:10994000FFF76EFC18B1DDE90023C4E9002302B083
:1099500010BD1146FFF7F0BF044B1A5C0123934082
:109960004FF0A042C2F80C35704700BF3CD9070049
:10997000044B1A5C012393404FF0A042C2F8083513
:10998000704700BF3CD9070008B50020FFF7F0FF83
:109990000120FFF7EDFF0220FFF7EAFF0320BDE8FB
:1099A0000840FFF7E5BFC20708B501460CD54FF0E8
:1099B000A0430322C3F84427C3F84827C3F84C2721
:1099C000C3F85027FFF7E0FF8B070AD54FF0A043FD
:1099D0000C22C3F83427C3F83827C3F83C27C3F850
:1099E000402708BD024AD2F80034002BFBD0704754
:1099F00000E001400A4908B50223C1F80435BFF36D
:109A00006F8FBFF34F8FC1F80805FFF7EBFF0023FF
:109A1000C1F80435BFF36F8FBFF34F8F08BD00BF90
:109A200000E0014010B5094C0123C4F80435BFF330
:109A30006F8FBFF34F8F0160FFF7D4FF0023C4F88F
:109A40000435BFF36F8FBFF34F8F10BD00E00140AF
:109A50000E4B10B50124C3F80445BFF36F8FBFF35D
:109A60004F8F01EB8204401AA14208D1074B00221C
:109A7000C3F80425BFF36F8FBFF34F8F10BD43189A
:109A800051F8042B1A60FFF7ADFFEDE700E001404D
:109A900028B139B10023C1E900301846704748F2B7
:109AA0001050704748F21350704730B1036848F2C5
:109AB00040508B4208BF0020704748F2105070475A
:109AC00028B148F21150914208BF0020704748F277
:109AD0001050704770B506460C461D46FFF7D8FF7C
:109AE00050B9B3794AB1AB420AD111462046FFF7CB
:109AF00052FA08B9044B236070BD48F21050FBE7DE
:109B000048F21150F8E700BF7052464D2DE9F0477A
:109B10000C4607460F49204615469846DDE9086978
:109B2000FFF7C3FF98B963685A7949465200304637
:109B3000FFF7C6FF58B945B1089643462A46214665
:109B40003846BDE8F047FFF72EBA48F21050BDE89E
:109B5000F08700BF7052464D10B5044638B149B188
:109B600041600B68984708B9044B236010BD48F268
:109B70000150FBE748F21050F8E700BF6E5246482C
:109B8000F0B4134648B10768094EB7420AD161B133
:109B90002AB14368F0BC5B68184748F20153184685
:109BA000F0BC704748F20253F9E748F21053F6E769
:109BB0006E524648F0B460B107680C4EB7420CD103
:109BC00071B143681568DC68A5420CD39B68F0BC92
:109BD000184748F20150F0BC704748F20250FAE7CB
:109BE00048F21350F7E748F21450F4E76E52464833
:109BF0002DE9F041044617469846DDE90656FFF781
:109C0000ABFF60B9424639462046FFF7B9FF30B98D
:109C1000324629462046BDE8F041FFF7CBBFBDE8FC
:109C2000F0810000F8B50A4F0A4C0B4DE41B0121EE
:109C3000E40829700026A64203D102232B700020DD
:109C4000F8BD57F8363098470028F9D10136F2E7C9
:109C500048D7070048D70700E05B002001390144DE
:109C6000814200D2704703780A7800F8012B01F88E
:109C70000139F5E7013A02440139824200D27047C6
:109C800011F8013F02F80139F7E770B516460D46A5
:109C9000FFF7F0FF3246A9193044BDE87040FFF7E6
:109CA000E9BF38B50D460446FFF7D8FF29466019CD
:109CB000BDE83840FFF7D2BFBFF34F8F0549064BD1
:109CC000CA6802F4E0621343CB60BFF34F8F00BF5A
:109CD000FDE700BF00ED00E00400FA0508B5072825
:109CE0001BD8DFE800F004121A1A1A041A04012023
:109CF000FFF759FE0020FFF72FFE0120FFF72CFE93
:109D00000220BDE80840FFF733BE0120FFF730FE18
:109D10000220BDE80840FFF71FBE08BD08B5FFF7E9
:109D2000CBFF08B5FFF7C8FF08B501F081FB0022A3
:109D300010464FF4805101F011F9024608B1FFF7C7
:109D4000BBFF0548C0F5FC2101F008F90028F6D159
:109D5000024801F027F8F2E700800700DD9C0700C9
:109D60008B1802448B4200D1704713F8010D02F8A2
:109D7000010DF7E7000000000000000000000000F7
:109D8000C3F10803DB0070B50133002403A500BF55
:109D90005B1920C940CAAD1920C0184720C940CA64
:109DA000754120C020C940CA754120C020C940CAA1
:109DB000754120C020C940CA754120C020C940CA91
:109DC000754120C020C940CA754120C020C940CA81
:109DD000754120C06441204670BD00BF00000000F6
:109DE000C3F10803DB0070B50133002403A500BFF5
:109DF0005B1920C940CAAD1B20C0184720C940CA02
:109E0000B54120C020C940CAB54120C020C940CAC0
:109E1000B54120C020C940CAB54120C020C940CAB0
:109E2000B54120C020C940CAB54120C020C940CAA0
:109E3000B54120C06441B4FA84F0400970BD00BF50
:109E40002DE9F04F08B4F8CA04B451F8042BA3FB71
:109E5000028940F8048B4FF0000AE4FB629A4FF04D
:109E6000000BE5FB62AB4FF0000CE6FB62BC4FF071
:109E7000000EE7FB62CE51F8042B4FF00008E3FB25
:109E8000628940F8048BE4FB629AE5FB62ABE6FB77
:109E900062BCE7FB62CE51F8042B4FF00008E3FBF5
:109EA000628940F8048BE4FB629AE5FB62ABE6FB57
:109EB00062BCE7FB62CE51F8042B4FF00008E3FBD5
:109EC000628940F8048BE4FB629AE5FB62ABE6FB37
:109ED00062BCE7FB62CE51F8042B4FF00008E3FBB5
:109EE000628940F8048BE4FB629AE5FB62ABE6FB17
:109EF00062BCE7FB62CE40F8049B40F804AB40F83C
:109F000004BB40F804CB40F804EB0CBC052B00F07C
:109F10001E810C68A0F11400A1F11401A2F1140239
:109F200052F804EB4FF0000550F8046BE4FB6E565A
:109F300052F804EB50F8047BE4FB6E6752F804EB34
:109F400050F8048BE4FB6E7852F804EB50F8049B55
:109F5000E4FB6E8952F804EB50F804ABE4FB6E9A14
:109F6000A0F1140052F8044B51F804EB4FF0000C30
:109F7000E4FB6EC540F804CB51F804EBE4FB6E56ED
:109F800040F8045B51F804EBE4FB6E6740F8046BA7
:109F900051F804EBE4FB6E7840F8047B51F804EBD5
:109FA000E4FB6E8940F8048B51F804EBE4FB6E9AF5
:109FB000A0E80006062B00F0CA800C68A0F118008B
:109FC000A1F11801A2F1180252F804EB4FF00005BC
:109FD00050F8046BE4FB6E5652F804EB50F8047B27
:109FE000E4FB6E6752F804EB50F8048BE4FB6E78E8
:109FF00052F804EB50F8049BE4FB6E8952F804EB32
:10A0000050F804ABE4FB6E9A52F804EB50F804BB32
:10A01000E4FB6EABA0F1180052F8044B51F804EBCE
:10A020004FF0000CE4FB6EC540F804CB51F804EB94
:10A03000E4FB6E5640F8045B51F804EBE4FB6E67FA
:10A0400040F8046B51F804EBE4FB6E7840F8047BB5
:10A0500051F804EBE4FB6E8940F8048B51F804EBF3
:10A06000E4FB6E9A40F8049B51F804EBE4FB6EAB02
:10A07000A0E8000C072B6AD008B40C68A0F11C0003
:10A08000A1F11C01A2F11C0252F804EB4FF00005F3
:10A0900050F8046BE4FB6E5652F804EB50F8047B66
:10A0A000E4FB6E6752F804EB50F8048BE4FB6E7827
:10A0B00052F804EB50F8049BE4FB6E8952F804EB71
:10A0C00050F804ABE4FB6E9A52F804EB50F804BB72
:10A0D000E4FB6EAB52F804EB50F804CBE4FB6EBC2F
:10A0E000A0F11C0052F8044B51F804EB4FF00003B0
:10A0F000E4FB6E3540F8043B51F804EBE4FB6E568C
:10A1000040F8045B51F804EBE4FB6E6740F8046B25
:10A1100051F804EBE4FB6E7840F8047B51F804EB53
:10A12000E4FB6E8940F8048B51F804EBE4FB6E9A73
:10A1300040F8049B51F804EBE4FB6EAB40F804AB31
:10A1400051F804EBE4FB6EBCA0E8001808BCBDE8C5
:10A15000F08F002310B51C465AB2914200DC10BDAE
:10A1600040F823400133F7E710B500231A465CB2EC
:10A17000A14203DCB2FA82F0400910BD50F823403E
:10A1800001332243F3E74A11012350F8220001F082
:10A190001F0103FA01F108407047013910B549B2B7
:10A1A000041D0A06CBB204D4013954F82120002A38
:10A1B000F7D001335BB273B103F18042013A50F83A
:10A1C0002220002022B9013B00EB431318B210BD3E
:10A1D00052080130F6E71846F9E710B500235CB2E3
:10A1E000A24200DC10BD51F8234040F82340013367
:10A1F000F5E710B5013A52B2130601D5002010BDA3
:10A2000050F8224051F822309C4205D802F1FF322A
:10A21000F2D24FF0FF30F2E70120F0E700EB8101CE
:10A220000023884200D3704751F8042D43EA5203BB
:10A230000B60D307F5E770B59DF910401E46234625
:10A240000546FFF79DFD30B9224629463046FFF707
:10A25000D0FF012807D02346324629462846BDE8CC
:10A260007040FFF7BDBD70BD70B59DF910401E4632
:10A2700023460546FFF7B4FD38B12346324629464A
:10A280002846BDE87040FFF77BBD70BD2DE9F04F5B
:10A29000B5B004AC9DF9F8501F4681462B462046C8
:10A2A000FFF7CEFD24AB29463846CDE90234FFF74F
:10A2B00074FFC0EB851004B2002C2646B8BF04F131
:10A2C0001F06634246F3471603F01F0304F01F08FE
:10A2D00014A858BFC3F100083146FFF73AFFB8F1A0
:10A2E000000F30B22DDD14AB002203EB8000C8F16B
:10A2F000200C1346AB4219D32FB27B00019314AB51
:10A3000003EB870705F1FF3834AB012603EB880820
:10A31000002C54DA34AB03EB86062A4656F8C81CE8
:10A320004846FFF75AFF35B0BDE8F08F57F8236075
:10A3300006FA08F10A4340F8042B013326FA0CF21E
:10A34000D8E714AB2A46394603EB8000FFF745FFF8
:10A35000D2E70FFA82FE5AF8C83C53F82EB034AB5D
:10A3600003EB8202013052F8803C0B44BBEB030349
:10A3700034BF012200229B4518BF11465CF8C82C4F
:10A3800042F82E30019B42B29A42E2DB731A5E42DF
:10A39000294614A85E41FFF741FF34AB03EB850368
:10A3A000294653F8802C58F8803C384643EAC2735B
:10A3B000013C48F8803C24B2FFF730FFA8E734ABFB
:10A3C0000020C6F1010C014603EB860A03EB8C0C5E
:10A3D000D8E730B51C4691B0054693F90030684681
:10A3E000FFF72EFDD4F8AC3069462846984711B0E7
:10A3F00030BD13460A46FFF7ECBF2DE9F04793F94D
:10A40000006092B00446894610463146154698468B
:10A41000FFF7AAFE002840F091804246494602A874
:10A42000FFF7E7FF434602AA21460AA8FFF7D1FF3C
:10A4300002A908464246FFF7DCFF43462A46494642
:10A440004846FFF7C6FF08F104074246294628465A
:10A45000FFF7CFFF3B462A46214620460096FFF7EE
:10A46000EAFE3B462A46294628460096FFF7E3FEC9
:10A470003B462A46214628460096FFF7F5FE43460E
:10A480002A4621462046FFF7A4FF3B4622462146A6
:10A4900028460096FFF7CFFE3B4600962A46214607
:10A4A0002046FFF7C8FE2368DB074AD533463A4605
:10A4B00021462046FFF764FC314682462046FFF7DE
:10A4C000ADFE06F18043013B54F8230040EACA7018
:10A4D00044F82300424621462846FFF78AFF3B46C0
:10A4E0000AAA294628460096FFF7BEFE3B460AAA5E
:10A4F000294628460096FFF7B7FE0AA908463B46BC
:10A500002A460096FFF7B0FE43460AAA2146204697
:10A51000FFF75FFF02AA3B46104621460096FFF771
:10A52000A3FE324629462046FFF757FE49462846F5
:10A53000FFF753FE02A94846FFF74FFE12B0BDE8F1
:10A54000F08731462046FFF769FEC3E72DE9F04169
:10A5500015468AB0044688461C22002103A803F051
:10A560008FF82E1D95F9007003232A464146204698
:10A570000293FFF73EFF334602AA2146204600978A
:10A58000FFF772FE2B46424621462046FFF721FF89
:10A590000097334605F1840221462046FFF74BFE23
:10A5A0000AB0BDE8F0810000F0B5082289B00C4681
:10A5B0000646FFF712FECB6A03930B6B04934B6BBB
:10A5C00005938B6B0693CB6B0793002708236A4692
:10A5D00069466846CDE901770097FFF7D1FB08236C
:10A5E00005466A4631463046FFF7CAFB236B0393A4
:10A5F000636B0493A36B0593E36B0544CDE90637C6
:10A600006A46082369466846FFF7BAFB08230544F3
:10A610006A4631463046FFF7B3FB236A0093636A0C
:10A620000193A36A0293A36B0693E36B079305441C
:10A6300008236A4631463046CDE904770397FFF791
:10A640009FFB636A0093A36AA26B0193E36A029380
:10A650000492636BE26B0393CDE90523236A0793AE
:10A66000054408236A4631463046FFF789FBE36A12
:10A670000093236B0193636B0293236A0693A36A8F
:10A680000793054408236A4631463046CDE90477EE
:10A690000397FFF7A5FB236B0093636B0193A36BF9
:10A6A0000293E36B0393636A0693E36A07932D1A9D
:10A6B00008236A4631463046CDE90477FFF790FB20
:10A6C000636B0093A36B0193E36B0293236A039381
:10A6D000636A0493A36ACDE90537236B07932D1AA8
:10A6E00008236A4631463046FFF77AFBA36B009396
:10A6F000E36BCDE90137636A0393A36A0493E36ACA
:10A70000CDE90537636B07932D1A08236A46314656
:10A710003046FFF765FB2D1A0D4C0FD435B90822D2
:10A7200031462046FFF765FD01280FD00823224659
:10A7300031463046FFF754FB2D1AEFE70823224637
:10A7400031463046FFF71CFB2D18F7D409B0F0BD99
:10A7500084D90700F0B5154689B01C4607460E4659
:10A760001A4629466846FFF744FE23466A4639469C
:10A770003846FFF72EFE23462A4669466846FFF70D
:10A7800028FE23466A4631463046FFF722FE09B0CE
:10A79000F0BD2DE9F0438BB01446129D15F9046B02
:10A7A00000961F46804689462B460246214602A84F
:10A7B000FFF75AFD02A9129A0846FFF71AFE129BEC
:10A7C00002AA41464046FFF704FE129B02AA214618
:10A7D0002046FFF7FEFD2B464A463946384600968E
:10A7E000FFF742FD129A394602A8FFF702FE02A9BE
:10A7F0002B46424608460096FFF736FD02A92B4637
:10A80000224608460096FFF72FFD2B46424621467A
:10A8100020460096FFF728FD129B224649464846EF
:10A82000FFF7D7FD2B4602AA414620460096FFF7C8
:10A830001BFD129B224639463846FFF7CAFD2B46C0
:10A840004A46394638460096FFF70EFD324602A9C1
:10A850002046FFF7C2FC0BB0BDE8F0832DE9F047BE
:10A860001F46B3F90230894613F11F0148BF03F1B7
:10A870003E014D11D91D48BF03F10E01CC10944289
:10A880004FFA85F828BF144641460646FFF761FC9B
:10A8900022464946FFF764FAB7F90220E4009442E1
:10A8A0001FD9A41A06EB85010022C4F120058E42AF
:10A8B0000ED32437424631463846FFF79AFC01282A
:10A8C0000FD043463A463046BDE8F047FFF788BA16
:10A8D00051F8040D20FA04F313430B6000FA05F25B
:10A8E000E5E7BDE8F08770B5036813F0010506469B
:10A8F000144605D013460A460146FFF741FA0546BD
:10A9000021463046FFF78AFC45B104F18042013A06
:10A9100056F8223043F0004346F8223070BDF0B5BF
:10A920000F46A1B006461946384615461C46FFF7A5
:10A930001BFC20B13046FFF70CFC21B0F0BD2246D5
:10A9400039466846FFF749FC294608A8FFF745FC49
:10A9500010A82146FFF7FDFB012318A81093FFF76D
:10A96000F8FB224608A96846FFF743FC28B92246AF
:10A9700010A93046FFF731FCDFE7009BDA0709D466
:10A9800021466846FFF74AFC2246294610A8FFF7F1
:10A99000AAFFE6E7089BDB0707D4214608A8FFF7D4
:10A9A0003DFC2246294618A8F1E7002823461CDD75
:10A9B00008AA69466846FFF713FA21466846FFF77A
:10A9C0002DFC224618A910A8FFF713FC002805DA71
:10A9D00010A923462A460846FFF7D2F910A92346B4
:10A9E00018AA0846FFF7FCF9CEE708A96A46084608
:10A9F000FFF7F6F9214608A8FFF710FC224610A938
:10AA000018A8FFF7F6FB002805DA18A923462A46FE
:10AA10000846FFF7B5F918A9234610AA0846FFF71C
:10AA2000DFF9BEE70048704780D907002DE9F04FF5
:10AA3000EDB01F46769E0490B6F9023096F90040BC
:10AA400013F11F0948BF03F13E0949F3471909F102
:10AA5000FF3824AB002543F828506CAB03EB880388
:10AA60004CA88A469346394696F9012043F8805C03
:10AA700043F8605CFFF774F996F9012054A8B918FF
:10AA8000FFF76EF921464CA8FFF76EFB074600283A
:10AA900040F02D8154A8FFF767FB0290002840F09A
:10AAA000288106F124034A464CA918460393FFF770
:10AAB000A0FB012840F01F814A4654A90398FFF7E4
:10AAC00098FB0128069040F016811CAD0CAF4B4658
:10AAD000039A54A92846FFF722FF029B47F8283023
:10AAE0005A46514638463346FFF7B8FE394638468F
:10AAF000039BCDF800902A46FFF7C8FB0DF5B87808
:10AB0000039BCDF800902A464CA914A8FFF7BEFB82
:10AB1000224640460499FFF760FBA30008EB030AB6
:10AB20000793049BA100591806F1440B5046FFF708
:10AB300054FB594634A8FFF750FBA3000BEB03016D
:10AB40003CA8FFF74AFB331D414634AA284600942F
:10AB50000593FFF789FB534642463CA934A800966B
:10AB6000FFF717FE2346321D29462846FFF7D7FE7A
:10AB70002A46514640463346FFF7ECFD029BCDE99D
:10AB8000083B049B49463846CDE90A38FFF705FBE8
:10AB90004946804614A8FFF700FB8045B8BF8046B1
:10ABA0001FFA88F808F1FF3B0FFA8BFB594638462D
:10ABB000FFF7E9FA5946071C14A818BF0127FFF749
:10ABC000E2FA002814BF022300231F430DF1200ADC
:10ABD00022465AF8277024A83946FFF7FEFA0DF1ED
:10ABE000B00BA300F9185846FFF7F7FA214628469C
:10ABF000FFF7AFFAA8F10208069B2B600FFA88F85E
:10AC00000DF1900AB8F1000F23DA2346059A294680
:10AC10002846FFF784FE33462A4659465046FFF73A
:10AC200099FD4A4651460398FFF7E3FA012804D0FC
:10AC30004B46039A5046FFF7D3F8013C64B24CAA46
:10AC400023064AD5029BB3FA83F040096DB0BDE8F4
:10AC5000F08F33462A46D6F8A47059465046B84776
:10AC600041460CA8FFF78FFA4146071C14A818BFED
:10AC70000127FFF788FA002814BF022300231F438F
:10AC800008AB53F827701FB32246394634A8FFF7A4
:10AC9000A4FA079B3CA8F918FFF79FFA33462A4607
:10ACA0003CA934A8FFF756FD059B009434AA5146F1
:10ACB00044A8FFF7D9FA5B4652463CA934A800964F
:10ACC000FFF767FD334644AA29462846FFF781FB74
:10ACD00008F1FF380FFA88F894E752F824105AF870
:10ACE00024304B40029919430291013CA8E72846C1
:10ACF000ACE73846AAE70298A8E7007800F0010020
:10AD0000704741DF70470000014B01221A70704705
:10AD100004600020BFF34F8F0549064BCA6802F458
:10AD2000E0621343CB60BFF34F8F00BFFDE700BF6E
:10AD300000ED00E00400FA05024B034800221A70FF
:10AD400001F08EBC0460002015AD0700831E10B515
:10AD50000446052B09D8DFE803F0160303080F0F9C
:10AD60000B494FF4701000F035FA0A4B1B686BB1B9
:10AD70002046BDE810401847074B084800221A70CB
:10AD800001F06EFCF1E701F0B3FBEEE710BD00BF90
:10AD900039AD0700086000200460002015AD0700F1
:10ADA0000020704738B5564B564A18604FF0A04304
:10ADB0000020C3F8402701F069FC044648B900F0C0
:10ADC000E1FA012800F0938041B221B1022800F09D
:10ADD0009480032038BD4FF08043D3F8004414F42E
:10ADE000803437D04FF48032C3F800240C46464DEF
:10ADF0002B6A012B41D04FF4701400F059FB434AE9
:10AE000020211820FDF7D8FA18B1414ABC21FEF7DD
:10AE100085FF404B1A6802F0F802B02A06D11A6882
:10AE2000D20742BF1A6802F04E021A60FFF7B8FF5D
:10AE30000028CED12046384900F0CCF9374800F040
:10AE4000F7FC0028C5D100F059FBFDF73FFBFFF7E9
:10AE500058FFF8E7D3F8202502F0F802A82A0AD113
:10AE6000D3F82025D00706D5D3F8202502F05602C6
:10AE7000C3F82025BBE70124B9E743F204031A68AD
:10AE8000274B9A4209D001F09DFCAA69014694B172
:10AE9000244801F083FF90B9ADE76A6B1CB995F8BF
:10AEA0006032012BEFD04FF480511F4801F076FF44
:10AEB0000028E8D19FE795F8A132012BE8D14FF0A7
:10AEC000A043D3F81035D90395D5124B1B6813F066
:10AED000B10F90D101F022FC00287FF47AAF134B20
:10AEE0001870134801F0BCFB00F026F871E70F4B17
:10AEF00010481C7001F0B4FB6BE74FF4A0247CE712
:10AF0000086000200C000300D4770020E45B0020E0
:10AF100030DA07001C05004039AD07004DAD0700D1
:10AF2000DBE5B151757A0020347A002004600020FE
:10AF300009AD070015AD070008B5074B4FF0FF320C
:10AF4000C3F88020C3F8802101F0F8F84FF4805056
:10AF5000BDE8084000F02EB800E100E00346C1F370
:10AF60000B0070B520BBB3F5FE2F21D81B0B0139A8
:10AF700003EB113101264FF08044994200D270BD9D
:10AF800003F01F025D0906FA02F2032D05D8DFE87F
:10AF900005F00206090CC4F800260133EDE7C4F8F9
:10AFA0000426FAE7C4F81026F7E7C4F81426F4E7F5
:10AFB0000720E4E710B5044619480022C0F5FE2139
:10AFC000FFF7CCFF18B1174AE621FEF7A7FE01F004
:10AFD000F9FB154B996901F6FF7121F47F6121F0AE
:10AFE0000F01002201441046FFF7B8FF18B10D4AC7
:10AFF000F021FEF793FEEFF305830023D4E900125E
:10B0000083F3148883F3108883F3118883F3138800
:10B0100081F308884FF0FF339E46104710BD00BFF4
:10B020000080070094DA0700D477002037B56FF06E
:10B030007F42154C057BD4F804358A4228BF0A4666
:10B04000891A13444A1E942A23F07F4305F5A872F7
:10B050009BBF963B96314160416044F822300B4BD8
:10B060004FF4F86043F001039847094BAA001344DA
:10B0700000221A601B680193019B4FF48033AB40A0
:10B08000C4F8043303B030BD0040024010DB0700B9
:10B090004041024018490A7884B0002A29D14FF073
:10B0A0008043A020D3F81834DB035EBF134B01228A
:10B0B0001A60134A0023136012680392039A114A1C
:10B0C000136012680292029A0F4A1360126801928A
:10B0D000019A0E4A82F82403102050600C4A0D4851
:10B0E000C2F808350123036002201360C2F804038C
:10B0F0000B7004B0704700BF1060002008000040D3
:10B1000000410240404102404441024000E100E071
:10B110000040024008400240284B1A6813B542B173
:10B1200027490A6801320A6000221A601B680093EE
:10B13000009B244B1A68A2B100221A6022481B68A7
:10B14000027B0193019B4FF4803393401F4AC2F866
:10B1500008334168044601BB8168D9B9236803B14B
:10B1600098471B4B1A6832B300221A6016481B68B6
:10B17000027F0193019B4FF480339340134AC2F83E
:10B1800008334169044659B1103002B0BDE810409F
:10B19000FFF74CBFFFF74AFFE0E7FFF747FFE0E7A5
:10B1A000816911B11030FFF741FF23691BB102B073
:10B1B000BDE81040184702B010BD00BF0441024076
:10B1C0000C600020404102407C59002000400240B9
:10B1D0004441024070B50B4B1C68227B4FF4803316
:10B1E0009340094A0E46C2F80833054640B1FFF7BE
:10B1F00051FF266029462046BDE87040FFF716BF84
:10B2000070BD00BF9C5900200040024070B5074B44
:10B210001C6805460E46A060FFF73CFF26602946E5
:10B220002046BDE87040FFF701BF00BFA0590020D5
:10B23000014B01221A7070471160002070B5154D46
:10B24000EA6A6E6AAC6CAC2A13D16B6B1C44F61ABA
:10B25000EB6AAC2B13D0324621460F4802F0ACF912
:10B26000A8B100F04BF931462046BDE8704000F02F
:10B2700047BF002CECD101F0BBFA0446E8E73246A8
:10B28000A4F58041044802F097F90028E3D100209A
:10B2900070BD00BFD4770020008007002DE9F74F74
:10B2A00080468946A9EB0804240B02F6FF76154672
:10B2B00000F0FEF8082C28BF08242303DFF860B054
:10B2C0000193360B0DB92B4626E0B4422CBFB24693
:10B2D000A2464FF00002514640462CBF2F46019F28
:10B2E00000F0F6FE0346B8B9FA1C22F00302494604
:10B2F000404600F0DFFE034670B9DBF83030ED1B4E
:10B30000B844B9441F44CBF8307001F0AFF9A6EB54
:10B310000A0603460028D5D0184603B0BDE8F08FD2
:10B32000D477002010B501F073FA154A42F20403F5
:10B33000916CCC5803F1A34303F5471303F2D753A1
:10B340009C4218D1D2E90C32934216D0884204D1E3
:10B350000020BDE8104001F089B9D21A02F6FF7250
:10B3600022F47F6222F00F0219441844FFF796FF7F
:10B370000028EDD010BD0320FCE70020FAE700BF55
:10B38000D477002070B5264CE36AA52B33D003D8C0
:10B39000012B0BD0002070BDAA2B30D0AC2BF9D1E3
:10B3A000FFF7C0FF48BBFFF749FF26E0A66C656AC0
:10B3B00001F008FA864229D101F004FA0022294658
:10B3C000FDF7F0F8A36A984202BF0123C4E907031E
:10B3D000A5610025134801F0E9F9134B1348002239
:10B3E0001A7001F043F968B975B1236A012B14BFD3
:10B3F00001200220CFE7FFF795FF0125EAE7FFF7DD
:10B400001DFFE6E70320C6E70120C4E7236BEA1A25
:10B41000F1181844FFF742FF0028DAD1CCE700BF4B
:10B42000D4770020F87700201160002031B20700A7
:10B4300040F6F87008B50368013302D10749FEF7FA
:10B44000F1FA40F6FC700368013305D14FF4FC219A
:10B45000BDE80840FEF7E6BA08BD00BF008007005F
:10B460000A4AD2F800347BB109480023D2F8081503
:10B47000D940C90748BF03F5C07103F1010348BFB4
:10B4800042F82100072BF1D1704700BF00000140B6
:10B490003546526EFFF7E4BF044B002282B01A60BB
:10B4A0001B680193019B02B0704700BF000101407F
:10B4B00038B50E4C2278BAB90D4BD3F800248AB1B6
:10B4C000D3F80455FFF7CCFF40F61650A842B8BF9A
:10B4D00028460849A0F54860FFF798FE064B4FF450
:10B4E00080321A600123237038BD00BF1260002033
:10B4F0000000014095B4070000E100E0034BD3F8E1
:10B5000000340BB1FFF7ACBF704700BF0000014033
:10B510000C4B1B78062B10D10B4B1B681A070CD158
:10B520000A4B186800F0F003302B08D000F0E00060
:10B53000A0F1400358425841704700207047012055
:10B54000704700BFE00F00F0E40F00F0E80F00F0DC
:10B55000094B1B78062B0CD1084B1B681A0708D126
:10B56000074B186800F0F000A0F130035842584132
:10B5700070470020704700BFE00F00F0E40F00F0BC
:10B58000E80F00F008B5FFF7C3FF28B17D4B7E4AF6
:10B590001B68C3F304231360FFF7DAFF10B17B4B82
:10B5A0007B4A1A60FFF7B4FF28B17A4B7A4A1B68CE
:10B5B000C3F342331360FFF7CBFF20B1774AD36860
:10B5C00023F08073D360FFF7A3FF40B14FF08043B7
:10B5D0000022C3F80C21C3F81021C3F83825FFF767
:10B5E000B7FF10B16E4B03221A60FFF7B1FF40B1F5
:10B5F0006C4B05221A6001229A6700229A603F2252
:10B600005A60694B1B78062B50D1684B1B68190791
:10B610004CD1674B1B6803F0F003502B46D14FF021
:10B620008052644BD2F80414C3F82015D2F80814E1
:10B63000C3F82415D2F80C14C3F82815D2F8101446
:10B64000C3F82C15D2F81414C3F83015D2F8181416
:10B65000C3F83415D2F81C14C3F84015D2F82014DE
:10B66000C3F84415D2F82414C3F84815D2F82814A6
:10B67000C3F84C15D2F82C14C3F85015D2F8301476
:10B68000C3F85415D2F83414C3F86015D2F838143E
:10B69000C3F86415D2F83C14C3F86815D2F8401406
:10B6A000C3F86C15D2F84424C3F87025FFF730FFB7
:10B6B00028B1414B414A1B6803F04F031360FFF769
:10B6C00027FF48B14FF08043D3F80024D20744BF8E
:10B6D0006FF00102C3F80024394B1B68062B08D118
:10B6E000384B1B68062B01BF374A136843F480634D
:10B6F0001360364AD2F8883043F47003C2F88830B9
:10B70000BFF34F8FBFF36F8F4FF01023D3F800229A
:10B71000002A03DBD3F80432002B2FDA2C4B012252
:10B72000C3F80425D3F80024002AFBD04FF01022E0
:10B730001521C2F80012D3F80024002AFBD04FF0E4
:10B7400010231522C3F80422214B1A46D3F8001403
:10B750000029FBD00021C3F80415D2F80034002BD7
:10B76000FBD0BFF34F8F19491A4BCA6802F4E0624D
:10B770001343CB60BFF34F8F00BFFDE7164B174A53
:10B780001A6008BD240300104035014074C0074012
:10B790000DF0ADBA440200103C050040F0ED00E0B1
:10B7A000A005004010560040E00F00F0E40F00F04C
:10B7B000E80F00F000C0004058020010E40E004006
:10B7C00030010010340100103C17004000ED00E093
:10B7D00000E001400400FA05A45900200090D003C5
:10B7E00013681F2B10B5144607D900220830FDF747
:10B7F0004FFB08B92023236010BD48F21450FBE72B
:10B800000830FDF721BB0830FDF7EEBA831F012B8E
:10B8100010B5044602D8002000F0B0FF034B1B68AF
:10B820001BB12046BDE81040184710BD1460002031
:10B8300008B5074B18600020FFF7E8FF054800F047
:10B8400085FF20B90348BDE8084000F005BE08BDEB
:10B85000146000200DB807006CDF70476DDF704783
:10B8600072DF704773DF704774DF704775DF7047B2
:10B8700076DF70477ADF70477CDF70477DDF704787
:10B880007FDF704786DF70478FDF704790DF70473C
:10B89000A8DF7047AADF7047ADDF7047AEDF7047A3
:10B8A000B0DF7047B1DF7047B5DF704762DF7047C8
:10B8B00066DF704713DF70477FB50023CDF80A308D
:10B8C000ADF80E300A4BADF806109B89ADF8083084
:10B8D00001238DF80A300DF10603CDE90430054B44
:10B8E00002A91888FFF7DAFF07B05DF804FB00BF74
:10B8F00082700020AA59002001460148FCF76FBF62
:10B900005CD7070070B518228CB000210DEB020047
:10B9100001F0B6FE2823089316231F4CADF806301D
:10B920000023CDF80E30CDF81230ADF816300223DA
:10B93000092606222370237159230125A270637101
:10B940000322FE230DF10601A0198DF818508DF881
:10B950002D500294ADF80C606570E270A371FFF792
:10B960008DFFB8B9BDF8063026725A19E271BDF8DC
:10B970000C200A4C134402A906AA2046ADF80C304C
:10B98000FFF76EFF30B92078FFF76EFF2946207869
:10B99000FFF768FF0CB070BD96700020A85900201A
:10B9A0002DE9F04103881F2B8AB0044600F0E380A4
:10B9B00032D8112B69D007D8012B00F0F980102B59
:10B9C00055D00AB0BDE8F081142B00F08E811A2BFF
:10B9D00041D0132BF5D10023B04CADF81230022327
:10B9E000ADF8103004AA02AB42F605212088059379
:10B9F000FFF752FF20B1AA4A40F2F721FEF78EF975
:10BA000000231A4685212088FFF73AFF0028D8D066
:10BA1000A34A40F2FF219BE0512B00F0D58013D8C0
:10BA2000232B00F09A80502B46D0212BC9D1002324
:10BA300004A98088ADF81030FFF726FF0028C0D099
:10BA4000974A4FF44D7183E0552B63D0562B00F08D
:10BA50009F80522BB5D100231A461946A088FFF7C4
:10BA600021FF0028ADD08E4A40F2763170E08B4B3A
:10BA700082881A808B4A12681C460AB101209047BE
:10BA800089492088FFF7F2FE9BE7844B4FF6FF724F
:10BA90001A80864B1B685A0707D4FFF733FF20B183
:10BAA0007F4A40F29D21FEF739F97E4B1B68002B3F
:10BAB00087D00220984784E77D4EC288B3889A4297
:10BAC0007FF47FAF7B48FCF766FE054600283FF415
:10BAD00078AF228A04F1120101F0A9FD1822002199
:10BAE00004A801F0CDFD08238DF81030724B0693A9
:10BAF000724B0596CDE9073504A8238AADF82430AA
:10BB000000F0A0FC00283FF45CAF29466948FCF730
:10BB100066FE56E7C188F6291DD8CB1E9B070DD0BF
:10BB2000CB1F9BB2013B5A4202F0030203F0030316
:10BB300001F1FF3158BF5342C91A89B2574B1888D7
:10BB4000FFF7B2FE00283FF43CAF554A40F2CF2148
:10BB5000FEF7E4F835E7F721F0E7002204A9808832
:10BB6000CDE90422FFF792FE00283FF42AAF4C4AA9
:10BB700040F2DE21ECE7494B00F108011888FFF79D
:10BB800075FE00283FF41DAF454A4FF44771DFE7CB
:10BB90008379002B7FF415AF404B13211888FFF7F2
:10BBA00067FE00283FF40DAF3D4A40F23D31CFE73C
:10BBB0003A4B00211888FFF77BFE00283FF401AFC5
:10BBC000374A4FF45171C3E78379002B3FF4F9AE44
:10BBD000022B7FF4F6AE364900898A8990420E46E0
:10BBE0007FF4EFAEA27B012A7FF4EBAE00220120AE
:10BBF000CDE904228DF81600208AADF81800274DF3
:10BC0000608AADF81A0004F114000790ADF80A201C
:10BC100001AF02AA098A28888DF81030ADF80830E3
:10BC20000397FFF739FEA84660B93846FFF765F875
:10BC300040B940F2FD1304A92888ADF81430FFF78D
:10BC40002FFEBEE6002304A9B8F80000ADF81430BA
:10BC5000FFF726FE014600287FF4B3AE182204A8A1
:10BC600001F00EFD237D144A8DF81030022B05964D
:10BC7000069231D0062B29D0012B29D1104B1A88DE
:10BC8000104B1A80637DD4F816200893012B09927B
:10BC90001ED10D4800F072FD1AE000BFAA59002025
:10BCA000FCDC0700BC70002076DD0700B8700020C7
:10BCB000827000205CD707007DBD0700F9B807003F
:10BCC000C0700020C270002048D70700637D089331
:10BCD00004A800F0B7FB74E6A27D637D43EA02236B
:10BCE000084A1380084A1380F2E700231A461946CF
:10BCF0008088FFF7C7FD00283FF463AE034A40F297
:10BD00006B3125E7C0700020C2700020FCDC07000A
:10BD1000154A38B51368044613F0010022D01349C0
:10BD20008C421ED0124908884FF6FF71884213D00A
:10BD300043F0040313211360FFF79AFD90B90D4DF2
:10BD4000C82445F001054FF47A40A847013CFAD1D8
:10BD5000BDE8384001F0FABA074B1878FFF784FDC8
:10BD6000F6E7002038BD00BFB870002048D70700B4
:10BD7000AA59002070DD0700A859002010B504461C
:10BD800086B01122002101A801F07AFC2378082B4B
:10BD90000BD1374A374913880988013B9BB213807E
:10BDA000D9B1D3B9032311802370627823788DF839
:10BDB00005306021012A8DF804108DF806200ED080
:10BDC0000B2A12D100F092F98DF80700002000F044
:10BDD00087F9042101A8FFF76FFD06B010BD062BFF
:10BDE00005D0082B29D0032B27D00321F2E7E168E7
:10BDF0008DF80710D4E90123080A8DF80800080C13
:10BE0000090E8DF80A10110A8DF80B208DF80C1010
:10BE1000110C120E8DF80E201A0A8DF80F308DF8C5
:10BE200010201A0C1B0E8DF80D108DF809008DF8DE
:10BE300011208DF812300F21CCE7D4E90123110A2B
:10BE40008DF807208DF80810110C120E8DF80A20BD
:10BE50001A0A8DF80B308DF80C201A0C1B0E8DF879
:10BE600009108DF80D208DF80E300B21B2E700BFC0
:10BE7000C2700020C07000202DE9F043444B95B003
:10BE800005464FF6FF721A8001204FF659632A4685
:10BE900002A98DF80A00ADF80830FFF7F9FC044656
:10BEA000002871D13B4B04AA03F11007164618680D
:10BEB0005968144603C40833BB422246F7D1A91C73
:10BEC0003046FFF7F3FC044600285DD101461C22F2
:10BED0000DA801F0D5FB9DF83430ADF8044043F0D7
:10BEE00004038DF834300223ADF80C30AB788DF8B4
:10BEF0000E3004F0F80343F003038DF80630F4230A
:10BF0000CDE90A44ADF82C302B4601AE4FF01109B3
:10BF100003AF33F8040B0C9408AA0DA98DF8059013
:10BF2000CDE90876FFF7B6FCA046044660BB0146A3
:10BF30001C220DA801F0A4FB9DF83430ADF804409C
:10BF400023F0180343F018038DF834300123ADF8C3
:10BF50000C30AB788DF80E301723CDE90A44ADF8DC
:10BF60002C302B4608F0E80848F0130833F80C0B87
:10BF70000C9408AA0DA98DF805908DF80680CDE9DE
:10BF80000876FFF787FC0446204615B0BDE8F0832D
:10BF9000AA590020E4DC070030B5334C236813F0C5
:10BFA000010585B05DD1314B18603148FCF7DCFBF1
:10BFB000029500F0B6F800284CD12E48FFF77AFC25
:10BFC000002847D101F084F9002843D102A801F0EC
:10BFD00053FA00283ED102A9012001F057FA0028A7
:10BFE00038D102A801F0BAFA002833D100F086FB5C
:10BFF00030B1214800F076FB236843F00203236050
:10C00000112302A88DF80430FFF728FC10BB9DF81F
:10C01000093002A801338DF80930FFF71DFCC8B9BB
:10C0200023689B0718D514498869043182B201A896
:10C03000FFF722FC70B91148FFF71CFC50B91048FB
:10C04000FFF71AFF30B9FFF75DFC18B9236843F01A
:10C050000103236005B030BD0A4801F044FB0949E3
:10C06000E4E70020F6E700BFB8700020BC700020B5
:10C070005CD70700008007001860002076DD07000D
:10C0800082700020F4DC070043690BB1C0681847D8
:10C09000704700000449054B0022904208BF194632
:10C0A0000348FCF7B6BB00BFECD70700C0D70700BA
:10C0B0006859002007B5009313460A460146034815
:10C0C000FCF7ABFB03B05DF804FB00BF6859002030
:10C0D00013460A4601460148FCF7A6BB68590020F2
:10C0E000014B18700B207047C4700020024B0022D7
:10C0F00018781A70704700BFC470002018DF7047AE
:10C1000030B585B0054610220C466846002101F086
:10C11000B7FAA408684601950294FFF7EFFF05B04F
:10C1200030BD1FB50023CDE90133039368460223D8
:10C130000093FFF7E3FF05B05DF804FB4FF00053F9
:10C140004FF480521A60002070470000014B062017
:10C150001B681847D07000200A2803D90B38C0B2DA
:10C16000FFF7BEBF7047000010B5044686B0002040
:10C17000FCF762FB014630B1164A18212046FCF755
:10C180003FF906B010BD1822684601F079FA042381
:10C190008DF80030104A114B116D1B68994211D176
:10C1A0000F4B186800F058FF8DF80100FFF7D4FF1F
:10C1B000D4E901138DF8010068469847094800F05A
:10C1C00055FADEE701238DF801306846D4E9011302
:10C1D0009847D6E769C10700D4770020C8700020CF
:10C1E000CC7000204DC10700F0B5044687B0162280
:10C1F00000210DF1020001F043FA23788DF80030A0
:10C2000001220C2B8DF8012000F210819A4012F4CB
:10C21000AD7F15D1510706D4D30440F10781844B7B
:10C2200007201B689847D4E90113684698479DF892
:10C230000130012B00F0EF807D4B05201B68E9E009
:10C24000062B7C4A01D0012B01D121691170117894
:10C25000012904D0022954D00023137096E0013B39
:10C26000072BE0D801A252F823F000BF8DC20700CF
:10C2700027C20700F7C20700CBC2070027C207008A
:10C28000F1C2070027C20700A5C20700684B0320C0
:10C290001B689847606900F0CFFCFFF75DFF8DF8E1
:10C2A0000100C0E7A18A206900F0DEFCFFF754FF1F
:10C2B000614B8DF80100DA6B1B6C0293E36801920D
:10C2C000002BB0D020699847ADE75C495C4800F08E
:10C2D00019FDFFF741FF01288DF80100A3D10020CF
:10C2E00000F0C4F900289ED00A238DF801309AE7A7
:10C2F0004FF400730393504BDA6B1B6C0192029363
:10C3000091E7013B072B8ED801A252F823F000BF22
:10C3100031C3070027C20700E7C30700F1C30700C6
:10C3200027C207001BC4070027C2070091C30700EC
:10C3300000F0BAFC08B90823D7E762690AB90323F9
:10C34000D3E7C2F30B0333B13B4B3C495B6D096848
:10C3500013448B42F3D1B2F5805F01D90423C4E7C3
:10C36000354B3649586D096815188D42E3D85A6423
:10C37000DA6C9A6418651863314B1B68002201213E
:10C380001844FFF7A5FE00283FF44DAF0523ACE7A6
:10C3900000F08AFC0028CED0274DA18AD5E91432BE
:10C3A0009B1A6A6C0B449342C9D8254B2E6B1B68B1
:10C3B000206905F148021E44FCF7F4F8E368A28AFC
:10C3C000216907463046FFF775FE08B1E36879E753
:10C3D000A38A2A6BAF641A442A632A6D0297134416
:10C3E0002B6501931FE7144B9A6C02921B6DF8E7C3
:10C3F000114BD3E91402596C821A8A429BD19A6C70
:10C400005865002120465964DA64FFF7ADFE084BF9
:10C410001B680420984707B0F0BD074B9A6C1B6D52
:10C4200001934FF4805302920393FCE602235CE7EE
:10C43000D0700020AC590020D4770020C8700020B4
:10C44000CC70002083681BB1024A1821FBF7D8BFCB
:10C4500007207047E9C1070038B50546C0B1012083
:10C46000FFF718FE044648B900F0D8FB00F01CFCAA
:10C4700030B9084B00201D60FFF732FE204638BD62
:10C480000549064800F03EFC0128F2D00324F5E7F8
:10C490000724F3E7D0700020C8700020CC70002083
:10C4A0002DE9F04115464FF46072064688461F4656
:10C4B00001F082F828B915B90020BDE8F081A8473D
:10C4C000FAE7002201213046FFF702FE70B94FF46F
:10C4D00060724146384601F0AAF82B464FF460726C
:10C4E00039463046FFF7E6FD0028E5D00320E4E7B3
:10C4F0002DE9F0413D4C236801335CD000225821E6
:10C50000201DFCF74FF8D4F80080A8EB0002D2F110
:10C51000000848EB0208364D364E2F683B68013361
:10C520005ED000225821381DFCF73CF83B6883425E
:10C5300044D17C68012C0AD00022C32107F5187071
:10C54000FCF730F8D7F85C42231A5C425C41B8F142
:10C55000000F35D04FF460722449264801F067F887
:10C5600064B1296824485422043101F060F8296834
:10C5700022484FF432725C3101F059F87468012C92
:10C580002CD11F49402201F5E47001F050F81D49FB
:10C590001C2201F5E47001F04AF81B4986F8A1421B
:10C5A0000023042201F2862086F8603286F8E23207
:10C5B00001F03DF810E04FF00008ACE70024C6E7BA
:10C5C00024B14FF4607229680A48D5E74FF46072CD
:10C5D0000021084801F054F802237360BDE8F0819F
:10C5E000B8F1000FF2D00024B4E700BF00F007005C
:10C5F000B0590020D4770020D87700203078002070
:10C600003079002070790020F077002070B50C4C54
:10C61000054600225821201DFBF7C4FF00222060A0
:10C62000C32104F51870FBF7BDFF2A46C4F85C026D
:10C630002146044B0448BDE87040FFF731BF00BFFE
:10C64000D4770020D470002000F007000246024892
:10C65000024B0068FFF724BFB0590020547400203B
:10C660000149FFF7F3BF00BF00F0070038B50546EA
:10C670000020FFF7CBFF044618B903492846FFF70F
:10C68000E5FF204638BD00BFD477002010B5FFF786
:10C6900001FD044628B9FFF72BFF2046FFF7E6FF10
:10C6A00000B1032010BD29DF7047000038B50C4DE4
:10C6B0000446D5F8643378B101330FD10022182134
:10C6C0000430FBF76FFF21462060072205F5597003
:10C6D000BDE83840FFF7E7BF0E2038BD0820FCE773
:10C6E00000F0070008B528B11C22034900F09FFFA5
:10C6F000002008BD0E20FCE764F3070010B5064CCF
:10C70000002218212046FBF74DFF54F8043C1B1A69
:10C710005842584110BD00BF68F3070010B50A4CDD
:10C72000D4F82433D4F864231340013309D04FF4F0
:10C73000FE20FDF75FF9C92221464FF4FE20FDF7E8
:10C7400087F9002010BD00BFD4770020F8B5094E4E
:10C75000094CA41B0746E4080025A54201D100208E
:10C76000F8BD56F83530384698470028F8D10135DD
:10C77000F3E700BF48D7070050D70700F8B5094EC8
:10C78000094CA41B0746E40800250436A54201D144
:10C790000020F8BD56F83530384698470028F8D1C3
:10C7A0000135F3E748D7070050D7070008B50C223A
:10C7B000002100F065FF024B00221A6308BD00BF94
:10C7C000D477002043F204031A68084B9A4201BF51
:10C7D00043F20803186800F6FF7020F47F600CBF76
:10C7E00020F00F004FF48050704700BFDBE5B151DF
:10C7F00008B5FFF7E7FF054B9B69184400F6FF708B
:10C8000020F47F6020F00F0008BD00BFD477002027
:10C810004FF48050704700002DE9F84F1F46224B1F
:10C82000DFF890A01E6A044615464FF0000843F258
:10C8300004095FFA88FBBBF1010F14D0BBF1020FB2
:10C840001DD0FFF7D5FF65B1721E53425341174A01
:10C85000101AA04200D3F1B1ABB1A0421BD2042008
:10C8600020E02B46F3E7FFF7ADFF37B9D9F80030EA
:10C87000B3EB0A0318BF0123E9E75B46E7E70123AF
:10C880004FF48050E3E708F10108B8F1030FD0D16D
:10C89000A042E4D302E0BBF1000F02D00448FFF74E
:10C8A00085FF0020BDE8F88FD477002000500700F6
:10C8B000EC770020DBE5B15190F8552012F0FB0F2A
:10C8C00007D190F8643023B1836ECBB10B600120A7
:10C8D000704712F0010303D090F8563003B1836D16
:10C8E0009207F2D590F85C20002AEED0054A006E3F
:10C8F000C2F5FC22904201D80344E6E704207047C9
:10C900000F2070470080070010B5084C4FF40072EC
:10C91000FF21204600F0B4FE20220021A4F12400D3
:10C9200000F0AEFE002344F82C3C10BD307800200F
:10C930005B68DA680D4B9A4230B508D10C490A6839
:10C9400012B90C4A14681CB10B4B00221A7030BD8E
:10C95000D0E901341C4413F9015B002DA4EB030062
:10C96000F9DB0B601060044B0122EFE7C0DB07002E
:10C970007C7B0020787B0020807B002043F2040336
:10C9800010B5194A1C68944201462BD042F20403A8
:10C99000C358981A434243419442184621D142F267
:10C9A0000403CB58A3421CD14FF4405301F500526D
:10C9B0001B781278142B81BF43F214030B481B68B9
:10C9C000B3FBF0F398BF0023142A89BF42F214028C
:10C9D00000208858054A88BFB0FBF2F0181A18BF2B
:10C9E000012010BD0023D7E7DBE5B15140420F0025
:10C9F0002DE9FF472F49304D8A6B304C304FDFF81F
:10CA0000D490DFF8D4A06E465C313046FCF776FC5B
:10CA100096E80F0085E80F0000212A4B39704FF48B
:10CA200047722046C9F80010CAF80010EB6000F009
:10CA300027FE224624492846FCF7FDFE20B90027A0
:10CA4000384604B0BDE8F0873F78002FF7D094F85F
:10CA50006C3194F800801BB3B8F1000FEFD194F85B
:10CA60007231002BEBD0DAF80020D9F800103046F4
:10CA7000FCF744FC96E80F0085E80F004FF4B27213
:10CA8000414604F5BA7000F0FBFD04F5BA720F4997
:10CA90002846FCF7D0FE0028D1D004F5BA7406E091
:10CAA000B8F1000FCBD0A379002BC8D00834084BC5
:10CAB0001C60C5E7D4770020A07E0020847B002086
:10CAC000807B002031C9070074DC0700C0DB070051
:10CAD0005C7F00207C7B0020787B002000B591B03B
:10CAE000FDF7A0F8684620220749FDF7CEF86A4610
:10CAF000402306490648FCF7EDFF064B01221A7059
:10CB000011B05DF804FB00BF40D90700B07E0020E3
:10CB10000CD90700547B0020F0B5A3B006460F46A1
:10CB200015461C4678222023002104A8029300F019
:10CB3000A7FD00230393194B1B780BB9FFF7CEFF1A
:10CB40002FB336BB02AB164E01930096289B1549B6
:10CB5000224604A8FDF74CF8E8B9402D1BD1124C31
:10CB60002A463946204600F062FD20212046FDF786
:10CB700098F8CDE90045029B0C49324603A8FCF722
:10CB8000C5FF00280CBF0120052023B0F0BD1320F5
:10CB9000FBE71620F9E70A20F7E700BF547B0020E7
:10CBA000F87E002018DB0700187F0020B07E0020F0
:10CBB000F0B5ABB004460E4617461D46782220233A
:10CBC00000210CA8039300F05BFD114B1B780BB9FF
:10CBD000FFF784FF2DB12146202204A8FDF74AF873
:10CBE00004AC03AB0B4D019300953B4632460A491A
:10CBF0000CA8FCF7FDFF48B920222146284600F08A
:10CC0000DBFCB0FA80F040092BB0F0BD0020FBE760
:10CC1000547B0020557B002018DB070008B5044B2F
:10CC2000986B08B1FFF7E4FE024B187008BD00BF17
:10CC3000D4770020587F002010B5044658B1B0F5D5
:10CC4000007F0AD8064B00221A70FFF75DFE054BE5
:10CC500001209C6310BD0320FCE70420FAE700BF1D
:10CC6000587F0020D477002070B50E4C0646E06B4C
:10CC7000A36B42189A420D4611D85C300A462044F4
:10CC8000314600F0D4FCE36B04F140022B4429460A
:10CC90003046E363FBF786FC2064012070BD03206F
:10CCA000FCE700BFD4770020014B1878704700BF25
:10CCB000587F002013B5104C94F86C21B2B194F851
:10CCC000D802B4F8DA2204F5377104F5B8740B4BC6
:10CCD0001B6800930A4B1B68FFF71EFF012809D150
:10CCE000201D02B0BDE8104000F0BAB91146104650
:10CCF0000434ECE702B010BD847B0020787B002078
:10CD00007C7B0020204BD3E90E329A422DE9F04182
:10CD100007460D4633D1DFF8788098F800604EB1B1
:10CD2000FFF766FD194B386029461868BDE8F041E9
:10CD3000FFF7C2BDFFF75CFE18B3FFF7BBFF01288A
:10CD40003E6004462E6017D1104B29461868FFF745
:10CD5000B3FD012804460FD1034632463146286808
:10CD6000FFF75AFD38B9FFF743FD88F800403860F7
:10CD70002046BDE8F0810424FFF7C6FDF8E708244B
:10CD8000F6E70524F4E700BFD47700205C7F00209D
:10CD9000587F002001237230FFF70ABF037837B5B0
:10CDA0000D461146032B03D8DFE803F022051019C6
:10CDB000002003B030BDD0F8014000222846FBF728
:10CDC000F1FB844214BF00200120F2E70A46002351
:10CDD0002946013003B0BDE83040FFF7E9BE0091BD
:10CDE0002B46411C40220020FFF796FE0128E9E770
:10CDF0000120DEE72DE9F041A2B004460D461746BA
:10CE000000217822984604A8202303939DF8A0606F
:10CE100000F036FC41220021204600F031FCB5F83C
:10CE200094300BB195F896602670032E1ED8DFE87B
:10CE300006F00902111F002241463846FBF7B2FBFB
:10CE4000C4F80100424639462046FFF7A7FF22B04A
:10CE5000BDE8F08103AB0193631C00933A4643465F
:10CE6000074904A8FCF7C4FE0028EBD00020EEE739
:10CE7000B5F8982005F19A01601C00F0D8FBE1E7B5
:10CE800018DB07002DE9F0476D4B1D68A4B0044680
:10CE90000F4690460A4601462846FFF77BFF0028CA
:10CEA00000F0CC8095F855601EBB4FF00109CDF81D
:10CEB00000903B462246294613A8FFF79BFF002817
:10CEC0007FD0B8F1000F6DD0412213A95D4800F06A
:10CED000AEFB5D4B6A68C3F82C901E629A6000221C
:10CEE00039462046FBF75EFB574B0125C3E9097025
:10CEF0009FE04122002102A800F0C2FB06F00109D8
:10CF00004122002113A806F0020600F0B9FBB9F196
:10CF1000000F4BD042F20403E15803F1A34303F5A1
:10CF2000471303F2D75399424BD1D5F858A00AF5CD
:10CF3000FF520AF6FF73C3F30B031F32D21A42F2F9
:10CF40000803E35893423CD343F204031B688B422B
:10CF500013D14FF440531B78102B8ABF43F21003B8
:10CF600000221A6804F500531B78102B8ABF42F286
:10CF700010030023E3589A4223D12046FFF7FEFC1A
:10CF800000B1F6B10123009322465346294602A878
:10CF9000FFF730FFA8B1AB6DE218FB1A4EB9B8F13C
:10CFA000000F18D1284B01255D6110E03B46224659
:10CFB000F4E70021009113A82946FFF71BFF002882
:10CFC000EDD10525B8F1000F30D1FFF79DFC2846C3
:10CFD00024B0BDE8F087DFF87080B9F1000F21D0F0
:10CFE0002046FFF7CBFC18B108F11800FFF7DEFB75
:10CFF000412202A9154800F01AFB002E14BFAC23F1
:10D00000A523C8F82C30AB6DC8F83430002E3FF49F
:10D0100066AF412213A90E4800F009FB6B68C8F8FF
:10D020000C305CE7AA23C8F82C30EFE70948FFF77B
:10D03000BDFBFFF769FC044B9C64C8E71725C1E7FB
:10D040005C7F0020757A0020D4770020347A00209D
:10D05000B67A0020F87700200122FFF713BF000006
:10D0600090F85430F0B5002B53D090F85530032B86
:10D070004FD890F86E20032A49D1027A002A48D06E
:10D08000C268342A47D143F20401028A0C6823495A
:10D090008C422CD152B14169F1B1D2B2002100F1E0
:10D0A000140543F20C06CCB2A24201D8122311E0BF
:10D0B00055F821703488A74201F10101F3D10278BB
:10D0C0000AB3012B4268164B17D89B689A4234BFAB
:10D0D000102301231846F0BD13B9012AE6D8EEE764
:10D0E00013F1FF3218BF0122002AE8D1DEE712B1A6
:10D0F0004269002ADAD10278F6E7DB689A428CBFEF
:10D1000001231023E6E7012B18BF0F23E2E71423C6
:10D11000E0E70F23DEE71123DCE700BFDBE5B151D9
:10D12000D477002038B1054B0360054B43600123E1
:10D130000372002070470E20704700BF6BD10700BC
:10D1400045D1070069B10B78022B0CD1022804D01D
:10D1500003280CBF11200820704703230B70002008
:10D1600070470E2070470820704710B50C4681B1FB
:10D170000B78042B04D8DFE803F00E05030E0E0035
:10D18000112010BDFFF792FA0028FAD10223237074
:10D19000F7E70E20F5E70820F3E7000070B5144B21
:10D1A000144A0C21D21AB2FBF1F2816911F8025C27
:10D1B000044635B900690021914205D1012323605D
:10D1C0000EE04FF0FF30F6E71E68AE420CD1461C71
:10D1D00007D19D68D4E90001D4E90223A847206063
:10D1E00070BD5E688642F4D001310C33E4E700BFC5
:10D1F00050D707005CD707001EF0040F0CBFEFF3F9
:10D200000880EFF30980FFF7C9BF00BF10DF704748
:10D2100011DF704713B5044609496846FBF730FD36
:10D22000019808B902B010BDD0E9003120469847F6
:10D2300018B16846FBF72EFDF2E71120F2E700BFB8
:10D2400084DD070013B5044607496846FBF718FD5F
:10D25000019B0BB902B010BD2046D3E900219047D5
:10D260006846FBF717FDF3E79CDD0700064B9A685D
:10D2700022B11A6822F480021A607047034B4FF4FF
:10D280008002C3F880207047C859002000E100E008
:10D290000C4991F816335A09EC231341DB0706D5E4
:10D2A000094B9A684AB94FF480030B607047074AEC
:10D2B000A12142F20200FCF731BD1A6842F480025B
:10D2C0001A60704700E100E0C8590020A8DD07009F
:10D2D000F7B5194F3C7864BB184E012520463570D0
:10D2E000FFF798FF112821D02046FFF7ABFF144B22
:10D2F0008DF80340186801900DF10300FBF718F951
:10D30000104901A8FFF782FF0446B0FA80F04009F7
:10D3100038709DF80300FBF72FF93CB90A4B3470C5
:10D320001C70FFF7B5FF2846FFF78CFF204603B0BF
:10D33000F0BD0824FAE700BF617F0020607F002075
:10D340007EDD0700239D0700627F0020F7B5154FA3
:10D350003B781BB3144E01203070FFF75BFF1128A0
:10D360004FF000051CD00220FFF76CFF0DF1070005
:10D370008DF80750FBF7DCF8FFF74AFF04469DF8ED
:10D3800007003D70FBF7F8F82CB93470FFF76EFF1B
:10D390000320FFF757FF204603B0F0BD0824FAE74B
:10D3A0002C46F8E7617F0020607F0020054B1B784A
:10D3B00033B1054B1B780BB1FFF7C8BFFFF788BF30
:10D3C00008207047607F0020617F0020014B1878A3
:10D3D000704700BF617F002007B508496846FBF72A
:10D3E0004FFC019B13B903B05DF804FBD3E90020A7
:10D3F00090476846FBF74EFCF3E700BF90DD07005F
:10D40000FFF7EABF60DF704769DF704761DF704791
:10D4100030B5134DADF5017D4FF4FA740DF10201F5
:10D4200003A8ADF80240FFF7F1FF70B9294601A843
:10D43000FBF726FC029B002BF0D003A8D3E90021C8
:10D44000904701A8FBF726FCF4E7052804D0054A1D
:10D4500040F23911FCF762FC0DF5017D30BD00BFD3
:10D4600060DE070002DE0700024B1B780BB1FFF7FE
:10D47000CFBF7047637F002018B1034B03600020CB
:10D4800070470E20704700BF68590020F0B507466E
:10D4900085B00D4600295DD02F4B0B600C2200217A
:10D4A00001A800F0EDF8012606232A68ADF808303F
:10D4B00001A920208DF804708DF80660FFF7A4FF05
:10D4C0000C22002101A800F0DBF800242A688DF866
:10D4D000056001A94020ADF80640FFF795FF0C223A
:10D4E000214601A800F0CCF8F7232A68ADF80630F1
:10D4F00001A923208DF80470FFF786FF0C22214636
:10D5000001A800F0BDF82A688DF8046001A9304632
:10D51000FFF77AFF0C22214601A800F0B1F84FF482
:10D52000B0632A68019301A9A120FFF76DFF0C22C7
:10D53000214601A800F0A4F89DF804302A6864F39D
:10D54000000301A9A0208DF80430FFF75DFF2046FD
:10D5500005B0F0BD0E20FBE76859002008B5FFF7C5
:10D5600051FF10B9014B01221A7008BD637F0020E2
:10D570004BDF70471FB50E4C01A8FFF7F9FF70B9DC
:10D58000214602A8FBF77CFB039B002BF4D00198FB
:10D59000D3E90021904702A8FBF77CFBF4E70528BC
:10D5A00003D0044A6B21FCF7B9FB04B010BD00BFE7
:10D5B000CCDE07006CDE0700002A36D070B41346BC
:10D5C0000F2A1AD940EA010212F0030F01D05A1EA5
:10D5D00015E004680A689442F9D1043B041D0A1D51
:10D5E000114620460434043206680D68AE42EED17E
:10D5F00020461146043B042BF2D85A1E10D0047862
:10D600000B789C420CD1431C4C1C0244184621460A
:10D61000934205D00133013406780D78AE42F5D03F
:10D6200000780B78C01A70BC7047002070478446A1
:10D6300040EA010313F0030F18D18446202A0BD3CC
:10D640002DE9F007B1E8F807A0E8F807A2F12002F9
:10D65000202AF7D2BDE8F007042A07D351F8043B8B
:10D6600040F8043BA2F10402042AF7D2002A05D0B4
:10D6700011F8013B00F8013B013AF9D160467047CF
:10D680008446002A2DD010F0030F04D000F8011BAF
:10D69000013A26D0F7E7C9B241EA012141EA014146
:10D6A000202A12D3A2F120022DE9F0030B460C46EA
:10D6B0000D460E460F4688468946A0E8FA03203AF2
:10D6C000FBD2BDE8F00320320BD0042A05D340F88A
:10D6D000041B043A05D0042AF9D200F8011B013AD0
:10D6E000FBD16046704700F1010110F0030F11D02B
:10D6F00010F8012B002A23D010F0030F0AD010F8E5
:10D70000012B002A1CD010F0030F03D010F8012BBE
:10D71000002A15D02DE970004FF001324FF0803310
:10D7200050F8044BA4EB020525EA04051D4000D186
:10D73000F6E7A0F1040070BC10F8012B002AFBD121
:06D74000A0EB01007047A0
:10D7480099BF070011BD070000000000030000009A
:10D7580025D10700346000207070002081700020FF
:10D768003C600020F4000000A1B9070000000000A0
:10D77800A58B07000000000069D407000000000026
:10D7880075D5070000000000E589070000000000CB
:10D79800018B0700000000000000000000000000EE
:10D7A80089C00700001000000000080000100000F9
:10D7B80004000000010000007D880700A188070020
:10D7C800B188070021890700C188070089880700F8
:10D7D8008D880700918807000010000004000000F1
:10D7E80001000000298A0700098A0700F989070053
:10D7F800318C0700E58B0700CD890700D189070028
:10D80800D5890700982F8A4291443771CFFBC0B55C
:10D81800A5DBB5E95BC25639F111F159A4823F92F3
:10D82800D55E1CAB98AA07D8015B8312BE8531244C
:10D83800C37D0C55745DBE72FEB1DE80A706DC9B0D
:10D8480074F19BC1C1699BE48647BEEFC69DC10FB9
:10D85800CCA10C246F2CE92DAA84744ADCA9B05CF5
:10D86800DA88F97652513E986DC631A8C82703B0B8
:10D87800C77F59BFF30BE0C64791A7D55163CA06C6
:10D8880067292914850AB72738211B2EFC6D2C4DD2
:10D89800130D385354730A65BB0A6A762EC9C281C0
:10D8A800852C7292A1E8BFA24B661AA8708B4BC256
:10D8B800A3516CC719E892D1240699D685350EF480
:10D8C80070A06A1016C1A419086C371E4C77482737
:10D8D800B5BCB034B30C1C394AAAD84E4FCA9C5BAD
:10D8E800F36F2E68EE828F746F63A5781478C884FE
:10D8F8000802C78CFAFFBE90EB6C50A4F7A3F9BEE0
:10D90800F27871C6480028000020400025AA0700C8
:10D91800D99307007D930700C19807003399070042
:10D9280053990700B99207007992070055980700A4
:10D93800000000001112131484D6BACEC3971CE855
:10D94800AA06451AAD11B2644E5383AB97EB11B1D9
:10D9580084D5D2F6421F0581BE69EB41BC2C73EA1F
:10D968007B3D01BE0E3EA1538E2F6D2EC37A35C569
:10D9780077129E3AD1BC34EA08200001FFFFFFFF6E
:10D98800FFFFFFFFFFFFFFFF000000000000000097
:10D998000000000001000000FFFFFFFF512563FCAD
:10D9A800C2CAB9F3849E17A7ADFAE6BCFFFFFFFF12
:10D9B800FFFFFFFF00000000FFFFFFFF96C298D89F
:10D9C8004539A1F4A033EB2D817D0377F240A463A0
:10D9D800E5E6BCF847422CE1F2D1176BF551BF37A9
:10D9E8006840B6CBCE5E316B5733CE2B169E0F7C7C
:10D9F8004AEBE78E9B7F1AFEE242E34F4B60D22749
:10DA08003E3CCE3BF6B053CCB0061D65BC8698763E
:10DA180055BDEBB3E7933AAAD835C65AFBA307001E
:10DA28004DA50700A9A50700433A5C6D73797333C8
:10DA3800325C686F6D655C414B41454D5C6E72664A
:10DA480035325C6E5246355F53444B5F31362E306B
:10DA58002E305F393861303865325C636F6D706FB6
:10DA68006E656E74735C6C69627261726965735C11
:10DA7800626F6F746C6F616465725C6E72665F6210
:10DA88006F6F746C6F616465722E6300433A5C6DEE
:10DA980073797333325C686F6D655C414B41454DFA
:10DAA8005C6E726635325C6E5246355F53444B5F2E
:10DAB80031362E302E305F393861303865325C634C
:10DAC8006F6D706F6E656E74735C6C696272617293
