:020000022000DC
:1060000000000120756302005D6302005F6302000F
:106010006163020063630200656302000000000028
:1060200000000000000000000000000067630200A4
:1060300069630200000000006B6302006D630200F0
:10604000A99C02006F630200B5A002005126030064
:106050006F6302006F6302006D9F0200F9A20200ED
:106060006F6302006F6302006F6302006F630200E0
:106070006F6302006F6302006F6302006F630200D0
:106080006F6302007D7102006F6302006F630200A4
:10609000197202006F6302009D2003006F6302000B
:1060A0006F6302006F6302006F6302006F630200A0
:1060B0006F6302006F630200000000000000000038
:1060C0006F6302006F6302006F6302006F63020080
:1060D00045A202006F6302006F630200000000002F
:1060E00000000000000000000000000000000000B0
:1060F00000000000000000000000000000000000A0
:10610000000000000000000000000000000000008F
:10611000000000000000000000000000000000007F
:10612000000000000000000000000000000000006F
:10613000000000000000000000000000000000005F
:10614000000000000000000000000000000000004F
:10615000000000000000000000000000000000003F
:10616000000000000000000000000000000000002F
:10617000000000000000000000000000000000001F
:10618000000000000000000000000000000000000F
:1061900000000000000000000000000000000000FF
:1061A00000000000000000000000000000000000EF
:1061B00000000000000000000000000000000000DF
:1061C00000000000000000000000000000000000CF
:1061D00000000000000000000000000000000000BF
:1061E00000000000000000000000000000000000AF
:1061F000000000000000000000000000000000009F
:10620000354936480A1A02D0072291438D4634494F
:1062100034480A1A06D00722914381F309880222E2
:1062200082F3148830483149314A00F044F831484B
:106230003149324A00F03FF831483249324A00F0E1
:106240003AF832483249334A00F035F83248334997
:10625000334A00F030F833483349344A00F02BF821
:1062600033483449344A00F026F83448344900228F
:1062700000F02CF833483449002200F027F8334866
:106280003349091A082902DB002202604160314AC1
:1062900090471F481F49884205D00268043003B464
:1062A000904703BCF7E700208646EC46002000211B
:1062B000294A9047FEE7884207D0521A05D0037852
:1062C00001300B700131013AF9D17047884202D098
:1062D00002700130FAE770470000012000E0002062
:1062E0000000012000000120747103005C290020DF
:1062F000B42F0020D0630200D06302009441030059
:10630000747103005C2900205C290020984303007D
:106310009843030098430300984303009843030005
:1063200098430300984303009843030073710300EC
:10633000CC770300B42F0020B42F0020B42F00200E
:10634000AC9E0020AC9E0020AC9E0020AC9E0020A5
:10635000ACBE00209D63020095B70200FEE7FEE799
:10636000FEE7FEE7FEE7FEE7FEE7FEE7FEE7FEE705
:1063700000F002B8FFF7FCBF0F484FF00701884359
:1063800085460E4880470E48016841F4700101605F
:10639000BFF34F8FBFF36F8FFFF732BF09480A4932
:1063A0000A4A884207D0521A05D0037801300B7090
:1063B0000131013AF9D1704700000120F596020041
:1063C00088ED00E084430300482900205C29002078
:1063D0007047000007B5044B0093044A402300F0C7
:1063E00032F803B05DF804FBF1630200B52F002022
:1063F0002DE9F84388461446B2B10F4B0F4E0325E2
:10640000002743F00109224608EB0701002006F0AF
:1064100063FC0744241A48B933782BB14FF47A400F
:10642000C847013D02D13570BDE8F88301233370C0
:10643000002CE8D1F8E700BFA0430300B42F0020F0
:10644000704706F079BCF0B595B01D461646084673
:106450000C4602F05BFF1A9B0D93CDE90865002501
:106460002B46082205A920460A958DF82C500C953C
:1064700002F068FF079B0293069B03939DF814307C
:106480008DF8115003F00302012A1DD1BDF814202C
:10649000059DC3F3C203C2F383168DF81030B2001A
:1064A00008230EA9204602F04DFFC5F3952508AB41
:1064B0000093324602AB0EA9284600F059FB204655
:1064C00002F028FF15B0F0BD022AF8D1BDF8165031
:1064D000C3F3C203C5F389158DF810300827082DC2
:1064E0002E4628BF08263B4632460EA9204602F01B
:1064F00029FFAD1B08AB02AA31460EA8374400F0B5
:106500009BFB002DEBD1DAE708B5FFF79AFF0448B3
:10651000042100F097FA034B01225A7108BD00BF15
:10652000744303005C290020037813F0040216D0A2
:1065300003F00303012B03D0022B09D00120704785
:106540000A6800880232C0F3831002440A60F5E74B
:106550000B684288023303EB92130B60EEE71046A0
:10656000704700002DE9F04FDFF81CA187B00F46FF
:1065700000230446861C0DF1070015468DF80730F0
:1065800001F04EF8DAF804203A60DAF8083003F542
:1065900080739B1A0AF21C470AF583690AF21448B1
:1065A000B3421AD30020002D69D004F00F039B01E1
:1065B00043F0050363F30F00DAF80430DAB2033274
:1065C00033444AF822009DF80700CAF8043001F06D
:1065D0004BF8012007B0BDE8F08F0121384602F0EA
:1065E00009F9484602F021F9404602F01EF9DAF8AE
:1065F00008000290C0B203300AEB800002A9FFF746
:1066000093FF029B30BBDAB20AEB8202D16803919E
:106610009A1C0133DBB20AEB83030292D3F80CB06D
:1066200001F00303012B22D0022B15D083464046F4
:1066300002F0FEF810B1029BCAF8083059463846FD
:1066400002F0D8F8DAF80830DAF8042003F580739D
:106650009B1AA5E7D8B2CEE7BDF80E30C3F3891375
:1066600003334FEA1B4B02EB93030293DFE7BDF8C2
:106670000C30C3F383134FEA1B4B1344F5E7A40517
:1066800044F0060098E700BFC8300020064B0748DA
:1066900010B500221A7002F0F2FD044610B9044849
:1066A00002F0F2FE204610BDC83000205C4203001C
:1066B000DC43030030B50A4C71B10A4A0A49121B87
:1066C000D20800239A4201D1002030BD31F8235076
:1066D000854202D00133F5E7034654F83300F4E76E
:1066E00084420300744303005C290020094B0139F4
:1066F00003EBC000032909D8DFE801F00A02040611
:106700000420704700797047407970470020704737
:106710000220704784420300034BD3E90130C31ABF
:1067200058425841704700BFC83000202DE9F04161
:1067300086B0FFF7F1FF0546002840F0ED80774C6A
:10674000C4F81804BFF34F8FA3680293DBB203337E
:1067500004EB830002A9FFF7E7FE029B18B1D4F80F
:106760001824002A5AD0DAB2991C013304EB8202B1
:10677000DBB204EB8303D268DB68049302F003030B
:10678000022B0392029154D1BDF80E306448C3F33A
:106790008917502F3E4628BF502606F1080166F3A0
:1067A0008F13C1F30901ADF80E3002F080FD0546EC
:1067B000002800F09C8002F0A9FD0023082203A914
:1067C000284602F0B5FD0299CB43DBB20133C9B2D2
:1067D0000331B6EB830F4FEA830204EB810125D925
:1067E0005FFA82F80823A6EB0806284602F0A0FD0F
:1067F000F6B208F108034B4903F0FC033246284681
:1068000002F096FD029B033703EB97070297D4F83B
:106810001834002B43D1D4F8106453E062689A42D4
:1068200094D8A260284606B0BDE8F081082332461D
:10683000E5E7012B5BD1BDF80C303948C3F3831178
:10684000062928BF062161F38913023101F00F01E7
:106850008900ADF80C3002F02AFD0546002846D02C
:1068600002F054FD0023082203A9284602F060FD2F
:106870000026BDF80C20C2F38312B300964203F148
:106880000803C4D202994A1CC9B20331029204EB34
:1068900081010422284602F04BFD0136E9E7284633
:1068A00002F038FDFFF738FF80F00100C5B2B9E70C
:1068B000F3685B7923B1336829461B6830469847F3
:1068C000F3681E68002EF3D1284602F023FD0DF177
:1068D00007008DF8076000F0A3FED4F818340BB958
:1068E000029BA3609DF8070000F0BEFEDAE7D4F833
:1068F000104454B90C4B0D480D49C01AC00800048F
:1069000040F0020000F05CF8CCE7236820469B686A
:106910009847E3681C68ECE7002583E7C83000204F
:106920005C420300D430002084420300C4420300D0
:10693000C44303002DE9F34704460E46924601A9DD
:10694000012218469946FFF70DFE1B4F10B3019D1B
:106950004FF00008AA1CC84508EB020123D11748D4
:10696000002101F000FF80F31000000440EA144011
:10697000E4006B1C04F03804DBB2EDB244F0010417
:1069800007EB8303033544EA881444EA8624D8607D
:1069900047F825403B781BB1FFF7C8FE0028FBD124
:1069A00002B0BDE8F087C9B207EB81015AF8283080
:1069B000CB6008F10108CEE7C8300020E4340020A5
:1069C00000231A46FFF7B6BF07B50123019201AABB
:1069D000FFF7B0FF03B05DF804FB07B5CDE9002376
:1069E00002236A46FFF7A6FF03B05DF804FB1FB55C
:1069F000CDE90123069B039301AA0323FFF79AFF26
:106A000005B05DF804FB1FB5CDE90023069B02939A
:106A1000079B03936A460423FFF78CFF05B05DF8DC
:106A200004FB7FB5CDE90123089B0393099B0493E5
:106A30000A9B059301AA0523FFF77CFF07B05DF8C9
:106A400004FB000030B50F4CD4F81024034600209E
:106A5000114631B9D96808714AB9C4F810340A60CE
:106A600030BDC9680D79854206D00968F1E7D26862
:106A700014680C601360F3E701300A28E8D14FF086
:106A8000FF30EDE7C830002038B5084B0125D3F8BA
:106A900010441D7004B938BDE3685D712368204659
:106AA0005B689847E3681C68F4E700BFC8300020C3
:106AB00030B5C38885B004460D4633B1144A009200
:106AC0001449154A284601F016FF217A05291DD0E0
:106AD000637A4BB1A088FFF709FE104B104953F8B9
:106AE0002020284601F007FF227A0E4BA08853F899
:106AF000222003920021FFF7DDFD039A0A49034695
:106B0000284605B0BDE8304001F0F5BE05B030BD07
:106B100008440300F0430300E84303007444030007
:106B2000AB600300984403000D44030007B503461F
:106B30000846197A052911D05B7A2BB1094A0A490E
:106B4000019001F0D8FE01980849019001F0D3FEB0
:106B5000019803B05DF804EB01F0C2BE002AF8D042
:106B6000F2E700BF08440300AB60030005440300E4
:106B70002DE9F04385B01F460C9D002395F80C903D
:106B80002B7306460C46904629463846FFF790FF81
:106B9000B8F1060F09D8DFE808F00412181F2833EF
:106BA00040003146284601F0A6FE0022294638461C
:106BB000FFF7BCFF85F80C9005B0BDE8F0832268B4
:106BC0003146284601F097FEEFE7D4E9002331462D
:106BD000284601F090FEE8E7A36800933146D4E927
:106BE0000023284601F087FEDFE7E3680193A368EE
:106BF00000933146D4E90023284601F07CFED4E717
:106C000023690293E3680193A36800933146D4E9B2
:106C10000023284601F06FFEC7E7636903932369E9
:106C20000293E3680193A36800933146D4E90023FB
:106C3000284601F060FEB8E708292DE9F74F8046A5
:106C40000E4617461C463CD8002593F80C901D7341
:106C500019461046FFF72CFFDFF888A0DFF888B050
:106C6000AE4231D918F805205946204601F043FEBE
:106C70000135082DF4D11949194DDFF870A02046CF
:106C800001F039FE4FF0000B5E4522D918F80B20B9
:106C90007E2A05D8104601920CF08AFC019A00B9B0
:106CA0002E225146204601F026FE0BF1010BBBF1CE
:106CB000080FE9D1012221463846FFF737FF84F853
:106CC0000C9003B0BDE8F08F5146204601F013FE52
:106CD000CEE72946204601F00EFEE6E721440300F8
:106CE0001F4403001D440300174403002344030012
:106CF000C30710B507D4F023054A4008145C2340AD
:106D00001943115410BD0901C9B20F23F4E700BFA4
:106D1000B035002030B5094B1C78094B19680023A9
:106D20009C4202DC0022104630BD11F833508542EF
:106D300001EBC302F7D00133F2E700BF803500203A
:106D4000C035002013B504460191FFF7E3FF38B1C9
:106D500043682BB10199204602B0BDE810401847A6
:106D600002B010BD034B044819680022490800F026
:106D7000F1BB00BF843500208835002010B5C0B2BB
:106D8000FFF7C8FF0446007803F0E6F863785A1E60
:106D900053425341834208D1044BD3E900231343A8
:106DA00003D1BDE81040FFF7DDBF10BDA8350020BE
:106DB00037B54308374AD35CC2074CBF1B0903F001
:106DC0000F0304460D46042B25D8DFE803F0032605
:106DD0002F3C4000F9B10121FFF78AFF00230DF19C
:106DE00007008DF8073000F01BFC0120A4F1200300
:106DF000C4F12001284A20FA01F100FA03F30B4301
:106E0000A040D2E9004120430B43C2E900039DF8B2
:106E1000070000F029FC03B030BD002918BF022193
:106E2000204603B0BDE83040FFF762BF49B10321FF
:106E3000FFF75EFF0121204603B0BDE83040FFF7B9
:106E400081BF0121ECE70029E5D10421E8E709B180
:106E50000321E5E7FFF74CFF29462046FFF772FFC5
:106E60000DF107008DF8075000F0DAFB0120A4F1C6
:106E70002003C4F12001084A20FA01F100FA03F3CB
:106E80000B43A040D2E9004124EA000021EA0303B9
:106E9000BBE700BFB0350020A83500202DE9F04148
:106EA000124E134F00243378A34208DC114BD3E970
:106EB0000023134318D0BDE8F041FFF753BF3D68EE
:106EC00005EBC40815F8340003F046F898F80130D3
:106ED0005A1E53425341181A4142414115F8340099
:106EE000FFF766FF0134DEE7BDE8F0818035002062
:106EF000C0350020A8350020092AF7B505460C4604
:106F000016463ED902F060FFE8B11F4B1F481D60D6
:106F10001F4B204F1C70204B002110221E600CF0D4
:106F200098FD1E4B00200021C3E90001013CE4B2A2
:106F30000326FF2C0DD11A4A1A48002103B0BDE8E0
:106F4000F04000F0F5BA02F001FF0028DDD003B0F8
:106F5000F0BD9DF8063015F834008DF8046005EB9F
:106F6000C40223F007038DF8063001A993788DF849
:106F700005303A4602F032FF013CE4B20028D8D096
:106F8000E5E70720E3E700BFC0350020B03500206B
:106F9000803500207D6D020084350020A83500205A
:106FA0009D6E0200B844030070B5084D084E0024E1
:106FB0002B789C4201D3002070BD3368012113F867
:106FC000340002F083FF0134F2E700BF8035002077
:106FD000C03500201FB50021039001AA44F2010032
:106FE000CDE9011100F004F805B05DF804FB0000E4
:106FF00038B572B6FFF748FDFFF798FB0028FBD1C4
:10700000104B114C114D1249E41AE408240444F0C9
:107010000100FFF7D5FCD5F8F030DB0700D500BE46
:107020000C4944F00200FFF7CBFCBFF34F8FEA6836
:10703000094B02F4E0621343EB60BFF34F8F00BFD4
:10704000FDE700BF84420300C442030000ED00E0FE
:10705000BC440300C84403000400FA054B1C30B5CF
:10706000DB00044612F003009BB20DD1074D2A60ED
:107070001A44074B1A60074B1870074B1870074BE0
:107080001C80074B198030BD0720FCE7CC35002061
:10709000C8350020C4350020D4350020D03500206C
:1070A000D2350020094B5A7899780132D2B29142F8
:1070B00008BF0022197891421FBF02705878182229
:1070C00002FB003014BF043000207047D835002088
:1070D00073B5054600240DF107000E468DF80740F4
:1070E00000F09EFA0DF10600FFF7DCFF90B106708C
:1070F000094B9DF8062045605A709DF8070000F086
:10710000B3FA24B9054B4FF48012C3F8002120468E
:1071100002B070BD0424F0E7D835002000E100E0A3
:10712000024B4FF43C6043F001031847E044030076
:1071300038B50E4B4FF40032C3F88020BFF34F8FA9
:10714000BFF36F8F0A4C4FF480330125C4F84833E6
:10715000C4F808336560FFF7E3FF064BA560002421
:107160001C60FFF7DDFF044B1C7038BD00E100E040
:1071700000100140F4360020E5360020F8B51F4B22
:107180001F491B680025C1F84051C1F84451C1F89E
:107190004851C1F84C51C1F80051C1F804514BB3EA
:1071A000D1F8044517490968641A24F07F442F4632
:1071B0001A68A24209D8A41A15441A7CDE691AB1C9
:1071C000D3E905201F749047AEB90F4A0F4B1178D1
:1071D0001B788B4205D10133DBB2022B08BF0023A1
:1071E000137012780A4B43F822500A4B4FF4801266
:1071F000C3F80021F8BD3346DAE700BFF8360020B7
:1072000000100140F4360020F1360020F036002056
:10721000E836002000E100E02DE9F04FA14AA24944
:1072200013780978A14D994285B03CD00133DBB287
:10723000022B08BF002313709D4912789D4B0F68E5
:1072400053F822003B1823F07F4300220B602B6889
:1072500016461446944613B942B12B6006E01968ED
:1072600081420ED902B12B60091A196001272B68DF
:10727000DFF848A201934FF00008BEB9DFF844B22E
:1072800060E0401A0C44D968D3F81CE0C3F800C091
:1072900031B13A1922F07F42C3E90121DE611E4675
:1072A00073460122D7E700263746E0E73446F66901
:1072B0007F4B60681B68DFF810C2A168C21A22F019
:1072C0007F42624500F2A6800A44226001222274B5
:1072D0002A680023C4E90133E361002A40F0A38057
:1072E0002C60CAE79BF802105A1CD2B291428BF86C
:1072F000002004BF00228BF80020182202FB03B3F9
:107300002A6819799C68022975D003297FD0012940
:1073100018D1207CB0B9D3E90312A2605A69E260A7
:107320009A69654BA2611A78002A18BF014661600C
:10733000BEE78C4200F094808946C9690029F8D1E3
:10734000002323749BF800309BF801209A42C9D196
:107350002B68B8F1000F04D1019A9A4201D1002F95
:1073600043D0002B79D0D3F800A0544D504BD5F822
:1073700004751C68DFF854813E1B98F8003026F035
:107380007F4603369BB94FF48033C5F84433C5F8C4
:1073900004334B4B4FF40032C3F880211A604FF096
:1073A0000109C5F80090FFF7BBFE88F80090B245D0
:1073B0002CBF5444A41924F07F44C5F84045D5F8A7
:1073C0000435DB1B23F07F43E41B033324F07F44AD
:1073D000A3420AD9D5F80435C5F84035FFF7A0FE19
:1073E000374B4FF40032C3F80021334B00221A70A0
:1073F00005B0BDE8F08F114691469FE71174D26940
:107400000123002AFAD1002B9CD02A609AE700239E
:107410001946F6E71B1A23F07F438B4234BFCB1A81
:107420000023236052E721681368994213D85B1A3E
:107430001360E26154E7091AD8691A4638B1034665
:1074400018688842F7D3401A18601846134621601E
:10745000E061DC6111E71346F2E7FFF769FEC4E77C
:107460004C4511D1D3692B6073B9DFF844E001209A
:10747000CDE90212CAF80800CEF800300E4B1870A1
:10748000FFF74EFEDDE902120B68C969C9F81C104E
:1074900011B1086803440B602B68934218BF4FF08A
:1074A00001084DE7F0360020F1360020F8360020C4
:1074B000F4360020E8360020E436002000100140B9
:1074C00000E100E0D8350020FEFF7F00E536002017
:1074D00008B5FFF72DFE104B00200B2218809A7084
:1074E0000E4B18600E4B18700E4B18700E4B4FF46D
:1074F0008012C021C3F8802183F814131A6002F1AE
:107500008042A2F56F22C2F8080583F81113074BD9
:10751000D2F804251A6008BDD8350020F8360020BE
:10752000F0360020F136002000E100E0F4360020C3
:10753000074B9B784BB132B128B10368187C20B956
:1075400059745A617047072070470820704700BF80
:10755000D83500202DE9F743DFF88C8098F8023009
:1075600005460E461746BBB3B0B31C4B4A1F9A42A2
:1075700030D8436983B3437C0024012B0DF107000D
:107580000CBF8946A1468DF8074000F049F80DF17F
:107590000600FFF787FDD8B101230370104B45604B
:1075A000D3F80435C0E90497C0E902369DF80630E7
:1075B00088F801309DF8070000F056F824B9094B0F
:1075C0004FF48012C3F80021204603B0BDE8F083D9
:1075D0000424EFE70724F7E70824F5E7FAFFFF00A4
:1075E0000010014000E100E0D8350020064A927802
:1075F0003AB130B1426922B1002202740221FFF790
:1076000067BD0820704700BFD8350020014BD3F874
:107610000405704700100140401A20F07F40704779
:1076200070B5EFF3108672B60C4A946801239CB9CA
:1076300093600B4B0B4DD3F8801029401160C3F8B9
:107640008050D3F8841051604FF0FF32C3F884208B
:10765000047006B962B670BD0370FAE7FC3600200C
:1076600000E100E0FC06FFBD084B9A6810B55AB176
:1076700050B9EFF3108172B6054A1C6814605C685B
:107680005460986001B962B610BD00BFFC3600209E
:1076900000E100E070B5064D0646002455F8043BB5
:1076A0000BB1304698470134042CF7D170BD00BFB0
:1076B000143700204388033300EB830399420BD334
:1076C00082884FF6FF739A4208D0038833B18068EE
:1076D000431C5842584170470220704701207047B0
:1076E000033080B240F2FE33984230B51FD8134BBE
:1076F0001A783AB91C895D892C440444A4B2B4F5C3
:10770000806F0AD91A7DAAB99A8BDC8B2244024475
:1077100092B2B2F5806F0DD801220A80144614226D
:1077200002FB04335A8910445881002030BD48F2CE
:107730000860FBE748F20660F8E700BF4837002022
:107740000B4A0C495388142000FB0311CB6833B952
:107750000420496810700122074801F059BB07490D
:107760000523137002238B80012209680023F3E7AD
:107770002C370020483700204829002010380020EE
:1077800007B5002305490093054A09680548082301
:1077900001F0A4FA03B05DF804FB00BF103800202C
:1077A000F44403004829002007B500230146009354
:1077B000034A0448082301F091FA03B05DF804FB82
:1077C000EC4403004829002013B500230C46009325
:1077D0000146084A0848042301F080FA38B9074BEB
:1077E000142101FB043101230B7402B010BD48F2D7
:1077F0000D60FAE7E84403004829002048370020DC
:1078000037B50A480A4B42689C8819685388032593
:10781000033305709BB2002000909B0001EB8401B4
:10782000044801F05BFA03B030BD00BF2C370020E4
:10783000103800204829002010B50146044800F007
:10784000C6FE1C22044600210CF003F9204610BDA0
:10785000FC37002068B10268084B9A4209D14068A1
:10786000074B984207D00133984214BF03200120F0
:107870007047032070470020704700BFDEC0ADDEB8
:10788000FE011EF12DE9F0410D460223154F2B801C
:10789000164600F5805100F108044FF001088C42B3
:1078A0000ED2236801330BD02046FFF703FF48B107
:1078B0000EB186F80080022809D14FF480632B8036
:1078C000BDE8F081A3683A68934200D93B602B88F9
:1078D0006288033313442B806388033304EB8304EF
:1078E000DDE700BF4037002038B5144B14220D46A9
:1078F00002FB00302B68446804F58051A3B15C881A
:10790000033403EB84048C4215D22368013312D074
:107910002046FFF7CFFE012808D002280BD0002810
:10792000F1D12C60012038BD0834ECE763880333C3
:1079300004EB8304E7E70020F5E700BF48370020A9
:10794000426873B504460D466AB3234BD9688A4230
:1079500029D31B699A4226D812F0030323D11F4969
:107960000089098988421ED12068916888421AD10D
:107970001B4841688A4203D901F580518A420DD3E0
:1079800081698A420CD901F580518A4208D20122CC
:107990002A80B3FA83F0400902B070BD1A46F7E7B7
:1079A00048F20963F5E700262E800196288801A990
:1079B000FFF79AFF30B92B8801339BB2012B2B8044
:1079C000F3D9E9E7019B226899689142EED163609F
:1079D000024B1B892381DFE7482900202C37002038
:1079E000483700202DE9F8431C461D4B1B780646FE
:1079F0000F46154673B382B37CB3DFF86C804FF04B
:107A00001409A388012B02D948F2096020E009FB80
:107A100003F318F803302BB9A0882146FFF764FF61
:107A200020B92060A3880133A380EAE723681EB150
:107A3000998832889142EFD11FB119883A889142D2
:107A4000EAD19A68C5E90023064B1B892B810020E7
:107A5000BDE8F88348F20160FAE748F20460F7E70E
:107A6000243700202C3700204837002008B5074B6A
:107A70005888191DFFF738FF18B1BDE80840FFF717
:107A8000BFBEBDE80840FFF75BBE00BF2C3700203B
:107A90002DE9F047A24FDFF8AC8288B006463B687C
:107AA00023B9A048414600F0CCFD38603D682978F4
:107AB0004B1E052B07D8DFE813F020007A007A0070
:107AC0000C010C01640148F20E641422002103A889
:107AD0000BF0BFFF41F61D539C4208BF00243B68DA
:107AE00004941A78023A042A00F20282DFE812F0C3
:107AF000E301EF011102190220022EB18A4B00228C
:107B00005A604FF40644E0E72B79032B1CD8DFE8DA
:107B100003F014022A35854A1378022B1AD0137DFC
:107B2000022B4FF0010317D114214B43D118002031
:107B3000D0544868FFF738FE03E001232B71FFF7AC
:107B40001FFE002800F0BF80774B00225A6048F2E9
:107B50000D64BAE70023E7E7734A1370002353600C
:107B600041F61D54B1E772497248002302222B717D
:107B70008A800968012201F04BF9E2E76C4C00268B
:107B80002E712068FFF710FE6B4BDFF8A0C15B88F9
:107B90002568142253430CEB03020CF80360516870
:107BA0005560A588158102222160A280C9E7B5F839
:107BB00014A0AA7DDFF87491AEB1022AEB8806D931
:107BC000142101FB0A91DA1C088902440A8114225B
:107BD00002FB0A99C3F57F43B9F80A20FD33134429
:107BE000A9F80A308DE7142303FB0A9318895C680F
:107BF00004EB8004062A69D8DFE802F0274E3644F9
:107C00001D5A040041F61D54AA7DEB88022A06D9AC
:107C1000142101FB0A91DA1C088902440A8114220A
:107C200002FB0A99C3F57F43B9F80A20FD331344D8
:107C3000A9F80A3049E74148414900234360AB694C
:107C40000360FFF77DFE00285BD00223AB750023A5
:107C500000930423EA182146364801F03FF8002833
:107C600031D048F20D64CFE72B69002B14BF0323FA
:107C70000123AB750023009305F10C02042304F1EA
:107C80000801E9E70123AB750022EB8800922A691D
:107C90009B0004F10C01DFE703290CBF0523062339
:107CA000AB7500230093042305F10802E118D3E724
:107CB0000623AB75224B1988204B5868FFF784FDCB
:107CC00004460028A0D108B0BDE8F08748F20E6451
:107CD0009AE7002E7FF415AF2B79012B34D0022BBD
:107CE0003FF43EAF002B7FF4EEAE02232B710DF17B
:107CF0000A01EB68039303A8CDE90466FFF720FEB1
:107D000010B948F20964E0E60498BDF80A108388C7
:107D1000EB8003882B81FFF757FD044627E000BF67
:107D200044370020FC37002024370020483700204B
:107D300010380020482900202C3700200837002068
:107D40001C3800203C3700207B4B03AA3146A81D7D
:107D5000FFF748FE784B044668B999880498FFF706
:107D600033FD044648F209639C423FF4F9AE002C0F
:107D70007FF4ABAEA7E70822314618460BF069FE48
:107D8000F0E7002E7FF4BDAE6C4B1A7BB2B11E73D0
:107D90001A78013A062A3FF696AE01A151F822F070
:107DA0004B7E0200717E02008F7E0200957E0200F3
:107DB000C77A02009B7E0200AD7E02001A78072A75
:107DC000E6D801A151F822F0E97D0200917D020080
:107DD000917D02000F7E0200237E0200477E02009A
:107DE000477E02000B7E02001A89554901321A8132
:107DF00000225A801A730A78B2FA82F252099A72F1
:107E00000A7DB2FA82F25209DA72012207E04D4984
:107E100058688A884088033202448A8002221A7095
:107E2000B6E75C88464A4749142505FB04220868E2
:107E3000546850608888108102200C60888000217E
:107E400011740622EBE70722E9E79A7A32B9DA7A67
:107E50008AB900221A705A805A6081E63849002295
:107E60009A72CA68002AF2D1097C0029EFD05A80A0
:107E7000FFF7FCFD51E70022DA72314A116A00294E
:107E8000E7D192F82420002AE3D00122EFE7FFF7A0
:107E9000B7FC42E7FFF754FC3FE75A88284B142110
:107EA00001FB02335868FFF77FFC36E700225A6077
:107EB000FFF766FC31E701228DF80C201A89ADF836
:107EC00018209A88DB68ADF81A20059310E002228A
:107ED0008DF80C201A89ADF818209A88ADF81A2070
:107EE000DA689B7D05929A1F534253418DF81C30EE
:107EF00003A8FFF7CFFB0026414613483E6000F081
:107F0000CBFB1248012100F081FC00287FF4C7ADB3
:107F1000D9E603228DF80C20DA88ADF818201A89EA
:107F2000D0E704228DF80C20DB88ADF81830DFE7AD
:107F300005238DF80C30DBE7203800202C3700209B
:107F40004837002010380020FC3700200C38002073
:107F50004068FFF79DBD000008B50548012100F00D
:107F60003DFC18B9BDE80840FFF792BD08BD00BF51
:107F70000C3800202DE9F3419846374B1B78064614
:107F80000D46002B5CD000295DD009884FF6FF73A9
:107F900099425BD06B88002B58D06B689B0758D1F7
:107FA0004AB92F890DF102013846FFF799FB30B12C
:107FB00002B0BDE8F08113885788ADF8023001A8FF
:107FC000FFF73AFC044660B9BDF80220234B1421A8
:107FD00001FB023358890338C01B588148F20760FF
:107FE000E6E780F8008000238375BDF802308382C5
:107FF0006B68036101211A4800F0FCFB2B88238188
:10800000B8F1030F6B88A38004BF0423A3754FF05E
:10801000000508BF3368E06008BFA3611148E7802E
:10802000658101A900F0FDFA36B1E36833600E4BBB
:1080300075601B89B5723381FFF78EFF0020B7E7AB
:1080400048F20160B4E748F20460B1E748F2036027
:10805000AEE748F20260ABE7243700204837002043
:1080600040370020FC3700202C37002008B503469D
:1080700007480268042A08D00168064A42F82130FD
:10808000012100F0B7FB002008BD48F20B60FBE7C0
:1080900018380020143700202DE9F04F89B0142241
:1080A000002103A80BF0D5FC7A4B1B7803F0FF0BE3
:1080B0003BB103A8FFF7EEFA0027384609B0BDE848
:1080C000F08F744B181D00F0ADFB0028F4D1DBF8E5
:1080D000F83FDFF8E0A15C1C08BF4FF010234FF021
:1080E000805208BF5B6911695269581C08BF02FBC6
:1080F00001F3CAF810306849A3F5405300225046F6
:10810000CAF80C3000F0B8FD07460028D5D11C2372
:1081100062496348DFF8A0918C2200F023FA032320
:10812000B8463D4601933C46DAF80C60464430467A
:10813000FFF790FB012862D0032817D000283DD11B
:1081400058494FF0140C0CFB04FC01EB0C0201F835
:108150000C0056600CF110020CF1080C0A44304679
:108160006144FFF78FFB45F0020545E03268531C80
:1081700002D04D4B9A4234D1321D06F58051106821
:1081800001302ED104329142F9D1D9F800203AB908
:108190000222C9F80060A9F804204FF0010B0BE09F
:1081A000142262433F4B0220991898543F4A4E6074
:1081B000548001340881A4B245F0010508F58058C7
:1081C000B8F5405FB0D1019B012B98BF0025EDB2FF
:1081D000022D03D0062D32D0002D39D148F20A6786
:1081E0006BE7019B2F495A1E93B2142262438818F1
:1081F00001934660032088540134A4B2DEE7BBF14A
:10820000000F0DD0274B1422624399180220985476
:10821000D9F800204A60254A088154800134A4B26C
:1082200000222349C9F800603046FFF72BFBB9F85C
:108230000420022A0CBF042208221543BEE7154A77
:108240000123137003A800235360FFF723FA34E7D8
:1082500002A8FFF7F1FAC8B10123013D03700A2D0E
:1082600009D8DFE805F006080608070807080F1117
:108270000F000023037102A9094800F0D2F9FFF7AB
:108280006BFE1AE70323F5E70223F3E748F20767DB
:1082900013E700BF24370020E846030070370020B2
:1082A000FC37002048370020DEC0ADDE2C37002030
:1082B00014380020482900201038002073B50D46DE
:1082C0000446C8B1C1B10DF10601FFF739FBB0B1E9
:1082D000BDF806300B486668142202FB030001213A
:1082E0000C3000F087FA63682E600C336B6001235A
:1082F000A372002002B070BD48F20460FAE748F2B1
:108300000960F7E74837002013B50446A8B10DF11E
:108310000601FFF715FB98B1BDF806200B4B1421A1
:1083200001FB0233DA6872B1A27A62B1DA68002026
:10833000013ADA60A07202B010BD48F20460FAE7B8
:1083400048F20960F7E748F20560F4E74837002093
:1083500002230022FFF70EBE18B103230022FFF70D
:1083600009BE48F204607047114B1B7813B50446F0
:10837000ABB14FF6FF73984214D001A8FFF75CFA37
:1083800098B10523037001230371C48001A9094832
:1083900000F047F9FFF7E0FD002002B010BD48F201
:1083A0000160FAE748F20360F7E748F20760F4E794
:1083B00024370020FC3700200F4B1B7807B5A3B1F2
:1083C00001A8FFF739FA98B10623037001A90B48F9
:1083D00000F027F90A4B1A780AB101221A73FFF745
:1083E000BBFD002003B05DF804FB48F20160F9E733
:1083F00048F20760F6E700BF24370020FC37002072
:108400002C37002007B5ADF80600ADF804100DF1CB
:10841000060001A9FFF7E6FA03B05DF804FB07B513
:108420001346ADF806000A4600200DF10601FFF7DD
:10843000D9FA03B05DF804FB07B51346ADF80600A2
:108440000A460DF106000021FFF7CCFA03B05DF8F3
:1084500004FB20B119B103680B600020704748F29B
:10846000046070472DE9F84F3C4B1B780446002B05
:108470006DD000286ED0DFF8E890122200210BF0BA
:10848000E8FA032323804FF0000A4F4614264FF0EA
:108490000108D9F80410B9F80AB0B9F8085008462C
:1084A000FFF7D8F9032808BF2388628804BF03F1C7
:1084B000FF33238006FB0A735D44DB68134463804B
:1084C00023899B446389A4F808B0ADB22B4463812F
:1084D000C5F58065A389ADB2AB4238BFA58101F176
:1084E000080501F58051A94229D92B68013326D00E
:1084F0002846FFF7DFF801280AD0022815D0002807
:10850000F1D1A3880133A3800AE04FF0010AC0E74C
:10851000E3880133E380E3896A8803331344E3810A
:108520006B88033305EB8305DDE7E38884F810806F
:108530004D1BE189013301EBA501E380E18109F1E4
:108540001409BAF1000FE0D00020BDE8F88F48F21E
:108550000160FAE748F20460F7E700BF2437002023
:108560004837002010B561B1B2FBF3F403FB1424CB
:10857000A4B244B9C0E9001484608281C38120465A
:1085800010BD0E20FCE70920FAE782B050E8022F68
:10859000C188B2EB324F4FF0000317BF92B241EAED
:1085A000014142EA014104E04268B2EB324F08BFA8
:1085B000012340E80212002AE8D18DF807309DF827
:1085C0000730002B0CBF1120002002B0704737B5D8
:1085D00050E8013F9DB2C48925448489A54228BF43
:1085E0002D1B0489A54202BFBFF32F8F002207E095
:1085F000C5EA030540E80154002CE9D14FF001021F
:108600008DF803200193019A0A609DF8031001F090
:10861000FF0321B1006810FA82F003B030BD1846A4
:10862000FBE70A884B889A4209D150E8012FC2EA39
:10863000024240E80123002BF7D1012070470020BF
:10864000704737B550E8023F1FFAA3F5C488A5422A
:1086500002BFBFF32F8F00220DE0C4892544848917
:10866000A54228BF2D1BC3EA054540E80254002C53
:10867000E8D14FF001028DF803200193019A0A60BE
:108680009DF8031001F0FF0321B1006800EB1240D8
:1086900003B030BD1846FBE70A884B889A4209D1DF
:1086A00050E8022FC2EA224240E80223002BF7D111
:1086B000012070470020704701F01F024B09012183
:1086C000914000EB830000F065B84B0910B501F054
:1086D0001F040121A14000EB830000F04FF8E040AF
:1086E00000F0010010BD01F01F0301229A404B0968
:1086F00000EB8300D14300F065B84B0901F01F0186
:1087000050F82300C84000F0010070472DE9F04701
:108710004F1E7F0980460E460137002558F8254038
:1087200008EB8509E44394FAA4F4B4FA84F44FEA1C
:10873000451A202C06D10135AF42EFD834462046E9
:10874000BDE8F0875444A642F5D921464046FFF7DC
:10875000BCFF0028F3D0D9F80040E44394FAA4F415
:10876000B4FA84F4E5E710B5034653E8000F0A466F
:1087700043E8002494F0000FF7D110BD10B5034674
:1087800053E8000F40EA010243E8002494F0000F90
:10879000F6D110BD10B5034653E8002F42EA0100A0
:1087A00043E8000494F0000FF6D110BD10B5034665
:1087B00053E8000F00EA010243E8002494F0000FA0
:1087C000F6D110BD10B5034653E8002F02EA0100B0
:1087D00043E8000494F0000FF6D110BD10B5034635
:1087E00053E8000F00EB010243E8002494F0000F6F
:1087F000F6D110BD10B5034653E8002F02EB01007F
:1088000043E8000494F0000FF6D110BD10B5034604
:1088100053E8002FA2EB010043E8000494F0000F9E
:10882000F6D110BD0121FFF7A9BF0121FFF7B2BFAB
:108830000021FFF7BBBF10B590B1D0E9012301685B
:108840009B1ADBB20A60013BDBB2FF2B026802D14C
:108850000020107110BD11684C1C14600B70F2E701
:108860000E20F7E737B5054600240DF107008DF817
:108870000740FEF7D5FE2A686B68116899420ED949
:10888000481E106011F8013CEC68298A01FB034482
:10889000AB6811791B1ADBB2994238BF13719DF88E
:1088A0000700FEF7E1FE204603B030BD37B50546B0
:1088B00000230DF107000C468DF80730FEF7B0FEDF
:1088C0002A681368591C1160E968641A298AB4FB84
:1088D000F1F41C709DF80700FEF7C6FE03B030BD32
:1088E000826810B504462AB1436901680069984757
:1088F0000023A36010BD0EB403B5039921B104ABEE
:1089000001AA019300F06EF802B05DF804EB03B029
:108910007047826830B40468551C8560A154D0E962
:1089200001329A4202D330BCFFF7DABF30BC704745
:108930002DE9F84F9846DDE90A43154682460F4671
:108940000A464FF00109AA420FD2C14538BFC146BD
:1089500013F0010B01D16CB900240126B8F1010F0D
:108960001BD908F1FF386E43F8E709F10109B2FBA2
:10897000F5F2E8E79B070ED5B8F1000F0CBF3026E3
:108980002026A145E9D2013C31465046FFF7C1FF00
:10899000002CF6D1E0E72026F3E7B7FBF6F39D4283
:1089A000E1D9DFF83C80B7FBF6F3504618F8031026
:1089B00006FB1377FFF7ADFF3346AB42B6FBF5F688
:1089C000F1D2BBF1000F02D00CB1A14501D3BDE83B
:1089D000F88F20215046013CFFF79BFFF4E700BFD2
:1089E000FC4403002DE9F74F054617468846002949
:1089F00000F03E8118F8011B49B92B7B002B00F0D9
:108A00003781284603B0BDE8F04FFFF769BF25293D
:108A100040F0B780002698F800302D2B424608F130
:108A2000010823D0302B24D02B2B25D000242A2B37
:108A300002F1010123D13B681A1D1B683A601C44F6
:108A40000A4613782E2B26D101324FF0000A104629
:108A500010F8011BA1F1300CBCF1090F1DD80A233D
:108A600003FB0A13A3F1300A0246F0E746F00106C1
:108A7000D1E746F00206CEE746F00406CBE711F850
:108A8000013CA3F130000928DBD80A2202FB0434A0
:108A9000303C0A46CBE74FF0000A12F8011B01F008
:108AA000FB0068289046F8D0782909D86F290CD89F
:108AB000632962D022D8252963D0582900F0888004
:108AC00098F80030002B95D197E770390829F7D82E
:108AD00001A353F821F000BF4B8C0200C18A0200B1
:108AE000C18A0200E18B0200C18A0200BF8B020032
:108AF000C18A0200C18A0200D18B0200642901D020
:108B00006929DDD13A68D2F80090111D89EAE9722D
:108B10003960A2EBE9724FF0010B092A35DCD3452D
:108B200038BFD3462CB1B9F1000F01DB720700D575
:108B3000013CB30702D5BAF1000F03D0F00701D40E
:108B40004CBB0024B9F1000F2DDAC9F100092D2129
:108B50002846FFF7DEFE06F00302022A04D1BAF12E
:108B6000000F01D11CBB0024CDE9004653460A2268
:108B700049462846FFF7DCFEA2E73B681A1D197834
:108B80003A602846FFF7C5FE9AE70A230BF1010B6E
:108B9000B2FBF3F2C1E7A345D4D220212846013C21
:108BA000FFF7B7FECCE77107D5D52B21D0E7A3455A
:108BB000DAD230212846013CFFF7ABFED2E7396814
:108BC000CDE900460A1D3A6053460A220968D0E7FB
:108BD00039680A1D3A60CDE9004653461022F5E790
:108BE0003B681A1D3A6016F00106D3F8009024D1B4
:108BF000B9F1000F03D048460AF080FF0646B442A0
:108C00001DD809F1FF3919F8011F00293FF458AFA9
:108C10002846FFF77EFEF6E728460136FFF779FE85
:108C200019F806100029F7D1A642BFF449AF202158
:108C30002846013CFFF76DFEF6E70026F0E720210D
:108C40002846013CFFF765FED9E73B681A1D3A60EC
:108C5000302128461C68FFF75CFE78212846FFF784
:108C600058FE00220823CDE900322146102280E779
:108C700003B0BDE8F08F00BF13B50B46114680B9B5
:108C8000104B1148114AC01A0E23C0080093104B14
:108C90000004104940F00100FDF7A9FE0E2002B0CB
:108CA00010BD4BB9074B08480B4AC01AC0080E2329
:108CB00000930004064BECE703601B6802B0BDE8BC
:108CC0001040184784420300044303000C4503008E
:108CD000C846030011450300404503002DE9F74352
:108CE000DDF8288088B93E4B3E483F4AC01AC0088C
:108CF0000E243E4B009400043D4940F00100FDF776
:108D000076FE204603B0BDE8F0834AB9344B3548BF
:108D1000384AC01AC0080E24344B00940004EBE714
:108D2000D0F800E0BEF1000F09D12D4B2D48324A9A
:108D3000C01AC00808242D4B00940004DCE74BB98E
:108D4000274B28482D4AC01AC0080924274B0094F5
:108D50000004D1E74568D5F80490B3FBF9F509FBA9
:108D600015354DB11E4B1F48254AC01AC0080924AD
:108D70001E4B00940004BFE78D0709D0184B19481B
:108D8000204AC01AC0081024184B00940004B3E70E
:108D900012F0030F09D0124B12481B4AC01AC00828
:108DA0001024124B00940004A6E7C568A9420DD315
:108DB0004D1EEC180569AC4208D8CDF82880DEF8C5
:108DC0000C40A44603B0BDE8F0436047044B05489F
:108DD0000E4AC01AC0081024044B009400048BE70C
:108DE00084420300044303000C450300B54603001E
:108DF000114503008E4503003A4503004D4503002D
:108E000094450300BE450300D6450300F945030021
:108E1000F7B580B92A4B2B482B4AC01AC0080E243C
:108E20002A4B009400042A4940F00100FDF7DFFDC1
:108E3000204603B0F0BDD0F800C0BCF1000F09D14E
:108E40001F4B2048234AC01AC00808241F4B009417
:108E50000004E8E74AB91A4B1A481F4AC01AC0086A
:108E600009241A4B00940004DDE74568D5F800E0BA
:108E70000EF1FF350D4209D0114B1248174AC01AA6
:108E8000C0081024114B00940004CCE7C568A94227
:108E90000CD34D1E0EFB02540569AC4206D8DCF81B
:108EA0001040A44603B0BDE8F0406047044B0548BD
:108EB0000B4AC01AC0081024044B00940004B2E707
:108EC00084420300044303000C450300A246030050
:108ED000114503003A4503004D45030020460300B9
:108EE0004646030029DF704728DF704770B50368E6
:108EF0009E6886B004460D466EB114220021684675
:108F00000AF0A7FDA3680593237901952BB1012BE6
:108F10000DD06846B04706B070BD01238DF8003013
:108F200023690293E368039363690493F1E70223DF
:108F30008DF80030E3681B030293F5E7084670479D
:108F400000207047024B187A003818BF0120704784
:108F5000C4380020034B187A0122B0FA80F05A740A
:108F600040097047C438002008B510461A460AF078
:108F700047FD002008BD000008B514220021044868
:108F80000AF067FD0348FFF700FB002008BD00BFA3
:108F9000C4380020B438002010B5094C094B436098
:108FA0002046FFF73FFC40B909F05EF806492074FF
:108FB0001C2306488C22FFF7D5FA002010BD00BF05
:108FC000C4380020DC46030028380020B4380020D4
:108FD00038B5234D234C2B7A3BB923492348FFF75F
:108FE00030FB206008B9686038BD022324682B720A
:108FF000237973B1012B24D020460321FFF776FF9C
:1090000000232B726B6018491848BDE83840FFF701
:1090100043BBD4E90523D21AB2F5805FD4E903102B
:1090200028BF4FF480529208012A38BF0122194408
:109030001844FFF757FF50B11128DDD101232B72DF
:10904000D2E7D4E903031844FFF74EFFF3E72B7C84
:10905000002BC9D1BDE83840022000F009B800BF9C
:10906000C4380020DC380020D8380020B438002074
:1090700038B5234C237A002B41D0022B09D1032889
:1090800030D0204B00221B68E2601A793AB1012AE5
:1090900022D0637C7BBBBDE83840FFF799BFD3E9A2
:1090A00005128D1AB5F5805F94BF521902F58052F2
:1090B0009A619142EDD102284FF0000308BF194692
:1090C0002372104B18BF0D211868FFF70FFF0E49D0
:1090D0000E48FFF7E1FADCE71A6901321A615B69B1
:1090E0009A42E7E7E3680133082B01D8E360D0E751
:1090F0000023E360DFE7BDE8384008F0A5BF38BDD6
:10910000C4380020DC380020D8380020B4380020D3
:10911000831E012B01D8FFF7ABBF704700F0FD03A2
:10912000012B08D1044B00225A74421E5042504178
:109130001874FFF74DBF7047C438002010B5064CB7
:10914000201DFFF76FFB28B9637C1BB9BDE81040F9
:10915000FFF73EBF10BD00BFC43800202DE9F3412A
:1091600080460D460F4801A916461F46FFF72FFA05
:109170000446A8B11C2200210AF06BFC2D0B012330
:10918000237101A90748C4F80080A760E560666103
:10919000FFF747FAFFF7D2FF002002B0BDE8F081E9
:1091A0000420FAE7B43800202DE9F74381468846C9
:1091B000104801A917461E46FFF709FA0446B0B148
:1091C0001C2200210AF045FC00250A9BA36001A98E
:1091D000C4E9037807482571C4F800906661FFF779
:1091E00020FAFFF7ABFF284603B0BDE8F083042068
:1091F000FAE700BFB43800202DE9F84FB0F806A018
:109200004579D2F800B09DF828900AFB05F5043D99
:1092100088460BEB0301A94203F1040488BFA5EBC8
:10922000030BB4FBFAF607460AFB1644C2F800B07B
:109230004EB9AAEB04055D4528BF5D46BBF1000FA2
:1092400004D1BDE8F88F3F68013EF1E7043408EB34
:1092500006003C442A46B9F1000F0DD02146ABEB85
:10926000050B0AF0CDFBDA452E443F6855464FF01A
:10927000000428BF5D46E1E701462046EFE7FFF71F
:10928000DABAF8B546790146721E054600239342C4
:109290002D6803D30024A64202D8F8BD0133F6E7B7
:1092A0000F682846FFF702FB01343946F3E72DE942
:1092B000F843068ACD1C0746FFF7D4FA043E35442E
:1092C0000446B5FBF6F5F0B14FF48073EDB2838040
:1092D000C680013D076081464FF00008A84512D2C4
:1092E0003846FFF7BFFA064648B163790133637128
:1092F00008F10108C9F8000007608146EEE7204642
:10930000FFF7BFFF34462046BDE8F8830121043053
:10931000FFF770BA10B5012104460430FFF776FA62
:10932000C0B220B92046BDE81040FFF7AABF10BD6B
:109330001FB503920022009203AAFFF75DFF05B05C
:109340005DF804FB1FB503920122009203AAFFF708
:1093500053FF05B05DF804FB33DF704741DF704712
:10936000064B10B500241C70054B1C60BFF35F8FCB
:109370000449054800F091F8204610BDE938002066
:10938000EC38002014470300E038002007B5002324
:109390000DF107008DF80730FEF742F9F1EE103AB3
:1093A00023F09F03E1EE103ABFF35F8F0A4B402298
:1093B000C3F884219DF80700FEF756F908F054FE23
:1093C00020B103B05DF804EBFFF7C8BF20BF40BF7A
:1093D00020BF03B05DF804FB00E100E070B5244D50
:1093E000044601212846FFF7BEF9BFF35F8F38B965
:1093F000042C0AD01F4B1A781AB1BFF35F8F286074
:1094000070BD1D4A147001221A701C4C1A4E6368FC
:10941000BBB9FDF739FBFDF789F90028FBD1164BE5
:109420001B78023B012B15D8BFF34F8F1449154B06
:10943000CA6802F4E0621343CB60BFF34F8F00BFF2
:10944000FDE71B68307898470028D6D0204600F00A
:109450002EF8DCE708F008FE08B1FFF77DFF4FF0BB
:1094600080430122C3F80025BFF34F8F20BFFDE7E3
:10947000EC380020E9380020E8380020E0380020EF
:1094800000ED00E00400FA05836800225A60C3E999
:1094900004229A60DA601A6070470B684A68436079
:1094A000934208BF0023016008BF436070474368D0
:1094B00043B10268916852680B449342436004BF11
:1094C000002343607047000010B50D49A1F5947268
:1094D000914201D800200FE08C1AE30F03EBE40364
:1094E0005B1002EBC30452F83330834205D802D23A
:1094F00004F10802ECE7606810BD2146E8E700BF10
:10950000184C030008B5FFF7DFFF024B002808BF27
:10951000184608BDDA4A030002681368526893428D
:1095200091BFD01A80680130801888BFC01A704778
:10953000036881681A685B688B4234BF013300237B
:10954000D31A58425841704773B5002304460DF1B1
:1095500007000D468DF80730FEF762F82046FFF74A
:10956000E7FF10B1237C002B3BD12368A1685E6824
:109570005A688A4234BF013200225A6028B11A6800
:109580008A4234BF013200221A60E2686368511EC9
:10959000072920D8DFE801F004101F141F1F1F182F
:1095A0002A789A552046FFF7B7FF23689A688242C7
:1095B00000D29860002415E02A8823F81620F1E7ED
:1095C0002A6843F82620EDE7D5E9000103EBC6033E
:1095D000C3E90001E6E7294602FB06300AF010FA6B
:1095E000E0E704249DF80700FEF73EF8204602B0AD
:1095F00070BD036818685B68C31A584258417047C9
:1096000073B5002305460DF107000C4616468DF88C
:109610000730FEF705F82846FFF7EBFF002832D1A8
:109620002B6819682EB91A68A868824238BF561C80
:109630001E60EA686B68501E07281ED8DFE800F03D
:10964000040E1D121D1D1D165B5C237000249DF869
:109650000700FEF709F8204602B070BD33F811305C
:109660002380F3E753F821302360EFE703EBC103D6
:10967000D3E90023C4E90023E8E701FB02312046D7
:109680000AF0BEF9E2E70524E1E70000BFF34F8FDF
:109690000549064BCA6802F4E0621343CB60BFF38E
:1096A0004F8F00BFFDE700BF00ED00E00400FA05AA
:1096B0004FF08053D3F83001421C04BF4FF0704389
:1096C00093F8E00F831F5842584170474FF07043A2
:1096D00093F8E02F062A09D1D3F8E83FC3F3031328
:1096E000033B032B02D8024AD05C7047002070472E
:1096F000204C030008B5FFF7DBFF40B14FF080536B
:109700009A4AD3F82433C3F30423C2F84035FFF751
:10971000DDFF10B1964B974A5A67FFF7C9FF48B172
:109720004FF080534FF08042D3F84432C3F34233BA
:10973000C2F83C35FFF7CAFF30B18F4AD2F8FC308F
:1097400023F08073C2F8FC30FFF7B2FF40B14FF056
:1097500080430022C3F80C21C3F81021C3F8382538
:10976000FFF7B4FF20B14FF080430322C3F8A025D8
:10977000FFF7ACFF60B1814B0522C3F81026012230
:10978000C3F888260022C3F818263F22C3F81426FF
:109790004FF08053D3F83021501C09BF4FF0704375
:1097A000D3F8343193F8E02FD3F8E83F08BFC3F380
:1097B0000313062A4DD1033B032B03D8704AD35C15
:1097C000002B46D04FF080526E4BD2F80414C3F8F1
:1097D0002015D2F80814C3F82415D2F80C14C3F8D5
:1097E0002815D2F81014C3F82C15D2F81414C3F8A5
:1097F0003015D2F81814C3F83415D2F81C14C3F875
:109800004015D2F82014C3F84415D2F82414C3F834
:109810004815D2F82814C3F84C15D2F82C14C3F804
:109820005015D2F83014C3F85415D2F83414C3F8D4
:109830006015D2F83814C3F86415D2F83C14C3F894
:109840006815D2F84014C3F86C15D2F84424C3F854
:109850007025FFF72DFF48B14FF080534FF0804245
:10986000D3F8583203F04F03C2F8E43EFFF720FF6D
:1098700048B14FF08043D3F80024D10744BF6FF0C4
:109880000102C3F800244FF08053D3F83021062A98
:109890000ED1D3F83431033B032B02D83A4AD35CC0
:1098A00033B13A4AD2F83C3743F48063C2F83C37CC
:1098B000314AD2F8883043F47003C2F88830BFF3DD
:1098C0004F8FBFF36F8F4FF01023D3F80C22D207C6
:1098D0001DD52F4B0122C3F80425D3F80024002AFC
:1098E000FBD04FF01022D2F80C3223F00103C2F863
:1098F0000C32274BD3F80024002AFBD00022C3F8F7
:109900000425D3F80024002AFBD0FFF7BFFED3F8CC
:109910000022002A03DBD3F80432002B22DA1C4B8E
:109920000122C3F80425D3F80024002AFBD04FF00D
:1099300010221521C2F80012D3F80024002AFBD00F
:109940004FF010231522C3F80422114BD3F8002442
:10995000002AFBD00022C3F80425D3F80024002AF3
:10996000FBD0D2E70B4B0C4A1A6008BD0030014017
:1099700000C007400DF0ADBA00ED00E0005000401F
:10998000184C030000C000401C4C030000100040B5
:1099900000E00140642900200090D0034FF0A04374
:1099A000D3F80405C0F3806070474FF0A0434FF038
:1099B0008062C3F8082570474FF0A0434FF08062E3
:1099C000C3F80C2570474FF0A0434FF08062C3F8F6
:1099D0000C2570474FF0A0434FF08062C3F8082574
:1099E00070474FF0A042D2F80435D94301F08061AE
:1099F00003F08063C2F80815C2F80C3570471928C7
:109A000005D009280CBF01204FF0FF30704700201F
:109A10007047C20708B506D54FF0A0430322C3F82C
:109A20006827FFF7D0FF830741BF4FF0A0430C2208
:109A3000C3F86427C3F8242708BD000038B5074CD5
:109A4000051E04F1080318BF1C4623682BB11A68D1
:109A500022605B6828469847F7E738BDF838002051
:109A600020B9054B01225A70FFF7E8BF012802D147
:109A7000014A9070F8E77047F038002020B9034B96
:109A800001225A70FFF7DABF704700BFF03800209C
:109A900038B50E4C2378B3B90D486360A3602361D9
:109AA000E36000F0A9F8054608F0DEFA08B900F016
:109AB000AFF801232370074BD3F800340BB1012317
:109AC000A370284638BD8525F5E700BFF038002093
:109AD000619A02000000014037B5184CA378054692
:109AE00003F0FF029BB110B14368012098470023A7
:109AF0000DF107008DF80730FDF792FDE3689DF842
:109B000007000133E360FDF7AFFD03B030BD0DF199
:109B100007008DF80720FDF783FD25B12269134664
:109B20003BB92A602561E368002BE7D100F082F899
:109B3000E4E79D42F7D01B68F2E700BFF038002051
:109B400037B50D4C00230DF107008DF80730FDF7F8
:109B500067FDE368013BE360E36833B9074BD3F883
:109B6000005415B900F08EF8A5709DF80700FDF7B8
:109B70007BFD03B030BD00BFF03800200000014085
:109B8000012813B50CD0032820D038B9134B01227B
:109B9000C3F88020BFF34F8FBFF36F8F02B010BDAB
:109BA0000F4C00230DF107008DF80730FDF738FD4D
:109BB00023780BB9FFF76CFFE3689DF807000133CA
:109BC000E3600123A370FDF74FFDE7E700F020F805
:109BD00002B0BDE81040FFF7B3BF00BF00E100E0F6
:109BE000F038002000F18040002382B00360036859
:109BF0000193019B02B07047044A137923B90121F4
:109C00001060918018467047852070470439002005
:109C1000074B1A68D20704D4C02283F8002301221C
:109C20001A604FF080430122C3F81825704700BF27
:109C300000E100E038B54FF48270FFF7D3FF4FF03A
:109C400080430222C3F804230C4AD2F8FC0040F0FF
:109C50008073C2F8FC300A4B1C6844F001011960A3
:109C60005D685968491BB1F50A5FFAD31C604FF073
:109C70008043C2F8FC0001229A6038BD00ED00E08C
:109C8000001000E04FF0804208B50223C2F808330C
:109C90004FF48270FFF7A6FF0123D360D2F8183487
:109CA000DB03FBD408BD00004FF0804110B5D1F8B4
:109CB000003163B14FF48070FFF794FF0D4B58797A
:109CC0000122C1F8082310B95A711B6898474FF058
:109CD0008042D2F8043163B14FF48270FFF782FF03
:109CE0000223C2F80833034BBDE810401B68012073
:109CF000184710BD0439002000F1804000F5C04035
:109D0000002382B0036003680193019B02B0704797
:109D1000800000F1A040D0F8002722F44032C0F8C3
:109D20000027D0F8003743EA0141C0F80017704718
:109D3000054B4FF0FF32072843F8202084BFC0189E
:109D400080F84020704700BF0C39002010B51A4C35
:109D500094F84E306BBB4FF0FF3222FA03F1C90783
:109D600048BFE11803F1010348BF81F82820202BE8
:109D7000F3D10021C8B20131FFF7DAFF0A29F9D186
:109D8000042200210D4809F064FE0D4BC02283F827
:109D9000062340221A604FF4BE70FFF7ADFF094B57
:109DA0004FF00042C3F80423012384F84E30002012
:109DB00010BD0820FCE700BF0C39002056390020F8
:109DC00000E100E000600040034B93F84E000038D3
:109DD00018BF0120704700BF0C390020F0B5394E84
:109DE000331893F92830002B69DA8D78C5F34005D4
:109DF000002D0BBF082300230A240824A34201D10D
:109E00000420F0BD56F82370013743D137185CB2F7
:109E100046F8232087F8284015B9F21882F8400048
:109E20008A78550716D4D70736D5820002F1A042AA
:109E3000D2F8005725F00205C2F80057224FC50896
:109E400000F0070C012202FA0CF217F805C042EAF2
:109E50000C027A558A780D7812F0020225D09B0008
:109E600003F1804303F5C0430002D3F8102522F428
:109E7000473222F44072C3F810252D04D3F8102580
:109E800000F4F85005F4403528431043C3F810059A
:109E90000020B6E70133B1E74D7800F5E0724FF0EE
:109EA000A047AD0047F82250C8E7083C46FA84F4C2
:109EB00094F8480040EA851584F84850E8E70820FF
:109EC0009FE700BF0C3900205639002038B5204CE0
:109ED000251895F92820072A18DD083A44FA82F453
:109EE00094F848309B09032B0BD14FF0A043D3F8D3
:109EF0001015C14001F001010231BDE83840FFF703
:109F000007BF012B0CBF02210321F6E7D3B2072BB9
:109F10001DD8930003F1804303F5C043D3F8100527
:109F200040F00100C3F8100502F1400040B280008B
:109F300080B2FFF7E1FE51B195F9283054F8233093
:109F40002BB1012303FA02F2024BC3F8042338BDFC
:109F50000C390020006000404FF0A043D3F81035CA
:109F600023FA00F000F00100704700002DE9F74FE0
:109F700000244D4D01944FF48072012102F1804381
:109F800003F5C04390B21B68012B06D1D5F804330A
:109F90000B4202D0FFF7B0FE0C430432B2F5907FC3
:109FA0004FEA4101EAD1404BD3F87C31012B0CD16F
:109FB0004FF4BE70FFF7A0FE4FF0A04344F0004402
:109FC000D3F820250192C3F82025E3B2D3B1374F4F
:109FD00000250126344210D0AB0003F1804303F585
:109FE000C043D3F81005D3F8101557F8253023B126
:109FF000C1F30141C0F3042098470135082D4FEA11
:10A000004606E7D1002C45DA284C4FF0A049284EEF
:10A010000025012716F9013B5A1C33D0C3F3C202B5
:10A0200002A90A445FFA83F812F8042C03F03F0AED
:10A0300003F0070307FA03F31A4223D00AF5E0738B
:10A04000504659F82330C3F3014BBBF1020F0CBF4C
:10A0500003210221FFF75CFE07FA0AF3C9F8203555
:10A0600004EB0A0393F9283054F8233053B14FEA34
:10A070009811032904D0BBF1020F10D1012901D19D
:10A08000504698474DB1D9F820350193C9F820358D
:10A09000002BBCD103B0BDE8F08F0125BAE7BBF1BE
:10A0A000030FEFD10229EAE7006000400C390020DD
:10A0B00054390020014B1B68184700BF5C39002051
:10A0C0000E4B984237B50C4602D0002003B030BD8D
:10A0D00000230DF107008DF80730FDF7A1FA084BBA
:10A0E0001D7915B901221C601A719DF80700FDF752
:10A0F000BBFA002DE9D01120E8E700BF00200040A6
:10A100005C3900201FB503788DF800308388ADF8E6
:10A11000043083688DF80630C3688DF80730036912
:10A1200002934369054A0393054B684653F821306F
:10A1300052F82110984705B05DF804FB64390020FF
:10A140006C390020024B4FF4807043F00103184734
:10A15000404C03002DE9F047154690F80090324A34
:10A1600042F82950314A42F829304B7B07460C46C9
:10A170006BB30868496882008B0002F1A04203F1CA
:10A18000A04340F20C66C2F800674FF0010AC3F822
:10A1900000674FF0A0460AFA00F00AFA01F1C6F88B
:10A1A0000805C6F8081540F20D61C2F80017C3F89B
:10A1B0000017FFF7C7FF4FF00008D6F810256368B7
:10A1C00022FA03F3DB070DD5B8F1000F1DD1002DE6
:10A1D000174A4B4608BF2A462146381DBDE8F047BE
:10A1E00008F094BA23680AFA03F3C6F80C35FFF7AF
:10A1F000A9FF23680AFA03F3C6F8083508F1010835
:10A20000FFF7A0FFB8F1090FD7D1636801264FF01F
:10A21000A04806FA03F3C8F80C35FFF793FF63680C
:10A220009E40C8F80865D2E76C39002064390020E8
:10A2300005A102000023435082B043580193019BC3
:10A2400002B070472DE9F041224E234FDFF88C8099
:10A2500000244FF48035D7F80433A6F580412B4213
:10A2600089B20CD0336853B1C7F848533846C7F8A1
:10A270000853FFF7DFFFD8F80030E0B29847013409
:10A28000042C4FEA450506F10406E4D11248D0F843
:10A290000433DA070AD5D0F800313BB14FF48071AE
:10A2A000FFF7C8FF0D4B20461B6898470A48D0F8B7
:10A2B00004339B070CD5D0F804314BB14FF48271B5
:10A2C000FFF7B8FF054BBDE8F0411B6805201847B4
:10A2D000BDE8F08140410240004002407439002056
:10A2E00000F1804000F5E040002382B00360036885
:10A2F0000193019B02B07047F0B5524B524CD3F81A
:10A30000043185B0002B3DD094F82E204FF482709C
:10A31000FFF7E6FF2AB394F82F3013BB494AD2F86F
:10A320000031002B32D04FF48070FFF7D9FF638BE0
:10A3300094F82D00834250D921891B1A9BB289B20F
:10A340006383CB1A616801EB4303C2F82C36C2F871
:10A3500030064FF48270FFF7C3FF3A4B01225A6078
:10A3600014E0636802932389ADF80C30E3680021A0
:10A370008DF8041033BB2374236801A89847002389
:10A3800084F82F3094F82E30002BC7D12D4BD3F802
:10A3900010315BB14FF48870FFF7A2FF00232374E4
:10A3A00002238DF8043001A823689847254BD3F881
:10A3B0001431EBB14FF48A70FFF792FF002323743E
:10A3C00005B0F0BD208B608363602081E160002ACE
:10A3D000D2D11C4B01221A60CEE7BAD1E368012129
:10A3E00084F82F1013B100216183AEE76383B0E7D7
:10A3F00066694FF000470125002EE1D0B6FA86F2DB
:10A4000027FA02F34632920026EA030602F180435D
:10A4100003F5E0431B68002BEED01046A2F58C72CA
:10A42000FFF75EFFD30882F00402C2F380028DF8CA
:10A4300008308DF8045023688DF8092001A898474A
:10A44000DAE700BF007000407839002038B5204AB4
:10A4500092F82C300446002B37D111601D4900784A
:10A46000C1F8F0056078C1F8F4050125E0781374AF
:10A4700082F82D30536182F82F306FF0004382F85C
:10A480002E0082F82C504FF48270C1F80833FFF789
:10A4900027FF4FF48070FFF723FF4FF48A70FFF718
:10A4A0001FFFA3780C485B01DBB280F807338023E1
:10A4B00003600223C1F8043392F82E300BB1C1F8C7
:10A4C0000453C1F80055002038BD0820FCE700BF48
:10A4D000783900200070004000E100E070B52A4BA0
:10A4E0001A7C02F0FF05002A4BD10A79012A9CBF91
:10A4F000264CC4F8005500F10C0503EB4504247903
:10A5000024B993F82D40013483F82D4003EB450323
:10A51000CC790D7A8E781C715D714B7836021B01F7
:10A5200006F4E06603F0300333430E7806F00306CA
:10A530003343CE78360306F480563343160406F4CC
:10A54000E02633434E798979360506F480160906EC
:10A55000334301F080710B430C4901EB00160001FD
:10A5600000F1804000F5E040012AC6F81835C0F837
:10A570001455C0F8104502D80123C1F80035002059
:10A5800000E0112070BD00BF78390020007000404D
:10A5900070B5264A264B05461220C2F808031C7CDB
:10A5A000022C03D1C2F80403112070BD187C0128CD
:10A5B0001CD1D86818B10223C2F80433F4E7DD6077
:10A5C000198393F82E305BB9D2F80031002BFBD001
:10A5D0004FF48070FFF784FEC2F82C56C2F8301694
:10A5E000124B0222C3F804230020DEE7022093F876
:10A5F0002E40C2F80403012600201E745D601981FC
:10A60000D8603CB1598393F82D30C2F82C56C2F86B
:10A610003036CAE7C2F82C564FF48070C2F83016B4
:10A62000FFF75EFE16602046BFE700BF00700040E7
:10A6300078390020074B197C0129CAB208D193F858
:10A640002E00054B10B11A60002070475A60704709
:10A65000082070477839002000700040F0B51B4F8B
:10A660008BB207EB001443EA0243C4F81C35184BC5
:10A6700040005C6900F1010C4FF0004611F5006FDD
:10A6800026FA0CF64FF0800505FA00F50BBFB4432F
:10A6900034435C615C610CBFC7F80853C7F80453CE
:10A6A00040244FF000455969844025FA00F040F2FB
:10A6B000FF75AA42054A0BBF8143014359615961A5
:10A6C0000CBFC2F80843C2F80443F0BD007000405C
:10A6D0007839002010B5124B1A7CF2B900F10C0148
:10A6E00003EB4102127922B193F82D20013A83F84D
:10A6F0002D2003EB410300249C80030103F18043E0
:10A7000003F5E0430749C3F8144540F2FF72C3F86C
:10A710001045FFF7A3FF204610BD1120FCE700BF46
:10A720007839002000F8FFFF38B5144B6FF0004275
:10A73000C3F80823124A8021C2F88010BFF34F8F5C
:10A74000BFF36F8F01229A6042F21072D3F8141196
:10A7500009B9013AFAD10B4D0024C3F800452C7415
:10A7600005EB44031B7F13B1E0B2FFF7B3FF0134E5
:10A77000082CF5D1002385F82C3038BD007000403E
:10A7800000E100E0783900200220FFF72AB900003C
:10A790002DE9F04780460D46FFF731F901280446C0
:10A7A00010D8012D10D0022D30D05DB91A48FCF719
:10A7B0001DFF1A4B04EB440213449D78184B1B5D9C
:10A7C000AB4219D0BDE8F087144E00EB4003F218FD
:10A7D000F55C5378470053B1DFF84C900E484A4679
:10A7E0004FF40041FCF7B6FE08B989F80080274411
:10A7F0003E440B4BB2781A55002DE3D0094B1B6831
:10A80000002BDFD02846BDE8F047184700EB400496
:10A81000024804446578EFE7CC3900200C3A002068
:10A82000213A00201C3A0020A8390020007802219B
:10A83000FFF7AEBF034B1B7813B10020FFF7BCB886
:10A84000FFF7C1B8A9390020F8B57A4C237805463E
:10A850001BB100232370FFF7EDFF172D00F2878057
:10A86000DFE805F00C1717425364757F878C878CDF
:10A87000949999999999C3C8D0D8E3E3FFF7DAFF7F
:10A880006D48FCF7B3FE6D4B002204461A7020465B
:10A89000F8BD0020FFF782F8F0B10020FFF78CF838
:10A8A000022D41F2743418BF4FF47A64634B1D706B
:10A8B00000254FF400464FF4FA7029464FF47A729F
:10A8C0000023E4FB060108F07DFD2A460146BDE8B1
:10A8D000F8405948FCF73EBEFFF767F8022D0CBF61
:10A8E00014244FF4C874E1E70020FFF757F840B193
:10A8F0000020FFF761F84FF44874504B03221A70A0
:10A90000D6E7FFF752F8C824F7E70020FFF746F82C
:10A9100038B10020FFF750F84FF47A64474B042217
:10A92000EDE7FFF742F84FF4C874F7E70020FFF7B0
:10A9300035F848B10020FFF73FF8404B05221A7068
:10A9400041F69A110022C2E7FFF72FF8F5E7002041
:10A95000FFF747F8394B06221A70002240F6CD4126
:10A96000B5E70020FFF721F8344B07221A700024C6
:10A970008DE701202070FFF734F8EEE7012020700A
:10A98000FFF72FF800224FF48041A0E7FFF722F8ED
:10A990002A4B0C22EAE72A482A4EFCF727FED5F17B
:10A9A000110504461CD0D8B9012D13D0C820454349
:10A9B00021464FF400474FF4FA704FF47A720023A7
:10A9C000C5FB070108F0FEFC224601461C48FCF7C7
:10A9D000C1FD04460220FEF7E8FF0123337056E76D
:10A9E0000220FEF7E9FF0023F8E7FFF723FF134BF0
:10A9F0001222BBE7FFF71EFF0020FEF7D6FF0F4B2A
:10AA00001322B3E7FFF716FF0120FEF7CEFF0B4B33
:10AA10001422ABE7FFF70EFF0020FEF7C6FF012070
:10AA2000FEF7C3FF054B1522A0E7FEF7D3FF034B4C
:10AA30001D709CE7183A0020EC390020203A0020D5
:10AA4000AC390020A9390020044B1B68DB0703D573
:10AA5000034B1878FFF7F8BE704700BF143A002088
:10AA6000203A002038B51A4B18601A4B10F0020437
:10AA70000546196016D0184B18480E221A700F227E
:10AA8000DA70022140F26662FCF736FA044648B9F1
:10AA9000FCF78AFA044628B90146114A1148FCF726
:10AAA00047FD0446EB0711D50120FEF7B2FF6CB954
:10AAB00021460D4A0D48FCF73BFD044630B9BDE880
:10AAC00038400B4A0B480121FCF732BD204638BD07
:10AAD000143A00201C3A00200C3A00205C4C030081
:10AAE0002DA80200704C030049AA0200744C030018
:10AAF00089A702006C4C0300012811D8012A0AD151
:10AB000001290FD100F10E02D2B20D4B00EB400033
:10AB10001A54002070470129F7D0022904D049B106
:10AB2000072070470022F8E7054B00EB400018446F
:10AB30004270EEE7024B00EB400018448270E8E7F9
:10AB40000C3A00200388102B02D0112B05D070473F
:10AB5000044A1368013313607047024A1368013BCB
:10AB6000F9E700BF243A002072DF704773DF7047B7
:10AB700074DF704776DF70477ADF70477CDF70479D
:10AB80008FDF7047FCF726BA024B002206201A70AE
:10AB900001F0F2BFB23C002010B5094C1822002190
:10ABA000204608F056FF012323700023A381636031
:10ABB0004FF4C863A3604FF48073A38210BD00BF3D
:10ABC000DC3A002008B50948094B0A49C01AC008F8
:10ABD000000440F00300FBF7F3FE04F039FF18B166
:10ABE000BDE80840FCF7F6B908BD00BFC442030049
:10ABF00084420300784C030013B513210190FFF742
:10AC0000B9FF019A034660B10748084C0849241A65
:10AC1000E408240444F0020002B0BDE81040FBF751
:10AC2000DCBE02B010BD00BF84420300C44203007A
:10AC3000854C03000146014808F06AB9B43C002085
:10AC4000174B184A9B1ADB0810B51B04032824D89D
:10AC5000DFE800F002161D2143F0030420461249EC
:10AC6000FBF7AEFE114B1248012200211A7002F0D0
:10AC70004BFD104902462046BDE81040FBF7A4BE3C
:10AC80000D4943F00300BDE81040FBF799BE0B49A6
:10AC900043F00100F7E70A49FAE70A49F8E700BF7D
:10ACA000C442030084420300C64C0300083B00205A
:10ACB000F9AB0200F44C03000B4D03002E4D0300D2
:10ACC000674D0300944D030030B5404B404D027872
:10ACD0004049ED1AED082D0445F00305044685B002
:10ACE0002846FBF771FE204605F076FB204605F06E
:10ACF00051F923780D2B2AD8DFE803F007290E2914
:10AD000022292B3C3E3A293C383C3349284605B0A1
:10AD1000BDE83040FBF754BE608802F055FC237A52
:10AD20000093024663882D492846FBF760FE2C4BB2
:10AD3000A28861882B481A8006F0D0FC38B110E058
:10AD4000012360888DF80C3003A904F041FE05B0A2
:10AD500030BDFDF731FB48F207629042F7D0002882
:10AD6000F5D005B0BDE83040FCF734B91E49CDE759
:10AD70002069E3E7A068E1E7237CDB07E7D5237AD6
:10AD8000072BE4D1194C164A23681948158800226C
:10AD9000D1B28B4212D8072BD9D81548591C20F8AC
:10ADA0001350216004F022FE062802D008B1FCF7FF
:10ADB00011F921680E4804F00FFEBFE730F81110BA
:10ADC000A94202F10102E3D1C1E700BF84420300BE
:10ADD000C4420300BB4D0300D74D0300004E0300E7
:10ADE000683D00208C290020404E03005C3E00207E
:10ADF000603E002008B503784BB9054B3B2118880D
:10AE0000FFF7B8FE18B1BDE80840FCF7E3B808BD8D
:10AE1000722F002008B50F4B1A7872B901211970F2
:10AE20000D484FF4A021FCF795FB08B1FCF7D2F8D0
:10AE3000BDE80840052001F09FBE084800224FF4FD
:10AE4000C031FCF787FB18B1BDE80840FCF7C2B879
:10AE500008BD00BFB23C0020FC3D00201C3E00208D
:10AE600010B5164C164BA36096B01F233C22002150
:10AE700007A8A38108F0EDFD124A1068516801ABE4
:10AE800003C31189927A19809A705923ADF8103052
:10AE900001AB06930B23ADF8143002238DF81C3060
:10AEA000A16804AB04F10C0207A8109301F0C0FFE5
:10AEB00008B1FCF78FF816B010BD00BF782900204C
:10AEC000E73C00206E4E0300022807B50ED1094B67
:10AED00009480A49C01AC008000440F00300019064
:10AEE000FBF76EFD06490198FBF76AFD012003B0F0
:10AEF0005DF804FB84420300C4420300794E030062
:10AF0000A64E030038B504780546002C40F08E802C
:10AF1000474A484913684B43B3F1333F0CD8464B7B
:10AF20000121C3F81041D960D3F810110029FBD0DA
:10AF3000D3F800140129FBD013686868013301219C
:10AF40001360FFF725FB08B1FCF744F86B681B881A
:10AF50004FF4167213FB02F3002BB8BF03F6FF7316
:10AF60001B1303EB43035B009BB240F6B7329342E3
:10AF70005AD840F65432934231D9C3F53B643A2251
:10AF8000083454436FF0630294FBF2F46434E4B287
:10AF90002A4A1268190A51759375FFF7C5FB264BAB
:10AFA00027480222C3F80823264B8022C3F88021B9
:10AFB000254B00221A7021464FF6FE7208F043F925
:10AFC00030F0080232D020F00202112A2ED043F2D3
:10AFD000014290422AD0BDE83840FBF7FBBF40F663
:10AFE000B4218B4208D9D41A182254436FF09F021F
:10AFF00094FBF2F42A34CAE740F68812934206D949
:10B00000CC1A6FF0180194FBF1F41234BFE740F64C
:10B0100034018B42BCD9D41A06225443A2F5AD7236
:10B0200094FBF2F40634B2E76424B1E738BD00BF04
:10B03000D83A0020CDCCCCCC00700040782900203C
:10B04000F43A002000E100E0F83D0020032807D199
:10B050004FF08043A922C3F820250020FEF7BEB997
:10B060007047000030B51B4B1B7885B07BB31A4C82
:10B0700023782BBB194D1A49286800906846FFF7C2
:10B08000E5F908B1FBF7A6FF164A68685168127A1D
:10B0900001AB03C301A900201A70FFF71FFA08B122
:10B0A000FBF798FF10480121FFF772FA08B1FBF790
:10B0B00091FF0E480121FFF76BFA08B1FBF78AFFF9
:10B0C0000123237005B0BDE83040FFF7B3BA05B0E7
:10B0D00030BD00BF89290020F83D00202150030029
:10B0E00005AF020025500300AE3C0020B03C00201C
:10B0F00073B50B780C46042B50D8DFE803F0031C23
:10B100004F2948000A1D2648498807F0F3FF08B177
:10B11000FBF760FF224882894FF6FF739A423DD0C9
:10B1200007F0C8FF052839D0002837D002B0BDE8A5
:10B130007040FBF74FBF1B481B4B1C49C01AC0088F
:10B14000000440F0020002B0BDE87040FBF738BCDC
:10B15000FBF7ECFA05460028FAD101F013FB18B909
:10B1600001F0CAFB01250646A37A0193637A009396
:10B17000E279237AA179A08801F00CFB75B101F086
:10B18000BBFB801B02B0BDE8704001F003BC05486A
:10B19000054B0749C01AC0080004D2E702B070BDD1
:10B1A000B43C0020C442030084420300D54E030097
:10B1B000004F0300F8B5054618B1BDE8F840FFF7A9
:10B1C00001BD1C4C1C481C4F10224FF6FF7108F0AB
:10B1D00040FC08234FF6FF7023604FF6FF7604F023
:10B1E00019FC25600925B042216801D0013D18D124
:10B1F000114804F0F1FB08B1FBF7ECFE21680E48A2
:10B2000004F0F4FB062802D008B1FBF7E3FE0B4B79
:10B2100001211878FFF7AAFC50B1BDE8F840FBF710
:10B22000D9BE4B1C27F81100236004F0F3FBDAE7CA
:10B23000F8BD00BF5C3E0020603E00208829002051
:10B2400038B5204B04461878FFF792FC30F008031D
:10B2500001D0FBF7BFFE022C17D0032C2BD0012C02
:10B2600027D0002001F088FC174A18491548FFF73D
:10B270007BFC08B1FBF7AEFE154B012C1C701FD9EF
:10B28000BDE838400020FFF795BF0F4D1822002180
:10B29000284608F0DEFB4FF4C862AA604FF48072C3
:10B2A0000523AA82094A2B700023AB816B6093812E
:10B2B00093602046D6E7FFF76FFCFFF7D1FDF8E774
:10B2C00038BD00BF88290020DC3A00207829002002
:10B2D0008929002008B50C48FCF788F908B1FBF76C
:10B2E00079FE094800224FF4A021FCF733F908B198
:10B2F000FBF770FE054B1878013000F00300187062
:10B30000BDE80840FFF79CBFFC3D002089290020D4
:10B3100038B5104C257815B1012D12D038BD01205B
:10B32000FFF78EFF23780C4801332A464FF4803113
:10B330002370FCF70FF90028F0D0BDE83840FBF788
:10B3400049BE042001F018FCFFF73CFC00232370E9
:10B35000E4E700BF723E00201C3E002013B5044607
:10B3600005F05EF82388212B43D005D8102B29D077
:10B37000112B0AD002B010BD3B2B01D0562BF9D1B6
:10B38000A0881321FFF7F6FB2CE0214B214822492E
:10B39000C01AC008000440F00300FBF711FB1F4B6C
:10B3A000A0884FF6FF721A801D4B9989884208BF0A
:10B3B0009A811C4B18780028DCD102B0BDE81040FF
:10B3C000FFF7F8BE124B13481749C01AC008000413
:10B3D00040F00300FBF7F4FA104BA18813481980E2
:10B3E00003F06EFC0028C5D002B0BDE81040FBF7AA
:10B3F000F1BD0023A0888DF8043001A98DF8053037
:10B40000FFF7BEFB0028B5D0FBF7E4FDB2E700BFB5
:10B4100084420300C4420300174F0300722F002030
:10B42000B43C0020083B0020254F03006C3D002069
:10B430000A8840F677239A420BD1064B06484A8881
:10B44000C01AC00800048B88044940F00300FBF7D1
:10B45000C4BA704784420300C4420300304F030063
:10B46000FBF7B8BDFBF7B6BDFBF7B4BD0F2806D898
:10B470000D280AD9054B1B783BB1FFF72BBF1838B5
:10B48000012800D97047FFF7C5BC7047B23C0020C7
:10B4900008B505490320FFF7E5FA18B1BDE80840F3
:10B4A000FBF798BD08BD00BF6DB402000B4B0C4A02
:10B4B0001B681178D97251781973D1785973117941
:10B4C00099739179D973D1791974117A5974517A20
:10B4D0009974917AD27AD9741A75704778290020B4
:10B4E000983C002030B5474C85B0002838D0002368
:10B4F00023700025444A454800950223442107F063
:10B50000EDF908B1FBF766FD414A4048009502237A
:10B510001E2107F0E3F908B1FBF75CFD00253D4A69
:10B520003A48009502231E2107F0D8F908B1FBF72D
:10B5300051FD394A0095022334481E2107F0CEF907
:10B5400008B1FBF747FD0022C5213448FCF702F89B
:10B5500008B1FBF73FFD23780133237005B030BD00
:10B560002378032B40D801A252F823F0F3B4020051
:10B570007DB5020087B50200CFB50200002300931D
:10B58000274A0223D8E706238DF80C3001231F48F1
:10B59000009303AA1E2107F0A1F908B1FBF71AFDD9
:10B5A000204A1A4806231E2107F0AEF908B1FBF71E
:10B5B00011FD00230093164A144802231E2107F0B0
:10B5C0008DF908B1FBF706FD00222121BDE7164ADF
:10B5D0000E480623442107F097F908B1FBF7FAFC5F
:10B5E000FFF764FF0023B8E7104B11481149C01A58
:10B5F000C008000440F0010005B0BDE83040FBF792
:10B60000DFB900BF713E0020682900207C50030094
:10B610006C2900206E290020702900203C3E00206B
:10B62000722900209E3C0020983C002084420300A8
:10B63000C44203005F4F03000020FFF753BF000028
:10B64000034B1B7813B10120FFF74CBF704700BFBD
:10B65000892900201FB5044601F04EF921460290C9
:10B66000022203A808F0CCF90222E11C0DF10E0021
:10B6700008F0C6F901A9024801F01EF804B010BD97
:10B68000243D002008B5134B1A78FF2A4FF0000222
:10B690001A7000D108BD01F09DF920B901F0E8F958
:10B6A00008B1FBF797FC0C48FFF7D4FF04280BD137
:10B6B0000A4B0B480B49C01AC0080004BDE80840FB
:10B6C00040F00100FBF77CB90028E3D0BDE808405A
:10B6D000FBF780BC842F0020983C002084420300AC
:10B6E000C4420300864F030010B5224C2378032B7D
:10B6F00034D8DFE803F002111D291F4800224FF45F
:10B70000F011FBF727FF08B1FBF764FCFFF7AAFC79
:10B7100023780133237010BD184800224FF4F02124
:10B72000FBF718FF08B1FBF755FCFFF789FFEFE7C0
:10B73000134800224FF41601FBF70CFF08B1FBF78A
:10B7400049FCFFF79FFFE3E70E48FBF74FFF08B107
:10B75000FBF740FC0020FFF72DFDD9E70A480B4B13
:10B760000B49C01AC0080004BDE8104040F00100B9
:10B77000FBF726B9703E0020983D0020B83D002020
:10B78000D83D0020783D0020C442030084420300DD
:10B790009A4F0300F0B54FF400419BB00020FAF738
:10B7A00075FF08B1FBF716FCFAF7AEFEAC4CAD4BDB
:10B7B000AD49E41AE408240444F003042046FBF7EE
:10B7C000FFF807F0F9F908B1FBF704FCFDF7C8FD35
:10B7D00008B1FBF7FFFB4FF080430122C3F8782547
:10B7E000FEF756F908B1FBF7F5FB0020FEF774F9F8
:10B7F000FBF76EFEFFF74CFE002116220846FFF70E
:10B800007BF9182202210020FFF776F91722002188
:10B810000120FFF771F9192202210120FFF76CF9CD
:10B8200001F08AF91E221F23CDE90A234FF0CC71C3
:10B830000723CDE90C1300238C481A460AA9FEF70A
:10B8400089FC08B1FBF7C6FB89488A4E06F0CCFF9D
:10B850000A2546F001064FF47A40B047013DFAD17F
:10B86000854A834800950223442107F037F808B140
:10B87000FBF7B0FB00230093804A7D4802231E2182
:10B8800007F02CF808B1FBF7A5FB00F05DFF7C4A40
:10B890007C480121FBF74CFE08B1FBF79BFB7A4A81
:10B8A0007A480121FBF744FE08B1FBF793FB784A85
:10B8B00078480121FBF73CFE08B1FBF78BFB764A89
:10B8C00076480021FBF734FE08B1FBF783FB744A8E
:10B8D00074480121FBF72CFE08B1FBF77BFB724A91
:10B8E00072480021FBF724FE08B1FBF773FB704A96
:10B8F00070480021FBF71CFE08B1FBF76BFB06F05C
:10B9000035FB08B1FBF766FB00230AA901200A9367
:10B9100006F0F8FB08B1FBF75DFB0AA806F0A6FCF1
:10B9200008B1FBF757FB644A0A210820FBF796FB96
:10B9300008B1FBF74FFB112360488DF8183008F071
:10B94000DDF806AD82B25D492846FFF717F908B168
:10B95000FBF740FB082200210AA808F07AF8A02390
:10B96000ADF82830ADF82A300023ADF82C300AA805
:10B970004FF4C873ADF82E30FFF7FEF808B1FBF7AF
:10B9800029FB4F494F4803F07BF808B1FBF722FB36
:10B99000082200210AA808F05CF84B4E4B4B0A9392
:10B9A0000AA80B9605F05CFE08B1FBF713FB484BA9
:10B9B00048480A930AA903F071F908B1FBF70AFB9A
:10B9C000402200210AA808F044F843490AA801F0DF
:10B9D000E6FE42490EA801F0E2FE40490CA801F043
:10B9E000DEFE3F4910A801F0DAFE3E4914A801F03E
:10B9F000D6FE12A83C4901F0D2FE01230AA88DF818
:10BA0000643007F0AFF908B1FBF7E4FA374B0A935B
:10BA10000AA807F055F808B1FBF7DCFA102200215C
:10BA20000AA808F016F800230A9301220C93304864
:10BA3000304B8DF82C200AA90D9307F090FB08B12C
:10BA4000FBF7C8FA2C4B0A932C482D4B0C960AA9ED
:10BA50000B9307F0A1FA002854D0FBF7BBFA51E092
:10BA6000C442030084420300C44F03007850030023
:10BA70007C50030040500300742900206A290020F4
:10BA8000E9B602005C50030065B00200605003009C
:10BA900041B602006450030039B60200745003003E
:10BAA00085B602006850030089AB02006C500300A9
:10BAB00011B3020070500300283A0020742F0020B8
:10BAC00031B40200083D00205C2F002035AC02009C
:10BAD00085AB02006C3D0020DF4F0300F14F0300F7
