:020000040007F3
:10800000000001205D8307004583070047830700C8
:10801000498307004B8307004D83070000000000E1
:1080200000000000000000000000000041D1070037
:1080300051830700000000005383070055830700A9
:1080400057830700578307005783070057830700AC
:10805000578307005783070057830700578307009C
:10806000578307005783070057830700578307008C
:10807000578307005783070057830700578307007C
:1080800049B4070057830700578307005783070049
:10809000578307005783070049D30700578307001A
:1080A000578307005783070057830700578307004C
:1080B00057830700578307000000000000000000FE
:1080C000578307005783070057830700578307002C
:1080D000FDB007005783070057830700000000002A
:1080E0000000000000000000000000000000000090
:1080F0000000000000000000000000000000000080
:10810000000000000000000000000000000000006F
:10811000000000000000000000000000000000005F
:10812000000000000000000000000000000000004F
:10813000000000000000000000000000000000003F
:10814000000000000000000000000000000000002F
:10815000000000000000000000000000000000001F
:10816000000000000000000000000000000000000F
:1081700000000000000000000000000000000000FF
:1081800000000000000000000000000000000000EF
:1081900000000000000000000000000000000000DF
:1081A00000000000000000000000000000000000CF
:1081B00000000000000000000000000000000000BF
:1081C00000000000000000000000000000000000AF
:1081D000000000000000000000000000000000009F
:1081E000000000000000000000000000000000008F
:1081F000000000000000000000000000000000007F
:10820000314932480A1A02D0072291438D4630493B
:1082100030480A1A06D00722914381F309880222C6
:1082200082F314882C482D492D4A00F03CF82D4843
:108230002D492E4A00F037F82D482E492E4A00F0DD
:1082400032F82E482E492F4A00F02DF82E482F499B
:108250002F4A00F028F82F482F49304A00F023F821
:108260002F483049304A00F01EF83048304900228B
:1082700000F024F82F483049002200F01FF82F4A60
:1082800090471F481F49884205D00268043003B454
:10829000904703BCF7E700208646EC46002000210B
:1082A000274A9047FEE7884207D0521A05D0037844
:1082B00001300B700131013AF9D17047884202D088
:1082C00002700130FAE770470000012000F800203A
:1082D0000000012000000120C0DB07007C590020C5
:1082E000B4590020B8830700B88307007ED6070082
:1082F000C0DB07007C5900207C590020ECD6070029
:10830000ECD60700ECD60700ECD60700ECD6070049
:10831000ECD60700ECD60700ECD60700C0DB070060
:10832000F8DB0700B4590020B4590020B4590020EC
:10833000647F0020647F0020647F00208583070025
:10834000399D0700FEE7FEE7FEE7FEE7FEE7FEE7F2
:10835000FEE7FEE7FEE7FEE700F002B8FFF7FCBF2E
:108360000F484FF00701884385460E4880470E4866
:10837000016841F470010160BFF34F8FBFF36F8F4D
:10838000FFF73EBF09480A490A4A884207D0521AF5
:1083900005D0037801300B700131013AF9D17047F3
:1083A0000000012009B5070088ED00E0D8D60700DD
:1083B000685900207C5900204B1C30B5DB00044676
:1083C00012F003009BB20DD1074D2A601A44074BEF
:1083D0001A60074B1870074B1870074B1C80074B2F
:1083E000198030BD0720FCE7BC590020B859002097
:1083F000B4590020C4590020C0590020C25900209F
:108400002DE9F347DFF8C080B8F800308B4206460C
:108410000D4617464CD300240DF107008DF8074098
:1084200000F084F8244B254A25481B78008892F8F0
:1084300000C084455FFA8CF138BF4C1CDBB238BFFA
:10844000E4B2A3422ED014781178CBB2884286BF12
:108450000133DBB2002313709DF8070000F08AF8A7
:108460004FF6FF739C4225D0DFF86090D9F80020CA
:108470004FEAC40A42F8347002EBC403AEB1A5B1AE
:10848000104BB8F800001B682A4604FB0030314648
:1084900005F069F8D9F80030534400209D8002B0FF
:1084A000BDE8F0874FF6FF74D6E700209880F6E726
:1084B0000920F4E70420F2E7C4590020B459002051
:1084C000C2590020B8590020C0590020BC590020D2
:1084D00070B5104C104D22782B789A4200D170BDA7
:1084E0000E480F4A2378126806880E4802EBC30133
:1084F000006852F83320898803FB060090470A4938
:1085000022780988D3B2914286BF0133DBB20023BF
:108510002370E0E7C4590020B4590020C05900205E
:10852000BC590020B8590020C259002070B5EFF3A3
:10853000108672B60C4A946801239CB993600B4B69
:108540000B4DD3F8801029401160C3F88050D3F848
:10855000841051604FF0FF32C3F88420047006B9D4
:1085600062B670BD0370FAE7C859002000E100E070
:10857000FC06FFBD084B9A6810B55AB150B9EFF32D
:10858000108172B6054A1C6814605C68546098607B
:1085900001B962B610BD00BFC859002000E100E07B
:1085A00030B53AB11368DB430A4D0144814204D12E
:1085B000D84330BD4FF0FF33F6E710F8012B53409E
:1085C000082213F0010418BF2C46013A84EA530331
:1085D000F7D1EBE72083B8ED10B561B1B2FBF3F44E
:1085E00003FB1424A4B244B9C0E90014846082815E
:1085F000C381204610BD0E20FCE70920FAE782B0B7
:1086000050E8022FC188B2EB324F4FF0000317BF82
:1086100092B241EA014142EA014104E04268B2EB10
:10862000324F08BF012340E80212002AE8D18DF83A
:1086300007309DF80730002B0CBF1120002002B03E
:10864000704737B550E8013F9DB2C48925448489FD
:10865000A54228BF2D1B0489A54202BFBFF32F8F5F
:10866000002207E0C5EA030540E80154002CE9D1E7
:108670004FF001028DF803200193019A0A609DF8E2
:10868000031001F0FF0321B1006810FA82F003B07B
:1086900030BD1846FBE70A884B889A4209D150E85A
:1086A000012FC2EA024240E80123002BF7D101204A
:1086B00070470020704737B550E8023F1FFAA3F516
:1086C000C488A54202BFBFF32F8F00220DE0C489EA
:1086D00025448489A54228BF2D1BC3EA054540E8EF
:1086E0000254002CE8D14FF001028DF803200193D1
:1086F000019A0A609DF8031001F0FF0321B10068A0
:1087000000EB124003B030BD1846FBE70A884B88E7
:108710009A4209D150E8022FC2EA224240E80223DD
:10872000002BF7D1012070470020704710B5034699
:1087300053E8000F40EA010243E8002494F0000FE0
:10874000F6D110BD10B5034653E8002F02EA010030
:1087500043E8000494F0000FF6D110BD0121FFF7AB
:10876000E5BF0021FFF7EEBF10B590B1D0E90123BE
:1087700001689B1ADBB20A60013BDBB2FF2B026887
:1087800002D10020107110BD11684C1C14600B70D8
:10879000F2E70E20F7E737B5054600240DF1070094
:1087A0008DF80740FFF7C2FE2A686B68116899428E
:1087B0000ED9481E106011F8013CEC68298A01FBB3
:1087C0000344AB6811791B1ADBB2994238BF1371AD
:1087D0009DF80700FFF7CEFE204603B030BD37B549
:1087E000054600230DF107000C468DF80730FFF712
:1087F0009DFE2A681368591C1160E968641A298A69
:10880000B4FBF1F41C709DF80700FFF7B3FE03B052
:1088100030BD0B6801601146184710B40468E46865
:10882000A4465DF8044B604710B404682469A4466C
:108830005DF8044B6047000070B550B90E4D0F4C09
:108840000026641B1423B4FBF3F4B44208D10020C7
:1088500010E00368002BF1D0BDE87040DB691847D9
:108860002B6813B901361435EFE7DB6928469847C2
:108870000028F7D070BD00BF685900207C59002047
:10888000014B436000207047ECD607000846704754
:1088900000207047024B1868003818BF012070474D
:1088A000D459002008B50248FFF75BFF002008BD3F
:1088B000D459002008B510461A4604F054FE002092
:1088C00008BD00002DE9F041804686B011480F46F2
:1088D00016461D46FFF742FF0446C8B9AA083146AE
:1088E000384601F0BDF80B48FFF73BFFD8F80830D9
:1088F00053B101228DF800200C9A0592CDE9014771
:10890000CDE9036568469847204606B0BDE8F0818A
:108910001124F9E7D45900202DE9F043814687B0AE
:1089200014480E4615469846FFF718FF0446F0B95E
:108930000746BD4215D10F48FFF713FFD9F808309D
:108940005BB102228DF800200022CDE90126CDE99D
:108950000325CDF8148068469847204607B0BDE847
:10896000F08306EB073001F04DF80137E1E7112401
:10897000F3E700BFD459002029DF704728DF704794
:1089800070B503689E6886B004460D466EB1142229
:108990000021684604F010FEA36805932379019531
:1089A0002BB1012B0DD06846B04706B070BD012336
:1089B0008DF8003023690293E3680393636904939D
:1089C000F1E702238DF80030E3681B030293F5E71B
:1089D0000846704700207047024B187A003818BFCD
:1089E00001207047C45B0020034B187A0122B0FAC3
:1089F00080F05A7440097047C45B002008B51046E7
:108A00001A4604F0B0FD002008BD000008B514228D
:108A10000021044804F0D0FD0348FFF7F0FD0020DA
:108A200008BD00BFC45B0020B45B002010B5094C3A
:108A3000094B43602046FFF791FE48B904F06AFCF9
:108A4000064920741C2306484FF4EE72FFF7C4FD5C
:108A5000002010BDC45B002018D70700D8590020A3
:108A6000B45B002038B5224D224C2B7A3BB9224909
:108A70002248FFF720FE206008B9686038BD022355
:108A800024682B72237973B1012B22D02046032155
:108A9000FFF776FF00232B726B6017491748BDE87C
:108AA0003840FFF733BED4E90523D21A142AD4E99B
:108AB000031028BF14229208012A38BF012219444A
:108AC0001844FFF759FF50B11128DFD101232B7251
:108AD000D4E7D4E903031844FFF750FFF3E72B7CF6
:108AE000002BCBD1BDE83840022000F009B800BF10
:108AF000C45B0020DC5B0020D85B0020B45B00205E
:108B000038B5224C237A002B3FD0022B09D1032801
:108B10002ED01F4B00221B68E2601A793AB1012A5D
:108B200020D0637C6BBBBDE83840FFF79BBFD3E927
:108B300005128D1A142D94BF521914329A61914264
:108B4000EFD102284FF0000308BF19462372104BE3
:108B500018BF0D211868FFF713FF0E490E48FFF7E5
:108B6000D5FDDEE71A6901321A615B699A42E7E7CF
:108B7000E3680133082B01D8E360D2E70023E36008
:108B8000DFE7BDE8384004F0B5BB38BDC45B00206A
:108B9000DC5B0020D85B0020B45B0020831E012B2F
:108BA00001D8FFF7ADBF704700F0FD03012B08D1DE
:108BB000044B00225A74421E504250411874FFF771
:108BC00051BF7047C45B002010B5064C201DFFF755
:108BD000C5FD28B9637C1BB9BDE81040FFF742BF53
:108BE00010BD00BFC45B00202DE9F34180460D4657
:108BF0000F4801A916461F46FFF723FD0446A8B1FA
:108C00001C22002104F0D8FC2D0B0123237101A9A3
:108C10000748C4F80080A760E5606661FFF73BFD88
:108C2000FFF7D2FF002002B0BDE8F0810420FAE790
:108C3000B45B00202DE9F74381468846104801A91E
:108C400017461E46FFF7FDFC0446B0B11C2200216A
:108C500004F0B2FC00250A9BA36001A9C4E90378D3
:108C600007482571C4F800906661FFF714FDFFF70F
:108C7000ABFF284603B0BDE8F0830420FAE700BF4D
:108C8000B45B00200B684A684360934208BF00232E
:108C9000016008BF43607047436843B10268916850
:108CA00052680B449342436004BF00234360704703
:108CB0002DE9F04FC9B008AA01F1400514464B78E0
:108CC0000E781B0443EA0663CE7833438E78043172
:108CD00043EA06238D4244F8043BF0D11024916B03
:108CE00016464FEAF14383EA714383EA9123716A9E
:108CF000366852F8045F31440B444FEAB54181EACB
:108D0000F51181EAD50101340B44402CD363E6D13F
:108D1000D0E914E30093836D0193C36D0293036E56
:108D20000393436E0493836E0593C36E0693DDE94C
:108D3000057BDDE9031CDDE901592B4B009E079300
:108D400074464FF00008079B53F8042B07934FEA33
:108D5000F12383EAB11383EA716A08AB53F8283030
:108D60001A440AEB020327EA010A01EA0C028AEA22
:108D700002021A444FEA743A86EA05035A44234031
:108D80008AEAB40A06EA050B83EA0B0B8AEAB45AAC
:108D900008F10108DA44B8F1400F02EB0903BB46C1
:108DA0005244A94619D172440265009A2244426590
:108DB000019A32448265029A2A44C265039A1A448F
:108DC000049B02660B444366059B63448366069BD3
:108DD0003B44C36649B0BDE8F08F674635468C46D4
:108DE000264619461446AEE744D7070030B5E0B131
:108DF0000F4A104900240025C0E91245C0E91412A9
:108E00000D4C0E4A0E4DC0E916420E4AC0E91852EA
:108E10000D4A826602F17452A2F523020023A2F6E3
:108E200092420364C266184630BD0E20FCE700BFC4
:108E300085AE67BB67E6096A72F36E3C3AF54FA5EB
:108E40007F520E518C68059BABD9831F70B5F0B172
:108E5000DAB900201CE00C468D180026AC42F8D090
:108E6000036C14F8012BC2540133402B0364F5D179
:108E70000146FFF71DFFD0E9123213F5007342F1EE
:108E80000002C0E912320664E8E70029E3D10E20AF
:108E900070BD70B50D461646044600287AD00029EC
:108EA00078D0036C8021372BC15403F1010243D8E1
:108EB000034400F13802002101339A423AD1D4E947
:108EC0001223216C0820E1FB0023C4E9122312BA0B
:108ED000E26323FA00F284F83B3084F83A201A0C5B
:108EE0001B0E214684F8392084F838302046FFF7DD
:108EF000DFFE691E7EB30023E26EDA4001F8012F27
:108F0000A26EDA400A71626EDA400A72226EDA40AC
:108F10000A73E26DDA400A74A26DDA400A75626D76
:108F2000DA400A76226DDA400833202B0A77E3D143
:108F3000002070BD1970BFE700233F2A08D92146E1
:108F40002046FFF7B5FE3822002104F035FBB6E7D6
:108F5000A3540132F1E71823226DDA4001F8012F02
:108F6000626DDA400A71A26DDA400A72E26DDA408F
:108F70000A73226EDA400A74626EDA400A75A26ED3
:108F8000DA400A76E26EDA40083B13F1080F0A77FE
:108F9000E2D1CDE70E20CCE743689B68184708B5BF
:108FA000436808305A7900F078FE002008BD2DE9AA
:108FB000F0410C469CB008461F460392FFF7ECFFB9
:108FC000D4F80480039998F80550BD4228BF3D4667
:108FD00006462A4604A800F055FE98F80520229976
:108FE0000CA800F05AFE00960CAB2A4604A904F126
:108FF000080001F023FD002848F2425018BF00206D
:109000001CB0BDE8F0810023C0E902328B881A440D
:10901000B1F9063002611A44C0E9001142610888C2
:10902000003818BF012070474268118838B50346E0
:10903000002937D0148A02F1100141602CB9C268AE
:109040000168FFF7E0FF204638BD9078118900F0F5
:109050003005302D14D1947C04F03004302C1BD119
:1090600090881969091A19610021908AB2F91620AD
:109070000844196901441961114459610120E3E769
:1090800000F0F004202C07D150894143002DECD191
:10909000986801309860E8E700F0C000802808BFB9
:1090A0000421F3E70846CFE770B5466804460D464D
:1090B00063681A88AA4204D19B7803F00F03082B37
:1090C00007D12046FFF7B0FF6368B342F0D100201C
:1090D00070BD0120FCE743681A44426011B10139B8
:1090E0009A4201D10120704713F8010B01F8010FDA
:1090F000F6E770B54568AA7802F00F06082E86B02C
:1091000003461FD103691C6800260CB906B070BD68
:10911000236862689D68267329466846FFF773FFD7
:109120006368049304F10C030593AB7803F0C00368
:10913000802B08BF231D684608BF0493FFF7D9FFA3
:10914000A468E2E712F0C00122D102F0300010283A
:109150000CD15A691170072EEC6818690BD10146C1
:10916000204606B0BDE8704000F01AB89006F2D56F
:109170005B691980CAE72A89214624B106B0BDE897
:10918000704004F0F0B906B0BDE8704004F014BAC5
:109190008029BBD10069002192060160B6D5E7E7BE
:1091A0007FB50A4601466846FFF72DFF30B1684695
:1091B000FFF79FFF6846FFF737FFF7E707B05DF857
:1091C00004FB836810B504460BB9002010BD03688A
:1091D000012298470028F8D0A368013BA360F5E777
:1091E0002DE9F3410F460DF107018046FFF7E9FF36
:1091F000054620B90025284602B0BDE8F0819DF95A
:1092000007309DF80740002B13DA04F07F0407268F
:109210000DF107014046FFF7D4FF0028EAD09DF882
:10922000072002F07F03B3401C43130606F1070634
:1092300001D43C60DFE7232EEAD1DBE730B50446FA
:1092400085B01546A9B90268114B9A4211D0102D6C
:1092500006D82A4669462046FFF7F0FF05B030BD24
:10926000102269462046FFF7E9FF0028F6D0103D9E
:10927000EDE7A368AB4201D20020EFE723682A465E
:10928000204698470028F7D0A268521BA260E5E765
:10929000D7900700F7B50E4601A907461546FFF718
:1092A0009FFFA0B1019A511C4FF0000404D2B37883
:1092B00003F0C003802B01D1204608E033898B42A4
:1092C000FAD329463846FFF7B9FF019BEC5403B0A7
:1092D000F0BD73B50D4601A906461446FFF780FFA1
:1092E00098B1019AB2F5803F11D2AB7803F0C00378
:1092F000802B02F102010AD02B898B4207D3214631
:10930000304621F8022BFFF799FF02B070BD002014
:10931000FBE7000010B5034C82600022C0E9004169
:10932000C26010BDD79007002DE9F34100258046AB
:109330000E462F462C460DF107014046FFF741FF30
:10934000C0B19DF807C0A4F120030CF07F02C4F166
:10935000200102FA03F322FA01F10B43A2401CF0B0
:10936000800F45EA020547EA030704F1070404D128
:10937000C6E9005702B0BDE8F081462CDBD10020E1
:10938000F8E737B50D4669461446FFF7CDFF70B1D3
:109390002B89082B0DD1DDE90032C4E90032DDE96B
:1093A0000001914208BF98420CBF0120002003B089
:1093B00030BD042B03D1009B23600022EFE7022B7A
:1093C00003D1009B23809BB2F7E7012B04D1009BC4
:1093D000237003F0FF03F0E70020E8E737B50D4600
:1093E00069461446FFF7A0FF30B12B89082BDDE951
:1093F000001203D1C4E9001203B030BD042B4FEAC0
:10940000E17009D121600B460246824208BF8B42BF
:109410000CBF01200020EFE7022B03D10BB2238009
:10942000DA17F2E7012B02D14BB22370F8E70020E4
:10943000E2E7F7B51F4600233B700D460B70136043
:1094400001A904461646FFF7CBFE30B9A36813B94D
:1094500001233B70002003B0F0BD019C002CF7D02D
:10946000E30804F0070433602C70F4E713B50446F6
:10947000052925D8DFE801F0030F17242422012253
:1094800001A92046FFF7DAFE18B19DF90430002B40
:10949000F5DB02B010BD08220021204602B0BDE875
:1094A0001040FFF7CBBE01A9FFF79AFE0028F0D0CD
:1094B000019A00212046FFF7C1FEEAE70422EBE70C
:1094C0000020E6E773B50D4601A90446FFF788FEC4
:1094D000064618B90026304602B070BD94E80F0069
:1094E00085E80F0001998A42F4D3A960A3685B1A4A
:1094F000A360F0E72DE9F0435668B37813F0C00499
:1095000089B007468C46154603D0402C69D000240C
:109510000CE003F00F02604903F03003202B51F8F8
:10952000228025D006D8E3B1102B17D0204609B0F1
:10953000BDE8F083302BF9D16B6931881980072A97
:1095400009D121463289286904F036F86B68296907
:10955000D868FFF725FE2A69696840E06B69012237
:109560001A702A693146434609B0BDE8F0431847EE
:10957000BCF1020FD5F8149024D1042A22D804A9F2
:10958000FFF7A0FF04460028C1D0069B2BB16968F5
:10959000B9F800304A899A4205D8059B7B60069B42
:1095A000002BC3D0B3E708892A6903FB002204A873
:1095B000C04728B1B9F800300133A9F80030E4E71A
:1095C0000446EAE7B9F8003072899A429FD9318996
:1095D0002A69581C03FB0122A9F8000031463846CD
:1095E000C1E7D2F81080464656F8043B23B909B0CB
:1095F000BDE8F043FFF73ABF022914D104A9FFF7F1
:1096000061FF002883D0D8F800306968324604A88A
:109610009847044600283FF47AAF069B002BF2D10E
:10962000059B7B6082E7012926D005292CD00029E3
:109630007FF46DAF0C460DF1040901340B2C3FF49F
:1096400066AF012249463846FFF7F8FD00283FF48F
:109650005EAF19F9013B002BEFDB104B049301AB1C
:10966000CDE90534002307936968D8F80030324605
:1096700004A89847044659E7082201A9FFF7DEFD30
:1096800008240028E9D142E704220DEB0201FFF78C
:10969000D5FD0424F5E700BF50D80700D790070098
:1096A0002DE9F04F91B00446002604A8CDE90266EA
:1096B000FFF7A9FCA3683BBBDDE9053404A89D784E
:1096C000FFF7B2FC0028F7D115F0300F03D1059B4E
:1096D0001B8803B10134002C00F0A980630902A9A2
:1096E0000022934240F09C8010AA02EB830304F016
:1096F0001F0453F8383CC4F120044FF0FF30E04021
:10970000C31A584258410DE00DF1030301AA0DF1AF
:1097100002012046FFF78DFE38B99DF80330002B7B
:10972000CAD1002011B0BDE8F08F019904A8FFF75D
:10973000BBFC002850D1019BB3427DD3059D059A07
:10974000937803F00F03082B7FD004A8FFF76CFC7D
:10975000059B9D42F3D14FF0FF36019FB7426BD37B
:10976000089B9DF802A0D4F808801D684FF00109FD
:10977000A368002D5DD098459CD12B68D3F800B02C
:10978000BBF1000F08D053463A4629462046D84739
:109790000028C6D0AD68EBE7D3F808B0BBF80030BE
:1097A0009F42F7D16A6859460AA8FFF72CFC6B68FC
:1097B0000E9305F10C030F939BF8023003F0C003E6
:1097C000802B04BF2B1D0E930AAA85F80C905146DE
:1097D0002046FFF78FFEDBE7059B9B7813F0300FE9
:1097E0000FD1069A3F2A0CD8510910AB03EB810127
:1097F00002F01F020123934051F8382C134341F823
:10980000383CE5682DB19DF80220019904AB204653
:10981000A8479DF8021004AA2046FFF76BFE10E04F
:1098200051F8045B01357FF47DAF013259E7012027
:1098300078E798457FF43EAF9DF802102046FFF789
:1098400015FE00287FF436AF6BE7168885E737B53D
:109850000C460546114620460192FFF7A1FC019AED
:109860002146284603B0BDE83040FFF719BF70B568
:1098700086B0CE6801920C4602A90546FFF722FE8B
:1098800068B1E06858B1A378019A03F03003202B47
:10989000314602A805D1FFF7DAFF039B6B6006B0E3
:1098A00070BDFFF7FDFEF8E713B50C466946FFF7FC
:1098B0003BFD60B1DDE900134A0842EAC372C90703
:1098C0004FEA530344BFD243DB43C4E9002302B051
:1098D00010BD37B50D4669461446FFF7E5FF70B178
:1098E0002B89082B0DD1DDE90032C4E90032DDE916
:1098F0000001914208BF98420CBF0120002003B034
:1099000030BD042B03D1009B2360DA17EFE7022B55
:1099100003D1BDF900302380F7E7012B03D19DF976
:1099200000302370F1E70020E9E713B504220C466C
:109930000DEB0201FFF782FC08B1019B236002B02E
:1099400010BD1146FFF7F1BF13B508220C4669465A
:10995000FFF774FC18B1DDE90023C4E9002302B06D
:1099600010BD1146FFF7F0BF044B1A5C0123934072
:109970004FF0A042C2F80C35704700BF74D8070002
:10998000044B1A5C012393404FF0A042C2F8083503
:10999000704700BF74D8070008B50020FFF7F0FF3C
:1099A0000120FFF7EDFF0220FFF7EAFFBDE80840C6
:1099B0000320FFF7E5BFC20708B501460CD54FF0FD
:1099C000A0430322C3F84427C3F84827C3F84C2711
:1099D000C3F85027FFF7E0FF8B070AD54FF0A043ED
:1099E0000C22C3F83427C3F83827C3F83C27C3F840
:1099F000402708BD024AD2F80034002BFBD0704744
:109A000000E001400A4908B50223C1F80435BFF35C
:109A10006F8FBFF34F8FC1F80805FFF7EBFF0023EF
:109A2000C1F80435BFF36F8FBFF34F8F08BD00BF80
:109A300000E0014010B5094C0123C4F80435BFF320
:109A40006F8FBFF34F8F0160FFF7D4FF0023C4F87F
:109A50000435BFF36F8FBFF34F8F10BD00E001409F
:109A600070B50E4E01231546C6F80435BFF36F8F4F
:109A7000BFF34F8F0024AC4207D10023C6F8043552
:109A8000BFF36F8FBFF34F8F70BD51F8243040F894
:109A90002430FFF7AFFF0134EDE700BF00E00140E5
:109AA00028B139B10023C1E900301846704748F2A7
:109AB0001050704748F21350704730B1036848F2B5
:109AC00040508B4208BF0020704748F2105070474A
:109AD00028B148F21150914208BF0020704748F267
:109AE0001050704770B506460C461D46FFF7D8FF6C
:109AF00050B9B3794AB1AB420AD111462046FFF7BB
:109B00004EFA08B9044B236070BD48F21050FBE7D1
:109B100048F21150F8E700BF7052464D2DE9F0476A
:109B20000C4606460F492046DDE9088915461F46C2
:109B3000FFF7C3FFA0B963685A794946520040460F
:109B4000FFF7C6FF60B94DB1CDF820803B462A46ED
:109B500021463046BDE8F047FFF729BA48F21050D9
:109B6000BDE8F0877052464D10B5044638B149B192
:109B70000B684160984708B9044B236010BD48F258
:109B80000150FBE748F21050F8E700BF6E5246481C
:109B9000F0B4134648B10768094EB7420AD161B123
:109BA0002AB14368F0BC5B68184748F20153184675
:109BB000F0BC704748F20253F9E748F21053F6E759
:109BC0006E524648F0B460B107680C4EB7420CD1F3
:109BD00071B143681568DC68A5420CD3F0BC9B6882
:109BE000184748F20150F0BC704748F20250FAE7BB
:109BF00048F21350F7E748F21450F4E76E52464823
:109C0000F7B50446DDE9086715460193FFF7ACFF99
:109C100068B9019A29462046FFF7BAFF38B93A4693
:109C20003146204603B0BDE8F040FFF7CBBF03B09C
:109C3000F0BD0000F8B50A4F0A4C0B4EE41B01239F
:109C4000E40833700025A54203D1022333700020BD
:109C5000F8BD57F8353098470028F9D10135F2E7BB
:109C600080D6070080D60700E05B00200139014460
:109C7000814200D2704703780A7800F8012B01F87E
:109C80000139F5E7013A02440139824200D27047B6
:109C900011F8013F02F80139F7E770B516460D4695
:109CA000FFF7F0FF3246A9193044BDE87040FFF7D6
:109CB000E9BF38B50D460446FFF7D8FF29466019BD
:109CC000BDE83840FFF7D2BFBFF34F8F0549064BC1
:109CD000CA6802F4E0621343CB60BFF34F8F00BF4A
:109CE000FDE700BF00ED00E00400FA0508B5072815
:109CF0001BD8DFE800F004121A1A1A041A04012013
:109D0000FFF759FE0020FFF72FFE0120FFF72CFE82
:109D1000BDE808400220FFF733BE0120FFF730FE08
:109D2000BDE808400220FFF71FBE08BD08B5FFF7D9
:109D3000CBFF08B5FFF7C8FF08B501F04FFB4FF4A4
:109D40008051002001F011F908B1FFF7BDFF05486F
:109D5000C0F5FC2101F009F90028F6D1024801F014
:109D600023F8F2E700800700ED9C07008B181044F1
:109D70008B4200D1704713F8012D00F8012DF7E751
:109D8000C3F10803DB0070B501330446002003A5CE
:109D90005B1920C940CAAD1920C4184720C940CA60
:109DA000754120C420C940CA754120C420C940CA99
:109DB000754120C420C940CA754120C420C940CA89
:109DC000754120C420C940CA754120C420C940CA79
:109DD000754120C4404170BD00000000000000003B
:109DE000C3F10803DB0070B50133002403A500BFF5
:109DF0005B1920C940CAAD1B20C0184720C940CA02
:109E0000B54120C020C940CAB54120C020C940CAC0
:109E1000B54120C020C940CAB54120C020C940CAB0
:109E2000B54120C020C940CAB54120C020C940CAA0
:109E3000B54120C06441B4FA84F0400970BD00BF50
:109E40002DE9F04F08B4F8CA04B451F8042BA3FB71
:109E5000028940F8048B4FF0000AE4FB629A4FF04D
:109E6000000BE5FB62AB4FF0000CE6FB62BC4FF071
:109E7000000EE7FB62CE51F8042B4FF00008E3FB25
:109E8000628940F8048BE4FB629AE5FB62ABE6FB77
:109E900062BCE7FB62CE51F8042B4FF00008E3FBF5
:109EA000628940F8048BE4FB629AE5FB62ABE6FB57
:109EB00062BCE7FB62CE51F8042B4FF00008E3FBD5
:109EC000628940F8048BE4FB629AE5FB62ABE6FB37
:109ED00062BCE7FB62CE51F8042B4FF00008E3FBB5
:109EE000628940F8048BE4FB629AE5FB62ABE6FB17
:109EF00062BCE7FB62CE40F8049B40F804AB40F83C
:109F000004BB40F804CB40F804EB0CBC052B00F07C
:109F10001E810C68A0F11400A1F11401A2F1140239
:109F200052F804EB4FF0000550F8046BE4FB6E565A
:109F300052F804EB50F8047BE4FB6E6752F804EB34
:109F400050F8048BE4FB6E7852F804EB50F8049B55
:109F5000E4FB6E8952F804EB50F804ABE4FB6E9A14
:109F6000A0F1140052F8044B51F804EB4FF0000C30
:109F7000E4FB6EC540F804CB51F804EBE4FB6E56ED
:109F800040F8045B51F804EBE4FB6E6740F8046BA7
:109F900051F804EBE4FB6E7840F8047B51F804EBD5
:109FA000E4FB6E8940F8048B51F804EBE4FB6E9AF5
:109FB000A0E80006062B00F0CA800C68A0F118008B
:109FC000A1F11801A2F1180252F804EB4FF00005BC
:109FD00050F8046BE4FB6E5652F804EB50F8047B27
:109FE000E4FB6E6752F804EB50F8048BE4FB6E78E8
:109FF00052F804EB50F8049BE4FB6E8952F804EB32
:10A0000050F804ABE4FB6E9A52F804EB50F804BB32
:10A01000E4FB6EABA0F1180052F8044B51F804EBCE
:10A020004FF0000CE4FB6EC540F804CB51F804EB94
:10A03000E4FB6E5640F8045B51F804EBE4FB6E67FA
:10A0400040F8046B51F804EBE4FB6E7840F8047BB5
:10A0500051F804EBE4FB6E8940F8048B51F804EBF3
:10A06000E4FB6E9A40F8049B51F804EBE4FB6EAB02
:10A07000A0E8000C072B6AD008B40C68A0F11C0003
:10A08000A1F11C01A2F11C0252F804EB4FF00005F3
:10A0900050F8046BE4FB6E5652F804EB50F8047B66
:10A0A000E4FB6E6752F804EB50F8048BE4FB6E7827
:10A0B00052F804EB50F8049BE4FB6E8952F804EB71
:10A0C00050F804ABE4FB6E9A52F804EB50F804BB72
:10A0D000E4FB6EAB52F804EB50F804CBE4FB6EBC2F
:10A0E000A0F11C0052F8044B51F804EB4FF00003B0
:10A0F000E4FB6E3540F8043B51F804EBE4FB6E568C
:10A1000040F8045B51F804EBE4FB6E6740F8046B25
:10A1100051F804EBE4FB6E7840F8047B51F804EB53
:10A12000E4FB6E8940F8048B51F804EBE4FB6E9A73
:10A1300040F8049B51F804EBE4FB6EAB40F804AB31
:10A1400051F804EBE4FB6EBCA0E8001808BCBDE8C5
:10A15000F08F002310B51C465AB2914200DC10BDAE
:10A1600040F823400133F7E710B500231A465CB2EC
:10A17000A14203DCB2FA82F0400910BD50F823403E
:10A1800001332243F3E74A11012350F8220001F082
:10A190001F0103FA01F108407047013910B549B2B7
:10A1A000041D0A06CBB204D4013954F82120002A38
:10A1B000F7D001335BB273B103F18042013A50F83A
:10A1C0002220002022B9013B00EB431318B210BD3E
:10A1D00052080130F6E71846F9E710B500235CB2E3
:10A1E000A24200DC10BD51F8234040F82340013367
:10A1F000F5E710B5013A52B2130601D5002010BDA3
:10A2000050F8224051F822309C4205D802F1FF322A
:10A21000F2D24FF0FF30F2E70120F0E700EB8101CE
:10A220000023884200D3704751F8042D43EA5203BB
:10A230000B60D307F5E737B51D469DF9183001933C
:10A240000446FFF79DFD019B38B91A462146284672
:10A25000FFF7CFFF0128019B07D02A462146204661
:10A2600003B0BDE83040FFF7BBBD03B030BD37B52C
:10A270001D469DF9183001930446FFF7B1FD019B7F
:10A2800038B12A462146204603B0BDE83040FFF7EA
:10A2900077BD03B030BD2DE9F04FB5B004AC9DF9EA
:10A2A000F8501F4680462B462046FFF7C9FD24ABD9
:10A2B00029463846CDE90234FFF76FFFC0EB851021
:10A2C00004B2002C2146B8BF04F11F01634203F021
:10A2D0001F0341F3471104F01F0614A858BF5E4244
:10A2E000FFF737FF002E08B22BDD14AB002203EB83
:10A2F0008000C6F1200E1346AB4217D36B000193CA
:10A3000014AB03EB85096F1E34AB012603EB870703
:10A31000002C54DA34AB03EB86062A4656F8C81CE8
:10A320004046FFF75AFF35B0BDE8F08F57F823C01D
:10A330000CFA06F10A4340F8042B01332CFA0EF212
:10A34000DAE714AB2A46394603EB8000FFF745FFF6
:10A35000D4E70FFA82FE5AF8C83C53F82EB034AB5B
:10A3600003EB8202013052F8803C0B44BBEB030349
:10A3700034BF012200229B4518BF11465CF8C82C4F
:10A3800042F82E30019B42B29A42E2DB731A5E42DF
:10A39000294614A85E41FFF741FF34AB03EB850368
:10A3A000294653F8802C57F8803C43EAC27347F89B
:10A3B000803C4846013CFFF731FF24B2A8E734ABAC
:10A3C0000020C6F1010C014603EB860A03EB8C0C5E
:10A3D000D8E730B51C4691B0054693F90030684681
:10A3E000FFF72EFDD4F8AC3069462846984711B0E7
:10A3F00030BD13460A46FFF7ECBF2DE9F04793F94D
:10A40000006092B0044689461046314615461F4604
:10A41000FFF7AAFE002840F091803A46494602A87C
:10A42000FFF7E7FF3B4602AA21460AA8FFF7D1FF44
:10A4300002A908463A46FFF7DCFF3B462A46494652
:10A440004846FFF7C6FF07F104083A462946284662
:10A45000FFF7CFFF43462A46214620460096FFF7E6
:10A46000EAFE43462A46294628460096FFF7E3FEC1
:10A4700043462A46214628460096FFF7F8FE3B460B
:10A480002A4621462046FFF7A4FF4346224621469E
:10A4900028460096FFF7CFFE434600962A462146FF
:10A4A0002046FFF7C8FE2368DB074AD533464246FD
:10A4B00021462046FFF764FC314682462046FFF7DE
:10A4C000ADFE06F18043013B54F8232042EACA72F4
:10A4D00044F823203A4621462846FFF78AFF4346A0
:10A4E0000AAA294628460096FFF7C1FE43460AAA53
:10A4F000294628460096FFF7BAFE0AA908464346B1
:10A500002A460096FFF7B3FE3B460AAA214620469C
:10A51000FFF75FFF02AA4346104621460096FFF769
:10A52000A6FE324629462046FFF757FE49462846F2
:10A53000FFF753FE02A94846FFF74FFE12B0BDE8F1
:10A54000F08731462046FFF769FEC3E72DE9F04169
:10A5500015468AB004460E461C22002103A803F0CB
:10A560002BF82F1D95F9008003232A4631462046FB
:10A570000293FFF73EFF3B4602AA21462046CDF854
:10A580000080FFF774FE2B46324621462046FFF737
:10A5900020FFCDF800803B4605F18402214620468D
:10A5A000FFF749FE0AB0BDE8F08100002DE9F04256
:10A5B000082288B0FFF711FECB6A03930B6B04935C
:10A5C0004B6B05938B6B0693CB6B07930C468146C5
:10A5D0000027134669466A466846CDE90177009729
:10A5E000FFF7CEFB082305466A4649464846FFF773
:10A5F000C7FB236B0393636B0493A36B0593E36B1C
:10A600000544CDE906376A46082369466846FFF7E0
:10A61000B7FB082305446A4649464846FFF7B0FBA6
:10A62000236A0093636A0193A36A0293A36B069360
:10A63000E36B0793054408236A4649464846CDE93B
:10A6400004770397FFF79CFB636A0093A36AA26BEE
:10A650000193E36A02930492636BE26B0393CDE987
:10A660000523236A07932E1808236A46494648465D
:10A67000FFF786FBE36A0093236B0193636B0293FE
:10A68000236A0693A36A0793351808236A46494646
:10A690004846CDE904770397FFF7A2FB236B0093AD
:10A6A000636B0193A36B0293E36B0393636A06935B
:10A6B000E36A07932E1A08236A4649464846CDE9BD
:10A6C0000477FFF78DFB636B0093A36B0193E36B40
:10A6D0000293236A0393636A0493A36ACDE905375F
:10A6E000236B0793361A08236A4649464846FFF704
:10A6F00077FBA36B0093E36BCDE90137636A0393A8
:10A70000A36A0493E36ACDE90537636B0793361AAE
:10A7100008236A4649464846FFF762FB361A0E4C44
:10A720000FD436B9082249462046FFF762FD0128BA
:10A730000FD00823224649464846FFF751FB361AF8
:10A74000EFE70823224649464846FFF719FB36182B
:10A75000F7D408B0BDE8F082BCD8070070B5144645
:10A760008AB006460D461A46214602A80193FFF715
:10A7700040FE019B02AA31463046FFF72AFE02A99D
:10A78000019B22460846FFF724FE019B02AA2946A8
:10A790002846FFF71EFE0AB070BD2DE9F0478AB0CB
:10A7A0001446DDF848A055461F4615F9046B00967F
:10A7B000804689462B460246214602A8FFF757FDF0
:10A7C00002A952460846FFF714FE534602AA414624
:10A7D0004046FFF7FEFD534602AA21462046FFF7FA
:10A7E000F8FD2B464A46394638460096FFF73FFDAE
:10A7F0005246394602A8FFF7FCFD02A92B46424605
:10A8000008460096FFF733FD02A92B46224608466C
:10A810000096FFF72CFD2B46424621462046009627
:10A82000FFF725FD5346224649464846FFF7D1FD2E
:10A830002B4602AA414620460096FFF718FD5346D4
:10A84000224639463846FFF7C4FD2B464A4639466C
:10A8500038460096FFF70BFD324602A92046FFF767
:10A86000BCFC0AB0BDE8F0872DE9F0471F46B3F9FC
:10A87000023013F11F0448BF03F13E04DD1D48BF41
:10A8800003F10E056611EC10944275B228BF144610
:10A8900089462946FFF75DFC224649468046FFF778
:10A8A00065FAB7F90230B3EBC40F4FEAC4021FD206
:10A8B000D21A08EB86040021C2F12006A0450ED36F
:10A8C00024372A4641463846FFF793FC01280FD02B
:10A8D0002B463A464046BDE8F047FFF781BA54F8A8
:10A8E000040D20FA02F30B43236000FA06F1E5E7BA
:10A8F000BDE8F08770B5036813F0010605461446FD
:10A9000005D013460A460146FFF73AFA06462146A5
:10A910002846FFF783FC46B104F18042013A55F81E
:10A92000223043F0004345F8223070BDF0B50F46A9
:10A93000A1B006461946384615461C46FFF714FCDA
:10A9400028B1304621B0BDE8F040FFF702BC2246F6
:10A9500039466846FFF741FC294608A8FFF73DFC49
:10A9600010A82146FFF7F5FB012318A81093FFF765
:10A97000F0FB224608A96846FFF73BFC30B92246A7
:10A9800010A93046FFF729FC21B0F0BD009BDA0783
:10A9900009D421466846FFF741FC2246294610A803
:10A9A000FFF7A8FFE5E7089BDB0707D4214608A8C7
:10A9B000FFF734FC2246294618A8F1E70028234671
:10A9C0001CDD08AA69466846FFF70AFA2146684670
:10A9D000FFF724FC224618A910A8FFF70AFC00285C
:10A9E00005DA10A923462A460846FFF7C9F910A937
:10A9F000234618AA0846FFF7F3F9CEE76A4608A8E7
:10AA0000FFF7EEF9214608A8FFF708FC224610A937
:10AA100018A8FFF7EEFB002805DA18A923462A46F6
:10AA20000846FFF7ADF918A9234610AA0846FFF714
:10AA3000D7F9BFE700487047B8D807002DE9F04FB5
:10AA40002DED028BEBB00D46769E03901946B6F9BC
:10AA5000023096F9004013F11F0848BF03F13E0889
:10AA600048F3471808F1FF3B22AB002743F82B704F
:10AA70006AAB03EB8B034AA843F8807C43F8607C05
:10AA8000924696F90120FFF771F996F9012052A834
:10AA90001144FFF76BF921464AA8FFF765FB814691
:10AAA000002840F0278152A8FFF75EFB02900028A3
:10AAB00040F0228106F1240942464AA94846FFF7A0
:10AAC00098FB012840F01A81424652A94846FFF7F8
:10AAD00090FB0128049040F011810AAF43464A469A
:10AAE0001AA8FFF723FF029B47F82B30524629464E
:10AAF00038463346FFF7B8FE394638464B461AAA61
:10AB0000CDF80080FFF7C7FB5AAD4B461AAA4AA9F9
:10AB100012A8CDF80080FFF7BEFB22462846039915
:10AB2000FFF75BFBA3000593039B05EB840A03EB94
:10AB3000840106F1440B5046FFF74FFB594632A8FB
:10AB4000FFF74BFBA3000BEB03013AA8FFF745FB14
:10AB5000331D294632AA1AA8009408EE103AFFF7CE
:10AB600086FB53462A463AA932A80096FFF715FEFF
:10AB70001AA9084618EE102A2346FFF7D7FE1AAA8C
:10AB8000514628463346FFF7E9FD029BCDE9063BD7
:10AB9000039B41463846CDE90835FFF7FEFA4146AA
:10ABA000834612A8FFF7F9FA5845B8BF584685B250
:10ABB000691E09B238460391FFF7E5FA0399071EAB
:10ABC00012A818BF0127FFF7DEFA002814BF0220E1
:10ABD00000200DF1180A074322465AF8271022A830
:10ABE000FFF7FBFA0DF1A80BA30019445846FFF735
:10ABF000F4FA1AA82146FFF7ACFA049B0360023D61
:10AC000022AB2DB203938246002D26DA18EE102ACD
:10AC1000234651465046FFF789FE03983346524675
:10AC20005946FFF79BFD039942464846FFF7E1FA74
:10AC3000012804D043464A460846FFF7D1F8013CB4
:10AC400064B24AAA23064AD5029BB3FA83F04009AC
:10AC50006BB0BDEC028BBDE8F08F33465246D6F8A0
:10AC6000A47003985946B84729460AA8FFF78BFAFB
:10AC70002946071E12A818BF0127FFF784FA0028EB
:10AC800014BF02200020074306AB53F8271019B366
:10AC9000224632A8FFF7A1FA059B3AA81944FFF70C
:10ACA0009CFA01463346524632A8FFF757FD18EE8C
:10ACB000103A0399009432AA42A8FFF7D8FA039AEF
:10ACC00000965B463AA932A8FFF767FD334642AAD1
:10ACD00051465046FFF77DFB013D2DB294E7039BA3
:10ACE00052F8241053F824304B4002991943029132
:10ACF000013CA7E73846ABE74846A9E70298A7E733
:10AD0000008800F00100704741DF7047014B0122CD
:10AD10001A70704704600020BFF34F8F0549064B3F
:10AD2000CA6802F4E0621343CB60BFF34F8F00BFE9
:10AD3000FDE700BF00ED00E00400FA05024B034808
:10AD400000221A7001F036BC0460002019AD070023
:10AD5000042810B5044609D8022811D816D00D4B86
:10AD60001B68B3B12046BDE810401847831F012B74
:10AD7000F5D8094B094800221A7001F01BFCEEE7D8
:10AD800007494FF4701000F0FDF9E8E701F05EFBB1
:10AD9000E5E710BD086000200460002019AD070041
:10ADA0003DAD07000020704738B5594B594A18602F
:10ADB0004FF0A0430020C3F8402701F011FC0446E7
:10ADC000002840F09F8000F0B3FA012800F0958041
:10ADD000022800F09980002840F094804FF08043D2
:10ADE000D3F8004414F480343AD04FF48032C3F8DE
:10ADF00000240446484D2B6A012B44D04FF47014B4
:10AE000000F030FB454A20211820FDF7D5FA08B1A3
:10AE1000FEF78FFF4FF08043D3F81C2502F0F802B5
:10AE2000B02A09D1D3F81C25D20742BFD3F81C257C
:10AE300002F04E02C3F81C25FFF7B4FF002861D1D1
:10AE40002046374900F09EF9364800F0C5FC00283E
:10AE500058D100F02DFBFDF73BFBFFF755FFF8E75E
:10AE6000D3F8202502F0F802A82A0AD1D3F8202529
:10AE7000D00706D5D3F8202502F05602C3F82025C6
:10AE8000B8E70124B6E74FF440535A68264B9A427C
:10AE900009D001F055FCAA69014694B1234801F09C
:10AEA00023FF90B9AAE76A6B1CB995F86032012BB1
:10AEB000EFD01F484FF4805101F016FF0028E8D171
:10AEC0009CE795F8A132012BE8D14FF0A043D3F8CD
:10AED0001035D90392D54FF08043D3F81C3513F0C9
:10AEE000B10F8BD101F0D8FB60B9124B187012482A
:10AEF00001F060FB00F024F804E00E4B0F481C70DA
:10AF000001F058FB032038BD4FF4A02478E700BFC0
:10AF1000086000200C000300D4770020E45B0020D0
:10AF20003DAD070051AD0700DBE5B151757A00205A
:10AF3000347A0020046000200DAD070019AD070031
:10AF400008B5074B4FF0FF32C3F88020C3F88021CB
:10AF500001F09EF8BDE808404FF4805000F032B890
:10AF600000E100E080F30888084770B5C1F30B04E6
:10AF700034BBB0F5FE2F23D84B1E1B0B020B03EB8B
:10AF8000103101264FF08040914201D2204670BD21
:10AF900002F01F03550906FA03F3032D05D8DFE875
:10AFA00005F00206090CC0F800360132ECE7C0F8E3
:10AFB0000436FAE7C0F81036F7E7C0F81436F4E7BD
:10AFC0000724E3E710B504461448C0F5FE21FFF757
:10AFD000CCFF08B1FEF7ADFE01F0B2FB104B9B6950
:10AFE00003F6FF7323F47F6323F00F031918002087
:10AFF000FFF7BBFF08B1FEF79CFEEFF305830023CC
:10B00000D4E9000183F3148883F3108883F3118853
:10B0100083F31388BDE81040FFF7A4BF008007004A
:10B02000D47700201FB518490B7853BB4FF08043ED
:10B03000A024D3F81824D2035CBF01229A60134BDA
:10B040000022C3F80021D3F8000103900398C3F84D
:10B050004021D3F8400102900298C3F84421D3F86C
:10B060004401019001980A4880F824431024446068
:10B070000220C3F8082501229A601A60C3F804036D
:10B080000A7004B010BD00BF1060002000400240F4
:10B0900000E100E037B56FF07F42154C057BD4F836
:10B0A00004358A4228BF0A46891A13444A1E942A44
:10B0B00023F07F4305F5A8729BBF963B9631416014
:10B0C000416044F822300B4B4FF4F86043F0010329
:10B0D0009847094BAA00134400221A601B68019389
:10B0E000019B4FF48033AB40C4F8043303B030BD50
:10B0F0000040024070D90700404102401C4BD3F889
:10B1000004212DE9F34152B11A490A6801320A605B
:10B110000022C3F80421D3F804310093009B164C9D
:10B12000164DDFF84C80164E00272B6873B12F6048
:10B130002B68227B0193019B4FF480339340C8F826
:10B140000833616851B12046FFF7A4FF0435B542CA
:10B1500004F11004E9D102B0BDE8F081A16811B199
:10B160002046FFF797FF2368002BEFD09847EDE7C5
:10B17000004002400C6000207C5900204041024009
:10B180004841024070B50B4B1D682A7B4FF4803359
:10B190009340094A0E46C2F80833044640B1FFF70F
:10B1A00041FF2E6021462846BDE87040FFF772BF80
:10B1B00070BD00BF9C5900200040024070B5074B95
:10B1C0001D6804460E46A860FFF72CFF2E6021463E
:10B1D0002846BDE87040FFF75DBF00BFA0590020C2
:10B1E000014B01221A707047116000202DE9F74FC2
:10B1F00006468846A8EB06052D0B02F6FF77144697
:10B2000000F030F9082D28BF08252B03DFF868B0BF
:10B2100001933F0B0CB9234629E0BD422CBFBA462F
:10B22000AA464FF000025146304634BFDDF8049084
:10B23000A14600F0F7FE0346C8B909F1030222F067
:10B2400003024146304600F0DFFE034678B9DBF8E2
:10B2500030304B44CBF8303001F0B2F9A7EB0A079D
:10B26000A4EB09044E44C84403460028D2D0184633
:10B2700003B0BDE8F08F00BFD477002010B501F017
:10B2800083FA124A916C01F500535C68104B9C42A2
:10B2900018D1D2E90C32934216D0884204D1BDE8CD
:10B2A0001040002001F08CB9D21A02F6FF7222F48D
:10B2B0007F6222F00F0219441844FFF797FF00281D
:10B2C000EDD010BD0320FCE70020FAE7D477002082
:10B2D000DBE5B15170B5144EF36A756AB46CAC2BF2
:10B2E00013D1736B1C44ED1AF36AAC2B13D00F48C7
:10B2F0002A46214602F000F9A8B100F0D9F8294603
:10B300002046BDE8704000F0A5BE002CECD101F055
:10B310002BFA0446E8E705482A46A4F5804102F0E6
:10B32000EBF80028E3D170BDD4770020008007003F
:10B3300070B5264CE36AAA2B37D005D8012B0BD069
:10B34000A52B2ED0002070BDAC2BFBD1FFF796FFB4
:10B3500048BBFFF7BFFF26E0A66C656A01F0F0F975
:10B36000864229D101F0ECF900222946FDF718F9AF
:10B37000A36A984202BF0123C4E90703A56100251F
:10B38000134801F0D1F9134B134800221A7001F051
:10B3900017F968B975B1236A012B14BF0120022087
:10B3A000D1E7FFF76BFF0125EAE7FFF793FFE6E739
:10B3B0000320C8E70120C6E7236BEA1AF1181844F6
:10B3C000FFF714FF0028DAD1CCE700BFD4770020C4
:10B3D000F877002011600020E1B1070010B50024CB
:10B3E000D4F8F83F013304D1084940F6F870FEF76D
:10B3F00021FBD4F8FC3F013307D1BDE810404FF4E6
:10B40000FC2140F6FC70FEF715BB10BD0080070064
:10B410000A4AD2F800347BB109480023D2F8081553
:10B42000D940C90748BF03F5C07103F1010348BF04
:10B4300042F82100072BF1D1704700BF0000014006
:10B440003546526EFFF7E4BF054B002282B0C3F8C9
:10B450000021D3F800310193019B02B0704700BF77
:10B460000000014038B50E4D2B78BBB90D4BD3F819
:10B4700000248AB1D3F80445FFF7CAFF40F61650FE
:10B48000A042B8BF20460849A0F54860FFF796FEE5
:10B49000064B4FF480321A6001232B7038BD00BF79
:10B4A000126000200000014045B4070000E100E008
:10B4B000034BD3F800340BB1FFF7AABF704700BFAE
:10B4C000000001404FF08053D3F83001421C04BF0C
:10B4D0004FF0704393F8E00F831F58425841704774
:10B4E0004FF0704393F8E02F062A09D1D3F8E83FD4
:10B4F000C3F30313033B032B02D8024AD05C70470B
:10B50000002070477ED9070008B5FFF7DBFF40B188
:10B510004FF080538F4AD3F82433C3F30423C2F887
:10B520004035FFF7DDFF10B18B4B8C4A5A67FFF7B0
:10B53000C9FF48B14FF080534FF08042D3F84432F6
:10B54000C3F34233C2F83C35FFF7CAFF30B1844A37
:10B55000D2F8FC3023F08073C2F8FC30FFF7B2FF62
:10B5600040B14FF080430022C3F80C21C3F81021F2
:10B57000C3F83825FFF7B4FF20B14FF08043032212
:10B58000C3F8A025FFF7ACFF60B1764B0522C3F8E6
:10B5900010260122C3F888260022C3F818263F226D
:10B5A000C3F814264FF08053D3F83021511C09BF43
:10B5B0004FF07043D3F8343193F8E02FD3F8E83FDD
:10B5C00008BFC3F30313062A4DD1033B032B03D853
:10B5D000654AD35C002B46D04FF08052634BD2F8C3
:10B5E0000414C3F82015D2F80814C3F82415D2F8AF
:10B5F0000C14C3F82815D2F81014C3F82C15D2F87F
:10B600001414C3F83015D2F81814C3F83415D2F84E
:10B610001C14C3F84015D2F82014C3F84415D2F80E
:10B620002414C3F84815D2F82814C3F84C15D2F8DE
:10B630002C14C3F85015D2F83014C3F85415D2F8AE
:10B640003414C3F86015D2F83814C3F86415D2F86E
:10B650003C14C3F86815D2F84014C3F86C15D2F83E
:10B660004424C3F87025FFF72DFF48B14FF08053F5
:10B670004FF08042D3F8583203F04F03C2F8E43E53
:10B68000FFF720FF48B14FF08043D3F80024D207E2
:10B6900044BF6FF00102C3F800244FF08053D3F889
:10B6A0003021062A0ED1D3F83431033B032B02D8C4
:10B6B0002F4AD35C33B12F4AD2F83C3743F480632E
:10B6C000C2F83C37264AD2F8883043F47003C2F8F7
:10B6D0008830BFF34F8FBFF36F8F4FF01023D3F835
:10B6E0000022002A03DBD3F80432002B2EDA224B8F
:10B6F0000122C3F80425D3F80024002AFBD04FF020
:10B7000010221521C2F80012D3F80024002AFBD021
:10B710004FF010231522C3F80422174BD3F800244E
:10B72000002AFBD00022C3F80425D3F80024002A05
:10B73000FBD0BFF34F8F0A49104BCA6802F4E06296
:10B740001343CB60BFF34F8F00BFFDE70C4B0D4A97
:10B750001A6008BD0030014000C007400DF0ADBACE
:10B7600000ED00E00050004076D9070000C0004026
:10B770007AD907000010004000E001400400FA05FB
:10B78000A45900200090D00313681F2B10B5144655
:10B7900007D900220830FDF77CFB08B9202323607D
:10B7A00010BD48F21450FBE70830FDF74FBB0830DE
:10B7B000FDF71CBB831F012B10B5044602D80020E7
:10B7C00000F09AFF034B1B681BB12046BDE81040F8
:10B7D000184710BD1460002008B5074B1860002002
:10B7E000FFF7E8FF054800F06FFF20B9BDE808400B
:10B7F000024800F0DFBD08BD14600020B5B70700A7
:10B800006CDF70476DDF704772DF704773DF704722
:10B8100074DF704775DF704776DF70477ADF7047F7
:10B820007CDF70477DDF70477FDF704786DF7047C2
:10B830008FDF704790DF7047A8DF7047AADF70473F
:10B84000ADDF7047AEDF7047B0DF7047B1DF7047E4
:10B85000B5DF704762DF704766DF704713DF704700
:10B8600001460148FCF7BBBF94D6070070B518220B
:10B870008CB000210DEB020001F09EFE28230893FE
:10B8800016231E4CADF806300023CDE90333059393
:10B890000223062223702371592301250926A27051
:10B8A00063710322FE236570E270A3710DF106013E
:10B8B000A0198DF818508DF82D500294ADF80C6039
:10B8C000FFF7B0FFB8B9BDF8063026725A19E27119
:10B8D000BDF80C200A4C134402A906AA2046ADF874
:10B8E0000C30FFF791FF30B92078FFF791FF2078F7
:10B8F0002946FFF78BFF0CB070BD00BF967000208B
:10B90000A8590020154938B50B68024613F001000C
:10B9100022D0134882421ED0124A10884FF6FF727E
:10B92000904213D043F004030B601321FFF774FF20
:10B9300090B90D4DC82445F001054FF47A40A84751
:10B94000013CFAD1BDE8384001F0A4BC074B18789F
:10B95000FFF75EFFF6E7002038BD00BFB87000209B
:10B9600080D60700AA59002070DB0700A8590020E4
:10B97000F0B50388232B8BB0044635D80F2B04D8A1
:10B98000012B00F0F9800BB0F0BD103B132BFAD85F
:10B9900001A252F823F000BF19BA070037BA070016
:10B9A00087B9070019BB07005DBC070087B907000E
:10B9B00087B9070087B9070087B9070087B907006B
:10B9C0006BBC070087B9070087B9070087B9070074
:10B9D00087B9070043BB070087B9070051BB0700C1
:10B9E00087B90700FFBA0700503B9AB2062ACAD8A7
:10B9F000062BC8D801A252F823F000BF63BA070093
:10BA000085BB07006BBC070087B9070087B9070033
:10BA1000BBBA070065BB0700974D83882B80974B07
:10BA20001B680BB101209847954928880BB0BDE8E9
:10BA3000F040FFF7EFBE904B4FF6FF721A80914B2C
:10BA40001B685A0704D4FFF711FF08B1FEF771F91C
:10BA50008A4B1B68002B96D002200BB0BDE8F0404B
:10BA60001847894EE288B3889A428CD18748FCF700
:10BA700092FE0546002886D0228A04F1120101F0C8
:10BA800072FD1822002104A801F096FD08238DF80C
:10BA900010307F4B06937F4B0596CDE9073504A800
:10BAA000238AADF8243000F07BFC00283FF46BAF14
:10BAB00076482946FCF793FE65E7E188F6291CD80D
:10BAC000CB1E9B070DD0CB1F9BB2013B5A4202F00D
:10BAD000030203F0030301F1FF3158BF5342C91AB7
:10BAE00089B2654B1888FFF7B3FE00283FF44BAFCF
:10BAF0000BB0BDE8F040FEF71CB9F721F1E70022DA
:10BB0000808804A9CDE90422FFF794FE00283FF4C1
:10BB10003AAFFEF70EF936E7574C0223049320881C
:10BB200002AB04AA42F605210593FFF789FE08B18E
:10BB3000FEF7FFF8002320881A468521FFF774FEE0
:10BB4000E4E74D4B00F108011888FFF763FECCE7EE
:10BB5000002304A980888DF810308DF81130FFF78C
:10BB600067FED3E7A379002B7FF40DAF424B13217F
:10BB70001888FFF751FEB8E73F4B00211888FFF700
:10BB80006BFEB2E7A379002B3FF4FDAE022B7FF4EE
:10BB9000FAAE3D4D2189AA8991427FF4F4AEA27B91
:10BBA000012A7FF4F0AE4FF480320592228A324EA1
:10BBB000ADF81820628AADF81A2004F11402079239
:10BBC00001AF298A3088049302AA02930397FFF7F2
:10BBD00037FE60B93846FFF793F840B940F2FD13DD
:10BBE0003088ADF8143004A9FFF72EFECBE6002311
:10BBF00004A93088ADF81430FFF726FE014600286E
:10BC00007FF4C1AE182204A801F0D6FC237D204A9F
:10BC10008DF81030022B0595069218D0062B10D007
:10BC2000012B10D11C4B1A881C4B1A80637DD4F851
:10BC300016200893012B099205D1194800F05CFDEC
:10BC400001E0637D089304A800F0AAFB9BE6124A7A
:10BC5000B4F815301380114A1380F4E700231A4614
:10BC600019468088FFF7E2FD3FE70023A0881A46C7
:10BC70001946FFF7EBFD38E7AA590020BC700020F9
:10BC800076DB0700B87000208270002094D6070091
:10BC9000E5BC070061B80700C0700020C27000203A
:10BCA00080D607007FB50023CDF80B308DF80F301C
:10BCB0000A4BADF806109B89ADF8083001238DF8CA
:10BCC0000A300DF10603CDE90430054B02A91888AE
:10BCD000FFF7B8FD07B05DF804FB00BF82700020DD
:10BCE000AA59002010B5044686B000210D2202A8F2
:10BCF000019101F061FC2378082B0BD1364A3749BA
:10BD000013880988013B9BB21380D9B1D3B90323AF
:10BD100011802370627823788DF805306021012A24
:10BD20008DF804108DF806200ED00B2A12D100F0E9
:10BD300087F98DF80700002000F07CF9042101A8A4
:10BD4000FFF7B0FF06B010BD062B05D0082B29D099
:10BD5000032B27D00321F2E7E1688DF80710D4E91F
:10BD60000123080A8DF80800080C090E8DF80A1046
:10BD7000110A8DF80B208DF80C10110C120E8DF895
:10BD80000E201A0A8DF80F308DF810201A0C1B0E99
:10BD90008DF80D108DF809008DF811208DF81230F6
:10BDA0000F21CCE7D4E90123110A8DF807208DF883
:10BDB0000810110C120E8DF80A201A0A8DF80B309B
:10BDC0008DF80C201A0C1B0E8DF809108DF80D2023
:10BDD0008DF80E300B21B2E7C2700020C070002039
:10BDE0002DE9F0413E4B94B005464FF6FF721A80A4
:10BDF00001204FF659632A4602A98DF80A00ADF8D2
:10BE00000830FFF719FD0446002865D1354B04AA18
:10BE100003F11007164618685968144603C408331E
:10BE2000BB422246F7D1A91C3046FFF713FD04465A
:10BE3000002851D101461C220DA801F0BDFB9DF840
:10BE400034308DF8044043F004038DF8343002237D
:10BE5000ADF80C30AB788DF80E3003238DF806303A
:10BE6000F423CDE90A44ADF82C302B464FF01108ED
:10BE700033F8040B0C9403AF01AE08AA0DA98DF89A
:10BE8000058008970996FFF7D9FC044620BB0146B8
:10BE90001C220DA801F090FB18238DF834300123EB
:10BEA000ADF80C30AB788DF80E3013238DF80630DA
:10BEB0001723CDE90A44ADF82C302B4608AA33F8F5
:10BEC0000C0B8DF804400DA90C94CDE908768DF883
:10BED0000580FFF7B3FC0446204614B0BDE8F081AE
:10BEE000AA59002058DB070030B5334C236813F003
:10BEF000010585B05DD1314B18603148FCF734FC49
:10BF0000029500F0B8F800284CD12E48FFF7A6FCA7
:10BF1000002847D101F080F9002843D102A801F0A0
:10BF20004DFA00283ED102A9012001F051FA002863
:10BF300038D102A801F0B4FA002833D100F09CFBFC
:10BF400030B1214800F08CFB236843F002032360EA
:10BF5000112302A88DF80430FFF754FC10BB9DF8A4
:10BF6000093002A801338DF80930FFF749FCC8B940
:10BF700023689B0718D514498869043182B201A847
:10BF8000FFF74EFC70B91148FFF748FC50B9104854
:10BF9000FFF726FF30B9FFF769FC18B9236843F0B3
:10BFA0000103236005B030BD0A4801F038FB0949A0
:10BFB000E4E70020F6E700BFB8700020BC70002066
:10BFC00094D60700008007001860002076DB070089
:10BFD0008270002050DB070043690BB1C06818472E
:10BFE0007047000010B40549054C0022904218BF6C
:10BFF000214604485DF8044BFCF70BBCF8D607005B
:10C0000024D707006859002007B5009313460A4655
:10C0100001460348FCF701FC03B05DF804FB00BFD8
:10C020006859002013460A4601460148FCF7FCBB4C
:10C0300068590020014B18700B207047C470002015
:10C04000024B002218781A70704700BFC47000209D
:10C0500018DF704730B585B0054610220C4668469B
:10C06000002101F0A9FAA408684601950294FFF79F
:10C07000EFFF05B030BD1FB50023CDE901330393B9
:10C08000684602230093FFF7E3FF05B05DF804FB69
:10C090004FF000534FF480521A60002070470000A8
:10C0A000014B06201B681847D07000200A2803D9CE
:10C0B0000B38C0B2FFF7BEBF7047000010B5044692
:10C0C00086B00020FCF7B8FB014638B1174A1821AA
:10C0D000204606B0BDE81040FCF792B91822684629
:10C0E00001F06AFA0423124A8DF80030114B116DE9
:10C0F0001B68994212D1104B186800F057FF8DF859
:10C100000100FFF7D3FFD4E901138DF80100684661
:10C1100098470A4800F054FA06B010BD01238DF884
:10C1200001306846D4E901139847F5E7BDC0070020
:10C13000D4770020C8700020CC700020A1C0070078
:10C14000F0B5044687B018220021684601F034FAA1
:10C1500022788DF8002001238DF80130531E0B2B1F
:10C1600000F21281DFE813F01D0010001D001D0019
:10C1700010011D0010011D001001100110010C0024
:10C18000824B07201B689847D4E9011368469847FB
:10C190009DF80130012B00F0EC807C4B05201B68E2
:10C1A000E6E0062A7A4901D0012A01D122690A7003
:10C1B0000A78012A04D0022A53D000230B7093E09E
:10C1C000072BE1D801A252F823F000BFEDC1070010
:10C1D00089C1070057C207002BC2070089C10700A9
:10C1E00051C2070089C1070005C20700674B032041
:10C1F0001B689847606900F0C5FCFFF757FF8DF892
:10C200000100C1E7A18A206900F0D4FCFFF74EFFCE
:10C21000604B8DF80100DA6B1B6C0293E3680192AE
:10C22000002BB1D020699847AEE75B495B4800F02E
:10C230000FFDFFF73BFF01288DF80100A4D100207E
:10C2400000F0BEF900289FD00A238DF801309BE74B
:10C250004FF4007303934F4BDA6B1B6C0192029304
:10C2600092E7072B90D801A252F823F08DC2070065
:10C2700089C1070043C307004DC3070089C10700F8
:10C2800077C3070089C10700EDC2070000F0B2FCC8
:10C2900008B90823D9E762690AB90323D5E7C2F3CD
:10C2A0000B0333B13B4B3C495B6D096813448B4234
:10C2B000F3D1B2F5805F01D90423C6E7354B364987
:10C2C000586D096815188D42E3D85A64DA6C9A647F
:10C2D00018651863314B1B68002201211844FFF7D1
:10C2E000A1FE00283FF450AF0523AEE700F082FC2A
:10C2F0000028CED0274DA18AD5E914329B1A6A6C4A
:10C300000B449342C9D8254B2F6B1B68206905F15C
:10C3100048021F44FCF744F9E368A28A21690646F3
:10C320003846FFF771FE08B1E3687BE7A38A2A6B02
:10C33000AE641A442A632A6D029613442B65019356
:10C3400022E7144B9A6C02921B6DF8E7114BD3E96C
:10C350001402596C821A8A429BD19A6C586500214A
:10C3600020465964DA64FFF7A9FE084B1B680420D5
:10C37000984707B0F0BD074B9A6C1B6D01934FF4C3
:10C38000805302920393FFE602235EE7D070002001
:10C39000AC590020D4770020C8700020CC70002059
:10C3A00083681BB1024A1821FCF72AB8072070479E
:10C3B00041C1070038B50546C0B10120FFF712FEA4
:10C3C000044648B900F0D0FB00F014FC30B9084B2B
:10C3D00000201D60FFF72EFE204638BD05490648A7
:10C3E00000F036FC0128F2D00324F5E70724F3E738
:10C3F000D0700020C8700020CC7000202DE9F041E2
:10C4000015464FF46072064688461F4601F074F8E0
:10C4100028B915B90020BDE8F081A847FAE7002245
:10C4200001213046FFF7FEFD70B94FF460724146BE
:10C43000384601F098F82B464FF460723946304682
:10C44000FFF7E2FD0028E5D00320E4E72DE9F04105
:10C450003B4C236801335AD000225821201DFCF7A1
:10C460009FF827683A1A57425741DFF8F080354D58
:10C47000D8F80060336801335ED000225821301DA7
:10C48000FCF78EF83368834243D17468012C0AD0DC
:10C490000022C32106F51870FCF782F8D6F85C423A
:10C4A000231A5C425C41B7B3254926484FF46072B9
:10C4B00001F059F874B1D8F800102348542204311F
:10C4C00001F051F8D8F8001020484FF432725C3176
:10C4D00001F049F86C68012C2CD11D49402201F56E
:10C4E000E47001F040F81B491C2201F5E47001F0F2
:10C4F0003AF8194985F8A1420023042201F2862066
:10C5000085F8603285F8E23201F02DF810E000275E
:10C51000ABE70024C7E72CB1D8F8001009484FF466
:10C520006072D5E707484FF46072002101F044F8CB
:10C5300002236B60BDE8F081002FF3D00024B3E745
:10C5400000F00700D4770020D87700203078002052
:10C550003079002070790020F0770020B059002059
:10C5600070B50C4C054600225821201DFCF718F828
:10C5700000222060C32104F51870FCF711F82A4648
:10C58000C4F85C022146044B0448BDE87040FFF744
:10C5900035BF00BFD47700205474002000F007009E
:10C5A00002460248024B0068FFF728BFB05900203E
:10C5B000D47000200149FFF7F3BF00BF00F007006F
:10C5C00038B505460020FFF7CBFF044618B90349EC
:10C5D0002846FFF7E5FF204638BD00BFD47700208E
:10C5E00010B5FFF7FFFC044628B9FFF72FFF2046E0
:10C5F000FFF7E6FF00B1032010BD000010B5084CA6
:10C600004FF40072FF2104F15C0000F0D5FF2022FE
:10C61000002104F1380000F0CFFF0023236310BD98
:10C62000D477002029DF704738B50C4D0446D5F883
:10C63000643378B101330FD1002218210430FBF7A5
:10C64000AFFF21462060072205F55970BDE838404C
:10C65000FFF7E8BF0E2038BD0820FCE700F0070018
:10C6600008B528B103491C2200F07DFF002008BD59
:10C670000E20FCE764F3070010B5064C00221821D9
:10C680002046FBF78DFF54F8043C1B1A58425841D2
:10C6900010BD00BF68F3070010B50A4CD4F824336E
:10C6A000D4F864231340013309D04FF4FE20FDF782
:10C6B000A9F9C92221464FF4FE20FDF7D1F9002047
:10C6C00010BD00BFD4770020F8B5094F094CE41B1A
:10C6D0000646E4080025A54201D10020F8BD57F820
:10C6E0003530304698470028F8D10135F3E700BFD0
:10C6F00080D6070088D60700F8B5094E094CA41B60
:10C700000746E40800250436A54201D10020F8BD03
:10C7100056F83530384698470028F8D10135F3E708
:10C7200080D6070088D6070008B50C22002100F04B
:10C7300043FF024B00221A6308BD00BFD4770020DC
:10C740004FF44053074A5968914201BF986800F678
:10C75000FF7020F47F6020F00F0018BF4FF480506E
:10C76000704700BFDBE5B15108B5FFF7E9FF054BA6
:10C770009B69184400F6FF7020F47F6020F00F00E2
:10C7800008BD00BFD47700204FF4805070470000F0
:10C790002DE9F74F1F46244BDFF894B01B6ADFF8F2
:10C7A000949001910446154600934FF000084FF411
:10C7B000405AB8F1010F5FFA88F61AD0022E24D041
:10C7C000FFF7D2FF9DB1009B013B59425941A9EBB4
:10C7D0000000A04201D3019BEBB1D1B908F10108DF
:10C7E000B8F1030FE5D1A04216D2042018E0294683
:10C7F000EDE7FFF7A5FF37B9DAF80410B1EB0B014D
:10C8000018BF0121E3E74146E1E701214FF48050E1
:10C81000DDE7A042E9D316B10448FFF785FF002009
:10C8200003B0BDE8F08F00BFD4770020EC77002084
:10C83000DBE5B1510050070090F8552012F0FB0FD6
:10C8400007D190F8643023B1836ECBB10B60012027
:10C85000704712F0010303D090F8563003B1836D96
:10C860009207F2D590F85C20002AEED0054A006EBF
:10C87000C2F5FC22904201D80344E6E70420704749
:10C880000F207047008007002DE9FF472F49304DEA
:10C890008A6B304C304FDFF8D490DFF8D4A06E466E
:10C8A0005C313046FCF736FD96E80F0085E80F0056
:10C8B00000212A4B39704FF447722046C9F8001006
:10C8C000CAF80010EB6000F077FE254922462846A2
:10C8D000FCF7BDFF20B90027384604B0BDE8F0875B
:10C8E0003F78002FF7D094F86C3194F800801BB398
:10C8F000B8F1000FEFD194F87231002BEBD0DAF8D9
:10C900000020D9F800103046FCF704FD96E80F002F
:10C9100085E80F004FF4B272414604F5BA7000F09A
:10C920004BFE104904F5BA722846FCF790FF002828
:10C93000D1D004F5BA7406E0B8F1000FCBD0A379DA
:10C94000002BC8D00834084B1C60C5E7D477002002
:10C95000A07E0020847B0020807B002075C907001A
:10C96000E0DA07002CDA07005C7F00207C7B0020E7
:10C97000787B00205B68DA680D4B9A4230B508D1AD
:10C980000C4C236813B90C490B681BB10B4B0022EC
:10C990001A7030BDD0E901321A4413F9015B002D41
:10C9A000A2EB0300F9DB23600860044B0122EFE7F0
:10C9B0002CDA07007C7B0020787B0020807B002025
:10C9C0004FF4405310B55968154CA142024624D08B
:10C9D00000F500535B68181B43424341A1421846CF
:10C9E0001AD102F500535A688A4215D14FF44052C9
:10C9F0001178142982BF50690A4AB0FBF2F01A7804
:10CA000098BF0020142A83BF5B69064AB3FBF2F388
:10CA10000023C01A18BF012010BD0023DEE700BFAD
:10CA2000DBE5B15140420F0000B591B0FDF702F9CE
:10CA3000684608492022FDF730F96A46064907484A
:10CA40004023FDF74FF8064B01221A7011B05DF834
:10CA500004FB00BF78D80700B07E002044D8070050
:10CA6000547B0020F0B5A3B007460D4614461E4681
:10CA700078222023002104A8029300F09DFD0023CA
:10CA80000393194B1B780BB9FFF7CEFF2DB337BBC0
:10CA900002AB164F01931649289B0097324604A813
:10CAA000FDF7AEF8E8B9402C1BD1124E22462946BC
:10CAB000304600F058FD20213046FDF7FAF8CDE968
:10CAC0000064029B0C493A4603A8FDF727F80028AA
:10CAD0000CBF0120052023B0F0BD1320FBE716207A
:10CAE000F9E70A20F7E700BF547B0020F87E00201A
:10CAF00084D90700187F0020B07E0020F0B5ABB0CD
:10CB000004460D4616461F467822202300210CA815
:10CB1000039300F051FD114B1B780BB9FFF784FF15
:10CB20002FB12146202204A8FDF7ACF804AC03ABDA
:10CB30000B4F01930B49009733462A460CA8FDF78B
:10CB40005FF848B920222146384600F0D5FCB0FAFB
:10CB500080F040092BB0F0BD0020FBE7547B0020A3
:10CB6000557B002084D9070008B5044B986B08B1A9
:10CB7000FFF78AFE024B187008BD00BFD477002073
:10CB8000587F002010B5044658B1B0F5007F0AD890
:10CB9000064B00221A70FFF731FD054B01209C6304
:10CBA00010BD0320FCE70420FAE700BF587F0020F7
:10CBB000D477002070B50E4C0646E06BA36B42188C
:10CBC0009A420D4611D85C300A462044314600F0A6
:10CBD000CAFCE36B04F140022B4429463046E36370
:10CBE000FBF7DEFC2064012070BD0320FCE700BFE2
:10CBF000D4770020014B1878704700BF587F002081
:10CC000013B5104C94F86C21B2B194F8D802B4F872
:10CC1000DA2204F5377104F5B8740B4B1B680093E6
:10CC20000A4B1B68FFF71EFF012809D1201D02B027
:10CC3000BDE8104000F0BEB9114610460434ECE7E0
:10CC400002B010BD847B0020787B00207C7B00201C
:10CC5000204BD3E90E329A422DE9F04106460D46AB
:10CC600033D1DFF8788098F800704FB1FFF77CFD82
:10CC7000194B306029461868BDE8F041FFF7DCBD6C
:10CC8000FFF702FE18B3FFF7BBFF01283760044629
:10CC90002F6017D1104B29461868FFF7CDFD0128EA
:10CCA00004460FD103463A4628683946FFF770FD1F
:10CCB00038B9FFF759FD88F8004030602046BDE8DC
:10CCC000F0810424FFF79AFCF8E70824F6E705242E
:10CCD000F4E700BFD47700205C7F0020587F00205D
:10CCE00001237230FFF70ABF13B5044608462378C4
:10CCF0001146032B03D8DFE803F021050F180020AD
:10CD000002B010BD0022D4F80140FBF749FC844278
:10CD100014BF00200120F3E70A4600230146601CEF
:10CD200002B0BDE81040FFF7E9BE00910346402283
:10CD3000611C0020FFF796FE0128E9E70120DFE7EC
:10CD40002DE9F043A3B005460E4614460021782293
:10CD50001F4604A820239DF8AC800393DDF8A8901B
:10CD600000F02AFC41220021284600F025FCB6F8FC
:10CD70009430A34282BF442303FB046393F896805C
:10CD800085F80080B8F1030F1ED8DFE808F009022B
:10CD9000111F002249463846FBF702FCC5F8010086
:10CDA0004A4639462846FFF79FFF23B0BDE8F08387
:10CDB00003AB01936B1C00930A494B463A4604A807
:10CDC000FCF71EFF0028EBD00020EEE744214C4387
:10CDD00033199A34B3F898203119681C00F0C3FB5A
:10CDE000DEE700BF84D907002DE9F047684B1D68D6
:10CDF000A4B004460F4690460A4601462846FFF76F
:10CE00006FFF002800F0C18095F855601EBB4FF001
:10CE10000109CDE9007923463246294613A8FFF7D8
:10CE20008FFF002874D0B8F1000F60D0412259481C
:10CE300013A900F098FB584B6A68C3F82C901E6247
:10CE40009A60002239462046FBF7AAFB524B012587
:10CE5000C3E9097094E04122002102A800F0ACFB74
:10CE600006F001094122002113A806F0020600F095
:10CE7000A3FBB9F1000F3ED004F50052474B5068B8
:10CE8000984245D1D5F858A00AF5FF530AF6FF712C
:10CE9000C1F30B011F335B1A9168994238D34FF4E9
:10CEA0004053596881420CD11978102988BF1969FB
:10CEB000137898BF0021102B8CBF1369002399426F
:10CEC00026D12046FFF77CFD00B10EB30123CDE94A
:10CED00000A300222346294602A8FFF731FFB8B17C
:10CEE000AA6DA318BA1A4EB9B8F1000F1AD12A4B7D
:10CEF00001255D6112E03A462346F4E70021CDE9C1
:10CF0000002113A84A462946FFF71AFF0028EBD153
:10CF10000525B8F1000F30D1FFF770FB284624B08B
:10CF2000BDE8F087DFF87080B9F1000F21D020460E
:10CF3000FFF746FD18B108F11800FFF7F5FB184898
:10CF4000412202A900F00FFB002E14BFAC23A52341
:10CF5000C8F82C30AB6DC8F83430002E3FF471AFF8
:10CF60001048412213A900F0FEFA6B68C8F80C3093
:10CF700067E7AA23C8F82C30EFE70B48FFF7D4FB8C
:10CF8000FFF73CFB044B9C64C8E71725C1E700BFD3
:10CF90005C7F0020757A0020D4770020DBE5B1515A
:10CFA000347A0020B67A0020F87700200122FFF7BB
:10CFB0001BBF000090F85420F0B50346002A4DD066
:10CFC00090F85500032849D893F86E20032A43D1DE
:10CFD0001A7A002A42D0DA68342A41D14FF44055F7
:10CFE00020496C681A8A8C421FD142B15969A9B193
:10CFF000D2B203F114040021CEB2B24201D8122001
:10D0000023E054F8047BAE89B74201F10101F3D16A
:10D010001A788AB9012818BF0F2016E010B9012A22
:10D02000EDD1F5E70128F3D1E9E712B15A69002AF9
:10D03000E5D11A78002AE2D001285B680A4A05D8AF
:10D040009068834234BF10200120F0BDD068834235
:10D050008CBF01201020F8E71420F6E70F20F4E73A
:10D060001120F2E7DBE5B151D477002038B1054B50
:10D070000360054B436001230372002070470E20BC
:10D08000704700BFB3D007008DD0070069B10B789F
:10D09000022B0CD1022804D0032814BF0820112031
:10D0A000704703230B70002070470E207047082044
:10D0B000704710B50C4681B10B78012B06D00ED904
:10D0C000033B012B94BF0820112010BDFFF7ACFAE1
:10D0D0000028FAD102232370F7E70E20F5E7082095
:10D0E000F3E7000070B5144B144A0C21D21AB2FBBE
:10D0F000F1F2816911F8025C044635B9006900213A
:10D10000914205D1012323600EE04FF0FF30F6E796
:10D110001E68AE420CD1461C07D19D68D4E90001BF
:10D12000D4E90223A847206070BD5E688642F4D02F
:10D1300001310C33E4E700BF88D6070094D607001E
:10D140001EF0040F0CBFEFF30880EFF30980FFF728
:10D15000C9BF00BF10DF704711DF704713B5044629
:10D1600009496846FBF78EFD019808B902B010BD69
:10D17000D0E900212046904718B16846FBF78CFDA6
:10D18000F2E71120F2E700BF84DB070013B5044685
:10D1900007496846FBF776FD019B0BB902B010BD4D
:10D1A0002046D3E9002190476846FBF775FDF3E779
:10D1B0009CDB0700084B9A6822B11A6822F48002AF
:10D1C0001A607047054B4FF48002C3F88020BFF30C
:10D1D0004F8FBFF36F8F7047C859002000E100E008
:10D1E0000B4991F816335A09EC231341DB0706D596
:10D1F000084B9A683AB94FF480030B60704742F2CB
:10D200000200FCF796BD1A6842F480021A6070476B
:10D2100000E100E0C8590020F7B5194F3C7864BB25
:10D22000184E012520463570FFF798FF112821D0B0
:10D230002046FFF7ABFF144B8DF8034018680190B0
:10D240000DF10300FBF772F9104901A8FFF782FF07
:10D250000446B0FA80F0400938709DF80300FBF7EF
:10D2600089F93CB90A4B34701C70FFF7B9FF2846A6
:10D27000FFF78CFF204603B0F0BD0824FAE700BF9B
:10D28000617F0020607F00207EDB07002D9D07006E
:10D29000627F0020F7B5154F3B781BB3144E012079
:10D2A0003070FFF75BFF11284FF000051CD0022003
:10D2B000FFF76CFF0DF107008DF80750FBF736F90B
:10D2C000FFF74AFF04469DF807003D70FBF752F94F
:10D2D0002CB903203470FFF76DFFFFF757FF20468E
:10D2E00003B0F0BD0824FAE72C46F8E7617F002080
:10D2F000607F0020054B1B7833B1054B1B780BB1C9
:10D30000FFF7C8BFFFF788BF08207047607F002085
:10D31000617F0020014B1878704700BF617F0020BB
:10D3200007B508496846FBF7ADFC019B13B903B08C
:10D330005DF804FBD3E9002090476846FBF7ACFC9E
:10D34000F3E700BF90DB0700FFF7EABF60DF70473D
:10D3500069DF704761DF704730B5134DADF5017D72
:10D360004FF4FA740DF1020103A8ADF80240FFF783
:10D37000F1FF70B9294601A8FBF784FC029B002B42
:10D38000F0D003A8D3E90021904701A8FBF784FC63
:10D39000F4E7052805D00DF5017DBDE83040FCF728
:10D3A000C8BC0DF5017D30BDA8DB0700024B1B7822
:10D3B0000BB1FFF7D1BF7047637F002018B1034B5B
:10D3C0000360002070470E20704700BF685900209E
:10D3D000F0B5074685B00D4600295DD02F4B0B6098
:10D3E0000C22002101A800F0E7F8012606232A6894
:10D3F000ADF8083001A920208DF804708DF8066082
:10D40000FFF7A6FF0C22002101A800F0D5F80024A8
:10D410002A688DF8056001A94020ADF80640FFF7A5
:10D4200097FF0C22214601A800F0C6F8F7232A68CE
:10D43000ADF8063001A923208DF80470FFF788FFAE
:10D440000C22214601A800F0B7F82A688DF8046084
:10D4500001A93046FFF77CFF0C22214601A800F00D
:10D46000ABF84FF4B0632A68019301A9A120FFF73C
:10D470006FFF0C22214601A800F09EF89DF80430B1
:10D480002A6864F3000301A9A0208DF80430FFF797
:10D490005FFF204605B0F0BD0E20FBE76859002075
:10D4A00008B5FFF753FF10B9014B01221A7008BDF0
:10D4B000637F00204BDF70471FB50E4C01A8FFF7BC
:10D4C000F9FF70B9214602A8FBF7DCFB039B002B98
:10D4D000F4D00198D3E90021904702A8FBF7DCFBC8
:10D4E000F4E7052804D004B0BDE81040FCF721BCE7
:10D4F00004B010BDB4DB07009AB330B594460F2AD0
:10D5000018D902460B4640EA010414F0030F02D07A
:10D510000CF1FF3C11E019461046043204330C684C
:10D520000568A54206D110461946ACF1040CBCF1C1
:10D53000040FF0D8BCF1010C0FD00A460346844416
:10D540001146184601330132047891F800E0744521
:10D5500003D1184611466345F2D100780B78C01A02
:10D5600030BD00207047844640EA010313F0030FEA
:10D5700018D18446202A0BD32DE9F007B1E8F8072B
:10D58000A0E8F807A2F12002202AF7D2BDE8F007B0
:10D59000042A07D351F8043B40F8043BA2F10402EB
:10D5A000042AF7D2002A05D011F8013B00F8013B0C
:10D5B000013AF9D1604670478446002A2DD010F018
:10D5C000030F04D000F8011B013A26D0F7E7C9B2D7
:10D5D00041EA012141EA0141202A12D3A2F12002AD
:10D5E0002DE9F0030B460C460D460E460F468846C5
:10D5F0008946A0E8FA03203AFBD2BDE8F0032032C6
:10D600000BD0042A05D340F8041B043A05D0042AA1
:10D61000F9D200F8011B013AFBD16046704700F1D6
:10D62000010110F0030F11D010F8012B002A23D0B4
:10D6300010F0030F0AD010F8012B002A1CD010F0B4
:10D64000030F03D010F8012B002A15D02DE970002C
:10D650004FF001324FF0803350F8044BA4EB020539
:10D6600025EA04051D4000D1F6E7A0F1040070BCD6
:10D6700010F8012B002AFBD1A0EB0100704770BC11
:10D68000E9BE070005B90700000000000300000024
:10D690006DD0070034600020707000208170002081
:10D6A0003C600020F400000071B907000000000099
:10D6B000E989070000000000A98B070000000000B6
:10D6C000ADD3070000000000B9D40700000000003F
:10D6D0009D8B07000000000000000000000000001B
:10D6E000D9BF070000100000000008000010000073
:10D6F000040000000100000081880700A5880700E1
:10D70000B5880700C5880700198907008D880700BC
:10D7100091880700958807000010000004000000B1
:10D72000010000002D8A07000D8A0700FD8907000F
:10D73000358C0700E98B0700D1890700D5890700E0
:10D74000D9890700982F8A4291443771CFFBC0B521
:10D75000A5DBB5E95BC25639F111F159A4823F92BC
:10D76000D55E1CAB98AA07D8015B8312BE85312415
:10D77000C37D0C55745DBE72FEB1DE80A706DC9BD6
:10D7800074F19BC1C1699BE48647BEEFC69DC10F82
:10D79000CCA10C246F2CE92DAA84744ADCA9B05CBE
:10D7A000DA88F97652513E986DC631A8C82703B081
:10D7B000C77F59BFF30BE0C64791A7D55163CA068F
:10D7C00067292914850AB72738211B2EFC6D2C4D9B
:10D7D000130D385354730A65BB0A6A762EC9C28189
:10D7E000852C7292A1E8BFA24B661AA8708B4BC21F
:10D7F000A3516CC719E892D1240699D685350EF449
:10D8000070A06A1016C1A419086C371E4C774827FF
:10D81000B5BCB034B30C1C394AAAD84E4FCA9C5B75
:10D82000F36F2E68EE828F746F63A5781478C884C6
:10D830000802C78CFAFFBE90EB6C50A4F7A3F9BEA8
:10D84000F27871C6480028000020400035AA070081
:10D85000DD93070083930700D398070043990700DF
:10D8600063990700D3920700959207006F9807000D
:10D87000000000001112131484D6BACEC3971CE81E
:10D88000AA06451AAD11B2644E5383AB97EB11B1A2
:10D8900084D5D2F6421F0581BE69EB41BC2C73EAE8
:10D8A0007B3D01BE0E3EA1538E2F6D2EC37A35C532
:10D8B00077129E3AD1BC34EA08200001FFFFFFFF37
:10D8C000FFFFFFFFFFFFFFFF000000000000000060
:10D8D0000000000001000000FFFFFFFF512563FC76
:10D8E000C2CAB9F3849E17A7ADFAE6BCFFFFFFFFDB
:10D8F000FFFFFFFF00000000FFFFFFFF96C298D868
:10D900004539A1F4A033EB2D817D0377F240A46368
:10D91000E5E6BCF847422CE1F2D1176BF551BF3771
:10D920006840B6CBCE5E316B5733CE2B169E0F7C44
:10D930004AEBE78E9B7F1AFEE242E34F4B60D22711
:10D940003E3CCE3BF6B053CCB0061D65BC86987607
:10D9500055BDEBB3E7933AAAD835C65AFBA30700E7
:10D960004DA50700ADA50700000000000000000065
:10D970000338FDD8704700000101000000010100DC
:10D9800000000000AFB70700A9B7070089B707007C
:10D9900020000000780000000000000001000100ED
:10D9A000000000000100000000000000020005006F
:10D9B0000100000042000000000000000000000024
:10D9C0000000000000000000000000000100110045
:10D9D0000100FFFF0100000000000000020017002E
:10D9E0000200FEFF640100002CDA070000000000C6
:10D9F0000000000000000000000000000100010025
:10DA0000000000000100000000000000020005000E
:10DA100001000000220000000000000000000000E3
:10DA200000000000000000000000000001001100E4
:10DA30000400FCFF040000000000000002001100D0
:10DA40000400FCFF040000000000000003002100AF
:10DA50000400FCFF0400100000000000040011009E
:10DA60000100FFFF010000000000000005001100A0
:10DA70000200FEFF0400000000000000060011008C
:10DA80000400FCFF0400000000000000070011007B
:10DA90000400FCFF04000000000000000800170064
:10DAA0000200FEFF24000000FCD90700090010005E
:10DAB0000100FFFF01000000DCDA07000A00270078
:10DAC0000200FEFF440003009CD907000000000094
:10DAD0000000000000000000000000000000000046
